S0170000745F6C696768745F62726434313538612E73333728
S1130000001C00206DB10000C5B20000C9B20000A0
S1130010CDB20000D1B20000D5B200000000000053
S1130020000000000000000000000000D9B2000041
S1130030DDB2000000000000E1B20000E5B2000003
S113004009A80000E51D0000E9B20000EDB20000BF
S1130050F5190000251E0000EB1D0000ED1D000039
S1130060E71D000075AA0000DB76000091AE0000D9
S1130070618F0000F1B20000F5B20000F9B2000097
S1130080FDB2000001B30000F976000005B30000E2
S113009009B300000DB3000011B3000015B3000054
S11300A019B300001DB3000021B3000025B3000004
S11300B0271E0000E91D0000C9B0000031A00000A7
S11300C05B1E000029B30000C1A900002DB300008D
S11300D031B3000035B3000039B300003DB3000074
S11300E041B3000045B3000049B300004DB3000024
S10F00F051B3000055B3000000000000F4
S11301000298380002983E000298860302984C0632
S11301100298560002987C00029856000298F20059
S113012002981E0202984402029860000298E202B9
S1130130029854030298660006980A0900F8069883
S11301400A0900C5981F002154150698140C00C50F
S11301509C1F002100F806980A090698EA0C1870FA
S113016006980A090E7006980A090698AA100698B5
S1130170EA0C06988E020698CE0B00F806980A0937
S113018010B902BA0698220400C59C1F002100F889
S11301909112033288B903DE40727179A11020D81C
S11301A008710698140C5C7000C3F01E002134130F
S11301B080DB1A7100C3A8100840A1141034024C4B
S11301C0481300BC48139114076448138CBB627B2A
S11301D040D80671517900BA076A00C0A0000840EF
S11301E00698E600042008780978041121411810C3
S11301F000A006980A0900BD0698660A10B903DC37
S1130200047100B902BA0698220404D906710040A8
S11302104072811008D810710698660A03DC0872CF
S113022006987A0426700698EA01FFD80C7288B8FA
S1130230477800B844784470911010D80E7100BB10
S113024000C46C5008400698540420B802A800F872
S113025000C0F01E0021041320DB2071911010D87F
S11302600E710760FFD808728CB84478967008DB6A
S11302709272A11328DB8C7203BD0698DE010698E6
S1130280EA0C00C5A01F00210698660A00BA03DC28
S11302904272042500C00C5108400698D408211469
S11302A000C014000840041002680423341111280B
S11302B000C1306108401411076180D90C7191119B
S11302C008D90671FC23E025F8233411069830116F
S11302D0412A5415212D0698B20A02989E0F9110B6
S11302E0015503355150011900A001B8811180D97D
S11302F02C7100C10C500840141004302072642189
S11303001412EC211410014A07620360803021505A
S11303108C480A717F2155211410013000A00698E1
S11303200A090698EA0C00BD0698DE0188B84778E9
S113033000B8447800C5A81F002154150698B20AD5
S113034002989E0F06980A0900C4BC1F0021441499
S11303501DB3315B302C20750698B80800C06000CE
S113036008400410016801D80E7100C06400084000
S1130370237808B865780698EA01FFD8067208B8A9
S1130380607800C2000002020698200400F800B958
S113039000C09C10084018101C200AB9181000C294
S11303A0600008402410911188BB0D302C71082284
S11303B00812FC2204D9147204D804716A7B08D888
S11303C004716C7B2F7A487B107004D804716D7BA8
S11303D008D804716F7B217A507B517B8CB84278AA
S11303E000A006980A090698660A07DC0A7200C586
S11303F09C1F002100F80698CE0B01B9911004D877
S1130400047100B900C200000200069822040040F2
S1130410207100C0F01E0021041120D9147107615D
S113042001D9E0728110076001D8D8728CB8647861
S113043006988E0200C5AC1F0021541500C01C5143
S113044008400698D408212D0698140C00C5B01F46
S1130450002100F806980A09811108D90C71069840
S11304607A0420B802A800F806988E0200BD069807
S1130470DE0188B8477800B8447800C5B41F00216D
S1130480541502989E0FB110076001D80A7108B87C
S11304907F78020C7E7806980A0901F8911010D82A
S11304A0467106986C0D06988E0D0698460E00C58A
S11304B01C510840541100C5305008405412E8251E
S11304C054151159112D06760122212D00C1FC1E4F
S11304D000211411112DD07518B875788CB8447892
S11304E001B802A800F8B110076810D8307100C034
S11304F04810084000C30000084031146024282438
S113050044113411076101D9FA71441228100762A9
S113051028100762281007622810E8700298120D4C
S11305200C700698820A11380472076A00BB00C175
S1130530001F002100C440510840141120391672D4
S1130540417B007C00C46C50084000C200000101E3
S1130550281400A006986E0400C2F01E0021241284
S113056040DA0672617B007C88BA527A00A088BAAD
S1130570727A811204DAFC7200A088B86B7800C029
S1130580640008402F7800A00763076390B963797B
S113059000B902EC00CD114502EC00CC01DB067180
S11305A002985E07411103B804D91C7207319112F5
S11305B010DA087102DD10721C7002B80698F4108B
S11305C03038127208B806988A0F00C02400084018
S11305D0207800F802EC00CA05B823DAEA7202ECCB
S11305E000C8911110D9167100C1F81E0021141110
S11305F011500A7108DB06720AB8CC7007689111B1
S1130600173111402111C0311140011990B8411125
S113061008D90471627820D904726578273123DD02
S11306200872C0DA0471607803B8411107310872A6
S1130630A1152035927102DD1672A11120D988719D
S1130640CCDA847206B8054DB27202985E072111A5
S11306504049C0D93471A03141154035016551413B
S11306600361076308DA147204DA1E721049013454
S11306700A7101DB147190B8677800C00D0F0C0D7E
S11306800698F61001D8087207B80298C604CC324E
S1130690204A00C0051708500698F6101130014290
S11306A00DDA6671208800C1DE1B250120BB04DA47
S11306B0107208DA0A7200C120841000F823E823BB
S11306C03114056B01DA06711E49024B076B076B87
S11306D000C0481F00213810BC2002DA127100B992
S11306E0FF21A11380DB087100C100FCFF01181079
S11306F00298E60600C3F01E0021341080D846712B
S1130700EFBA0698B80E00920362DDDA9472A11172
S113071001D9327100C2381008402412042328136E
S113072002EC00C804D9167104BA183008710060CC
S1130730FD20012A02EC00C8FF22FA7604DC0672CE
S113074018B8737890B8437802985E0706980A0937
S113075000B8011A91101730011900C202020000FA
S11307600698200404D9067101B802A800C0F01E3E
S11307700021041380DB06710298880401DB5E719A
S113078000C2501F002124111114FF3402EC00C8D0
S1130790FF24FA76076106980411036111380F30BB
S11307A003611114011141100698041101D8087253
S11307B003B80298C604042202DB1671241011281F
S11307C011280698181100C218000840FF200812CA
S11307D0411007600698041101D8087120BC10DB91
S11307E0067202985E0700BB00C1481F0021141561
S11307F0511207620762C021112CFF320E7140882A
S113080051140698B4074143009441115112076AE8
S1130810FF320E71511407640698B407076C414304
S113082000C14C1F00211410013BB82114111112F6
S113083031100F30127100BA046101D804711142F1
S113084000600FD8F472311006601E30047201B8D3
S1130850003A087204B80298C6040298F40500C16C
S1130860306108401411076180D91A7102EC1DB07F
S113087002EC1DB1015811288020E0200875911266
S1130880084A211900C0581F002104110F3103DD4B
S11308901A7200C000600840041007D80E7200C02D
S11308A01040084004B9181000F80698B60E00B8B5
S11308B0477800F830885088FF34087102ECFF2430
S11308C0F87002EC00CD141001BB5150FFD8047134
S11308D031440760006B10DBF2710421FF22E472E3
S11308E00F4C0095009300A0B11001D8047200A031
S11308F000C0287008400411108800C1001800408E
S11309001810442004111088A820041110884CBA2F
S1130910757A18103DB11088F4B842784420727882
S1130920D8207378E82073784FB200C4FFFF80802A
S1130930413A4FAA01BC01644113076300C06C70C3
S1130940084003B918100110011001B91810011062
S113095001100110011098200411076101B8016011
S1130960003A0471044904D9047241520760003A00
S11309700471084908D9047231520460003B0E72B4
S113098000630064314241424FAAB2704FAA44B896
S113099001685378F8B853784020527800913DA903
S11309A0009100C0147008401810009158201810CD
S11309B00091BC20181000A04024066400C0FFFF72
S11309C00000013C1DB002200158402806751EACF1
S11309D001EC00A000C21850084024111DB41113EA
S11309E024113051F871066C402404100158112868
S11309F000C3901F002134110698301100B88020E4
S1130A00013A0662215A412A00A0009000C6C01F84
S1130A100021008801B007680F305CB111130F3357
S1130A200111C04806986C0A0698680400C4601F47
S1130A30002103DD167214BA281400C20001084014
S1130A40317A9C22CC22207A00A009DDEE7100BA12
S1130A5003DF1E71004B06722814311953B080BB9A
S1130A60006B30380A7109DD06710298CE0E00A0C1
S1130A704413281441150698820A0060B83000C453
S1130A80E010084044120762013221400824287C07
S1130A90F8255412F03240DE0472404804DB087238
S1130AA00DDD0C72044BEF30144806983A090088A7
S1130AB0811140D91E72B1123032CF4A2138B1D8D7
S1130AC0127208D8067104D80A719C24D424237C99
S1130AD0347098244412FF32C322047580B8D82499
S1130AE081D8247140D90472237C084B04BA80DC79
S1130AF0067180D8367206B904A901D82E7264240E
S1130B002824307C4E7008D80C7107BA24D804719C
S1130B1006BA187004D80C7101BA40D80E7102BA22
S1130B200A7005BA20D8047203BAE02444114024A0
S1130B3018140761181491111831114200C1006092
S1130B400840141110D90471404A2031115228145C
S1130B5008140090308802480698DA0E009308DBE7
S1130B60047100F800A05CB00F3000A01088B1112F
S1130B70076980D90A7100C18000084008110091FA
S1130B8000A000C400010840441000A000C02030B0
S1130B900E40041104101050F47200A000C028404C
S1130BA00E400413315107610C3107691153381099
S1130BB000A00698E20B00C0F41F0021041106985F
S1130BC09C0A217A237A00C3000010000698DC0AEC
S1130BD000C0701F00211DB1181000A0511400C0E6
S1130BE0B81F00210410012C0A7500B826A8069825
S1130BF0B80800C06C1F00211DB1181028B010B92E
S1130C00115911380EB9114028A880B800C14430D8
S1130C100840081100C1F01F00211410303B067178
S1130C200760076000C40830084044111150FF30C9
S1130C30015118146FB8076826A8217A050C2110F1
S1130C402020267800C063EF0000314026A8050C60
S1130C5020EC247A20EC217A184826A828B00AB976
S1130C6001510F31115028A8050C207A20EC0F0CEB
S1130C7098B846784178B11080D83E7100C04C30A5
S1130C80084000C16D01000018100D0E0D0E00C0CB
S1130C90703008400411303112710820257824780E
S1130CA0960CF82004113031F272DC2000C10600E9
S1130CB00000181000B9181006988C0A00C2641FAE
S1130CC0002124100151FF311150081200A0069890
S1130CD0E20B00B826A800C0741F00211DB1181033
S1130CE000A030B840780DB101D9FC72427800C040
S1130CF074300E4004114CBA407A1810EC200411E0
S1130D005C7A1810A4BB707B4E7B4F7B00C204300E
S1130D10084000A00698E20B217A227A00C0801FC6
S1130D2000211DB1181000BB0698DC0AA4BB00C04A
S1130D3040300E400411033101492872B112076298
S1130D4007623020041121510F3118726E7B6F7BC2
S1130D50F02004114CBA7C7A181014200411607A23
S1130D601810B11002D81071707B30B862786078B6
S1130D700DB001D8FC7108B86E780EB84EB110D918
S1130D800C723EA8140C0FB83EA8107044A8140CA2
S1130D9001B800C1AC300E40081100C077801F00BC
S1130DA03DB201423DAA00C0FFFFFFFC013A3DAA4B
S1130DB0140C00C077E01F0001423DAA51B801683D
S1130DC07D7808B87E7806986E040698E807069839
S1130DD0680451140698B808F4B845780A0C00C0A1
S1130DE07C1F00211DB1181000A051B801685D7866
S1130DF000C00000000344A83EA800C1AC300E406F
S1130E00081110B807683DB101393DA908B86F78D9
S1130E1000A001F8541000DC127101140698B808FF
S1130E2018B8707800B8417800F802982E0D06982A
S1130E306C0D008800C5641F002154155112FF3544
S1130E400762FF3206988C0A015951290475115919
S1130E5000902129127506988E0D0698460E03D827
S1130E600472FF0FCE7018B8727800F800C0F41F37
S1130E700021041001D8147150BD0698A40E00C3BB
S1130E80086208402C7B287B00BB1DB400A001D85D
S1130E90047200A00698B8081DB42824408800C035
S1130EA00470084004108020FF3006720298400E3F
S1130EB000DF0672011316703111016B1159112BE9
S1130EC0016300C1FF070000113B012B00C0880132
S1130ED0000001583128087605B86EBD2870E82056
S1130EE0087605B8C8BD1E70DCBDDC20067606B8E1
S1130EF01470F020067607B80C70E820067608B85F
S1130F00047009B800C1006208401412076201DAD3
S1130F10187110DA08720698A40E267008212C792C
S1130F20287950BD0698A40E0768036800C12C6098
S1130F30084000C2FF0FFFFF1414213C0144481174
S1130F4001B8009400A002D8047200A00698B80862
S1130F501DB42824408800C0047008400410FF30E9
S1130F6080DC3C7106985211015900C2EC1F00212B
S1130F70241550452A715412211006985211112833
S1130F800A75042554155045EE7200C01C600844CF
S1130F907FB906611810113A48B97979281002B856
S1130FA0009400A000C47860084044122155FF3525
S1130FB05152281400A0EBBA00C0601F0021041194
S1130FC0113A10D9067118B97479281000A006983E
S1130FD0AA10115106989C0A00B8B111076940D9AA
S1130FE006720298880F00BC08D94071202400C101
S1130FF060600840111200DC0C71A022241210DA87
S113100010710C70BC222412076204DA04710421EA
S1131010141200C180000840320C28110762281104
S113102007622811076228114B0C00C1581F0021C8
S1131030141200DC1C7120D8087101B80698920FB4
S1131040F0DA0C720CDB087102B80698920F48248F
S113105000C380000840FFB801200421141111418D
S11310600871014118130824014200C138300840B6
S11310701411014100C000600840041030300168C0
S1131080014118132813481300B800C1581F002148
S1131090141203682150F0300152281100A064BCDE
S11310A0066C415C512C0698B8085088069890004C
S11310B00095B110076820D8207108B865789110A0
S11310C004D8087206987A0400F888B86E7800C0CC
S11310D064000840217800F808B86C7820B85A7881
S11310E059785B7800C0F44008407878797800C07B
S11310F0E81F0021041040A846A84EB010D844723E
S11311004DB100C09FFFFFFF113840B102D90A72F0
S1131110604804BB41540870204802BB02BC4DA87F
S1131120F8B87078190C3EB141413EA9F4B973790D
S11311307378717800C4F840084000C20041084048
S1131140227000C20000010044AA230C00C2000067
S11311500B0044AA00C41041084000C218410840D2
S113116004BB587C050C597C0C240F0C2FAB050CCC
S1131170B11008D81471647A657A1CB879787B78D0
S113118020B879787B78607CF42441135114069854
S1131190B808727B53B80168050C687840EC00C04D
S11311A0781F00211DB1181000F8015053A800C089
S11311B0B860084004110761076180D9047240ECEB
S11311C000C4F84008404EB010D8047118244113EC
S11311D00C23527C407B01502FA8050C797C0A0C0F
S11311E000C0000001020814787C050C507C08B88B
S11311F06D7800A0115910D906710760076008D9ED
S11312000471076004D90471036002D90471016098
S113121001D90471006000A0108804110230067125
S11312200761076100C0FFFF00001138009100A0B2
S113123000C2FFFF00002138213900BA01D806712D
S11312400148112A0069006001D8F6720138F6726B
S113125000A08020FF30FF48812000A05704000038
S1131260012100F01F029140DFF8382705E0012139
S113127000F01F029140DFF83027400942F82010A7
S1131280704780B500F0DCFEDFF820170968090E0E
S113129001F00F01032906D1DFF814170B680E22A1
S11312A062F307130B600121DFF808271160BDE822
S11312B0024000F0C9BEDFF800271168D368194066
S11312C021EA00009060084670470422C900002803
S11312D014BFDFF8A40ADFF8A40A02FA01F10160DE
S11312E070470120704738B500240025A94208BF83
S11312F0A04200D132B1DFF8884A0123237000F004
S1131300E5FE257031BD70B500F09AFEDFF8AC162D
S1131310DFF8AC46CD78D1E902232E00DFF8941A29
S113132004BF4FF41056324219BF10260E60102627
S113133026600DB9D20502D520220A6001E02021E1
S11313402160BDE8704000F07FBEDFF87006002128
S11313500171C17811B10021C170D4E7704710B593
S1131360DFF85846207970B101F0DAFD58B9FFF77B
S1131370ECFFD4E90201BDE81040002200F48050E3
S113138001F00001AFE710BDF8B504460D4616465E
S1131390FFF7B9FF4FF4004014F0AA6F18BF48F2EA
S11313A00200B107DFF81C16DFF81C764A6848BF54
S11313B040F4005000F09DF8DFF81016DFF81076C6
S11313C008600020210448BF4FF48050E10348BF67
S11313D040F48070E10648BF40F40050A10648BFC5
S11313E040F40070610648BF40F480602106DFF8D5
S11313F0E4154A6848BF40F4006000F07AF805F04C
S11314000403DFF8D415DFF8D47508600025002044
S1131410AB4218BF4FF48020210548BF40F4803010
S1131420610448BF40F48010A10748BF40F4001095
S1131430A10348BF40F400207107DFF8A4154A68EF
S113144048BF40F0040082EA00035B0802EA43025A
S11314503A600A6000EA43000860DFF88815086013
S1131460F107DFF88405DFF8586A48BFDFF87C0528
S1131470A10048BF40F400106100DFF874154A6809
S113148048BF40F0007082EA00031A40326000F066
S113149034F8DFF8F018DFF8F06808600020E1079E
S11314A0DFF8E8184A6848BF012082EA00031A40BE
S11314B0326000F022F8DFF8D81808606103DFF822
S11314C0D40848BFDFF8D0086107DFF8D018DFF888
S11314D0AC484A6848BF40F4806082EA000323F4C1
S11314E0A0231A40226000F008F8DFF88C18086086
S11314F0F1BD82EA00031A403A600A6018400860AD
S1131500704710B500F09CFD04461C20FFF7AFFEA9
S11315100820FFF7ACFE0120FFF7A9FE0420FFF727
S1131520A6FE0520FFF7A3FE1D20FFF7A0FE07205F
S1131530FFF79DFE0620FFF79AFE2020FFF797FE97
S11315402046BDE8104000F07FBD2DE9F04702EAD7
S11315500009089D099AC643CF43002D03EA010AF6
S113156005EA0208DFF854442CD1002948D10028A8
S11315706BD001280ED0042842D100F061FD00F0A8
S113158066F8002082450CBF814501200121FFF748
S11315909CFE33E000F054FD00F059F8002292451F
S11315A008BF9145DFF8E40706D00121016001205E
S11315B0DFF8DC17086021E0DFF8CC270121116097
S11315C001601BE00022914204BF9042012D17D11B
S11315D000F036FD05462069400848EA40002061D5
S11315E04FF48061DFF80804B8F1000F19BF0160FF
S11315F0DFF89007DFF8C82811600160284623E06F
S1131600FFF77FFF00F024F82269AA4348EA0202A8
S11316102261FFF7B9FE00F013FD04461C20FFF71A
S11316201FFE0820FFF71CFE0420FFF719FE05200B
S1131630FFF716FE1D20FFF713FE0720FFF710FE2D
S11316400620FFF70DFE204616E1BDE8F0870546AB
S1131650D4E902013040394040EA090041EA0A0174
S1131660C4E902017047DFF85C08006800060FD483
S1131670DFF8541808200860DFF850080068800577
S113168047BF0220DFF848180220DFF8DC180860A2
S1131690704710B5044601F0FAFDFFF732FF00F081
S11316A007F9012002F021F804F1CC01DFF89408D5
S11316B001F0C4FADFF8B41801200860204600F0F5
S11316C043FC02F068F802F0DCF802F005FB04F1D8
S11316D0280002F022FC4FF44001002002F030FA0E
S11316E04FF40011012002F02BFA02F0C0FD02F0C9
S11316F069FE10B9142102F093FEBDE8104002F017
S11317008FBD38B5DFF85858DFF85848286810F00E
S1131710070F06D1606E20B1002001F0B6FB401E19
S113172068618020DFF848180860206820F04000D5
S1131730206031BD10B500F083FC044600F014F8BD
S113174010B902F035FA20B1204600F07DFC0120EA
S113175010BDFFF7D6FFDFF87017012008602046A0
S113176000F072FC002010BD032002F0E2B980B545
S1131770010003D0DFF83818401E086000F060FC58
S1131780DFF8E0170A6822F040020A6000F05CFC0F
S1131790DFF83C170220086001BD012102F0BDBC46
S11317A02DE9F04704468846914600F049FC8246FC
S11317B05FEA08007D4DDFF8F4670FD000F060F8B1
S11317C0DFF8F017012008600420306001E001F028
S11317D0E3FE2868000E10F00F00F8D1802030607E
S11317E0FFF7C2FF20B1032002F073F800F0DBFA28
S11317F002F0B2F902F0ACF900F042F8DFF8640745
S1131800DFF86477016841F040010160FF2038602F
S11318104FF480706860042030603CB1FFF731FD04
S113182002F0BDF92020686000F0BDFAB8F1000FA5
S113183021D0484600F0C0FA0120B9F1000FF86049
S113184019D0604841680160E869A861614841684D
S11318500160DFF8640741680160DFF84005416812
S11318600160DFF8280541680160DFF8500760492E
S11318700860FFF76AFD5046BDE8F04700F0E4BB9E
S113188010B5DFF8EC4606E0DFF820170420086006
S1131890022002F0B9F904202060DFF8280600686D
S11318A04003F1D410BDDFF8180700680021704729
S11318B080B5DFF810070168DFF80C0701F007FDB9
S11318C06821DFF8A00602F0BBFDDFF8F80500216F
S11318D0016041608160BDE8014002F0B5BDF8B52A
S11318E0DFF8E816354C0A5C414E130005464FF408
S11318F000671CD0032D08BF3760521E0A54D2B2B1
S11319005AB9032D05F10900DFF8C41609D1000204
S1131910227840F0010012B10860002017E0F06066
S1131920FBE7042DF9D1000640F48030F4E701F020
S1131930D0FF032D08D1DFF89C1641F61F70086014
S1131940376002F005F9E8E7022D02D101200021F9
S1131950F4BD042DE1D1032001F0BBFF02F0FCF83B
S113196000F06EFB05466078002608B1FFF789FC9D
S113197001F0D6FA0D4F0028386804D1000E00F0AB
S11319800F00032802D1A07820710126284600F018
S11319905BFB002EC1D10020E070FFF7B4FC4FF4D4
S11319A08050D4E700E100E080E100E0044008401A
S11319B0581F0021240008401440084058170020F4
S11319C094400844680008406C0008446C000846D1
S11319D00C620844086208400C620846204008442F
S11319E01C4008402040084604185000041C5000C5
S11319F0645008402DE9F84FDFF8DC050168C2683F
S1131A0002EA010BC0F808B0DFF8D0050168C2682B
S1131A1002EA01048460DFF8C8050168C26802EACA
S1131A20010585604FF6FF70FFF745FC0646DFF8B9
S1131A30B4050068C0F34070002801BFDFF8A805B2
S1131A400068C0F3407000281ED000F0F9FA824606
S1131A5002F0AEF88046DFF89405DFF890150068D0
S1131A60C96801EA0007DFF8841527F4006088607C
S1131A70780704D5DFF878050178491C017000F077
S1131A808FF98DF8008002E08DF8000000274FF0F8
S1131A900008BBF1000FC246C1463ED05FEA0B41CD
S1131AA0DFF820041CD50168DFF80025DFF8FC34DA
S1131AB001F4E051116080221A601022DFF8A8348A
S1131AC01A6011B94FF400280AE0CA0448BF4FF065
S1131AD0007805D449054CBF4FF400184FF40008B2
S1131AE05FEA8B7114D50068DFF8C01410F460400D
S1131AF0086008BF48F480180AD0010448BF48F0C1
S1131B00806805D480044CBF48F4800848F080788D
S1131B105FEA8B4048BF4FF00209DFF8D804044263
S1131B2033D014F4206F07D0002000F045F90621CB
S1131B3000F03CF924F4802414F0090FDFF888B392
S1131B4009D02020CBF800000120DFF8AC14086095
S1131B50082100F02BF914F0106F07D02020CBF8E7
S1131B60000001F0B5F9092100F020F914F4202F48
S1131B7007D0002000F020F9072100F017F924F421
S1131B808024E00348BF01F078FA60070ED5DFF83F
S1131B906C0400684FF4005128B1DFF8640401605C
S1131BA048F4802802E0DFF85C040160600548BF67
S1131BB048F0040860031CD501F037FA401E0628DB
S1131BC005D8DFE800F0080B080E111414000321F7
S1131BD000F0ECF80DE048F400580AE048F480689E
S1131BE007E048F4007804E048F4807801E048F025
S1131BF00808BDB1E80448BF48F40048E80548BFF8
S1131C0048F48038A80448BF48F01008A80548BF25
S1131C1048F02008680548BF48F04008280548BF38
S1131C2048F0800816B3B00148BF49F008097001B4
S1131C3048BF49F01009300148BF49F0200970033A
S1131C4048BF4AF0040AF00348BF48F40068F002B1
S1131C5048BF48F48048B00248BF48F00208300347
S1131C6004D500F094F908B148F40038002F5ED090
S1131C70380506D50320FFF732FE48EA00084AEA91
S1131C80010AB80104D52B2001F059FD48F0804821
S1131C9017F4E00F04D1F80439D59DF80000B0B36F
S1131CA0B80204D5292001F04AFD48F00058780212
S1131CB048F080550CD500F076F8272001F03FFD60
S1131CC0DFF8E812802008601020DFF89C121BE087
S1131CD0F80207D500F067F8282001F030FD48F03D
S1131CE000681DE0F8041BD500F05DF801F057FF13
S1131CF0DFF8F802006810F4A00F11D12A2001F0D7
S1131D001EFD0120DFF8F0120860A84608E0F80480
S1131D1006D50420FFF7E3FD48EA00084AEA010A71
S1131D20780504D50220FFF7DAFD40EA0909DFF857
S1131D30D8020169D0E9025301EA090208EA050060
S1131D400AEA0301FFF7CFFA600303D501F08AF929
S1131D50FFF705FB6EB1B00148BF02F05CFD7001F6
S1131D6048BF02F075FD300103D5BDE8F14F02F024
S1131D7070BDBDE8F18F0000EC100846EC1008447B
S1131D80F7170020685008463C7008443870084033
S1131D903C700846090A0A090D0A0A09E8100840B5
S1131DA0504600F051B9042001F093BD002002F028
S1131DB037BB00009440084638B5044600F040F9AB
S1131DC0054601F088F814B1FFF7BFFA05E0DFF823
S1131DD03C02007808B9FFF7C2FA2846BDE8324051
S1131DE000F032B906E605E604E603E610B5DFF8CE
S1131DF02002FFF760FA0446E00707D5DFF8140273
S1131E000068000E00F00F0000F010F9600708D51C
S1131E10DFF8F401007CBDE8104000F0040200206B
S1131E2018E010BDE6E580B5DFF8EC010168C26892
S1131E3011408160C8070CD5DFF8CC01007A12216B
S1131E4000F0010002F0ECFABDE808400022012095
S1131E5000E001BD0021FFF746BADFF8C0010168C8
S1131E60C2681140816070472DE9F84380460C46F2
S1131E70914600F0E5F83B4E376805464046FFF7CB
S1131E8030FA28B127EA040004EA09010843306063
S1131E90284600F0D9F804EA0700BDE8F28338B513
S1131EA004460D46FFF71DFA00281ABF2D480068A6
S1131EB0606F2840A84201D1012032BD002032BD0C
S1131EC0685008448840084008400840001F00212A
S1131ED00040084670B50E0082B00546DFF8404168
S1131EE00BD100220721FFF7BFFF2846FFF7F9F9BE
S1131EF038B30020C4E9000073BDFFF7F2F9D8B18C
S1131F0048490720086001213079207070790090D9
S1131F10684602F0CDFD0099C14000F00F0040EA90
S1131F20011060702249B079A070F079E0703068D7
S1131F3060603079401C0860072207212846FFF7BB
S1131F4093FF73BD6716000080B5FFF7CAF928B187
S1131F50BDE804404C21344802F072BA01BD0000CF
S1131F6004000840F01E0021004008440C400844CE
S1131F7088400846802192E780B500920B460246CD
S1131F80022001F0B6FC02BD022001F0A2BC2148EF
S1131F900068000E00F00F0002281CBF0328072869
S1131FA001D1012070470020704700008840084498
S1131FB0180008400C400846783008405000F002F1
S1131FC01C5108405C12000000010000F0160020C3
S1131FD06C5008466C50084460000840E01008400B
S1131FE00062084000E300E000E200E05C500840CA
S1131FF0F8170020090A0B0928100840B40402430A
S1132000241008442410084658170020F71700200D
S11320100000FFFF04400840307008407030084062
S1132020501F002104000844041F0021024901201C
S11320300860024908607047204008441C4008407A
S1132040EFF3108072B6704700B962B67047026849
S1132050531C036011707047DFF8B015042209683F
S1132060C00002FA00F0084018BF0120C0B2704757
S11320700422C900002814BFDFF89405DFF8940592
S113208002FA01F10160704701207047704738B5CA
S1132090D0E9104522402B400024A34208BFA242AD
S11320A007D001B0DFF8A4160968BDE830400C3849
S11320B0084731BD48B1DFF860256FF0FF011160BA
S11320C0000ADFF88C160002086070472DE9FC4115
S11320D004460D46904602F0FFFC00F10C06DFF8C2
S11320E03C05DFF83C750421204029400022914240
S11320F008BF904248D0200303D5FFF7D4FBC7E9BB
S11321000201E00203D5FFF7CEFBC7E90401E000BA
S11321100BD5DFF81005006800F07F40B0F1007FB8
S113212003D1DFF8041502200860E0071FD500F092
S11321300BF9002200F08AF9012001F00CFAF0807A
S11321400021012002F04FFD7978002914BFDFF847
S11321500416DFF80C164FF400100860386AFFF715
S1132160A9FF00203862307840F00800307005F094
S113217004010023994207D00121304602F074FE85
S113218025F0040504430D430020854208BF844222
S11321900ED022462B463046FFF779FF4FF0FF3032
S11321A0C7E90200C7E90400200744BF00207862A1
S11321B05FEAC8700AD5B9690020B8610120387097
S11321C0080003D0F869BDE8FC410847BDE8F38185
S11321D010B50446112003F0F7F8042802BFDFF815
S11321E08C05006810F4403F01D0022010BD204649
S11321F0FFF74FFADFF8DC1560200860002010BDFF
S1132200FEB504460FF274000068029004F10C0756
S113221064200026BE67C7E91066B886F88638874A
S11322207887B887F8870D464FF6FF7038813E8669
S11322307E863846FFF728FFC0B13846FFF7C8FF4F
S1132240060013D102A9384600F0FBFA0646BA6F1D
S11322504FF0FF31384600F059F900F075F84FF0AF
S11322608052042310460421FFF76FF928001CBF95
S11322702046A8473046FEBD0000000000000000D4
S113228010B50446207881072FD5616A69B300F040
S1132290FD002070DFF87405006800281FBF016886
S11322A00029C06803F07EFB606A4069006810F191
S11322B0010F03D0BDE8104003F0C2BBD4E9100104
S11322C001F004010023994204D1207840F0020077
S11322D0207010BD4FF48031204602F0C5FD024647
S11322E02046BDE810400B46D1E610BD2DE9DC4385
S11322F00446DDE90867D4E910019043994306EAEE
S1132300020807EA030940EA080041EA0901C4E9AE
S1132310100122F0010823F0000900F0F1FA80B165
S113232000F012F807EA090106EA080040F08052BA
S113233041F0040340464946FFF707F92046FFF7FA
S11323409FFF0020BDE8D6830020019000907047D5
S113235000680100DFF8F41308BFDFF8980508608F
S113236070470000002300210022032807D8DFE87B
S113237000F00302070A01231846FFF711BA704759
S113238001230121F8E7012301210122F4E780B5AB
S113239001F00EFC40BBDFF86005006800F07060DF
S11323A0B0F1807F18BFB0F1007F19D0B0F1407F49
S11323B018D0B0F1806F1CBFB0F1A06FB0F1E06F26
S11323C00ED0B0F1006F0FD0B0F1106F0ED0B0F19D
S11323D0206F1CBFB0F1306FB0F1406F04D007E044
S11323E0022002BD032002BD042002BD052002BD5F
S11323F0012002BDDFF804050068C00900F00100F7
S113240080F00100704710B5044600F001FA204640
S1132410FFF7B0FD78B1204600F09EF958B10321D2
S1132420002000F01BFD10F1010F01D1032010BDAD
S1132430DFF8A4150860002010BD10B5FFF7E3FF16
S1132440040008BFFFF776F9204610BD00230120E1
S11324500021FFF77AB880B5DFF848170968090644
S113246008BF00F09BFA0020FFF781F9002002BDAD
S1132470012809D00BD3032803D008D24FF0C05051
S113248006E04FF0005003E04FF0605000E0002001
S1132490DFF8D0160A6822F06052104308604FF447
S11324A00010DFF8B012DFF8C0260860DFF8F80685
S11324B0016821F0060141F0040101604FF08051F0
S11324C011600421416100207047DFF8C016062026
S11324D008600020DFF8B81608604FF08050DFF87D
S11324E0B41608604FF40011DFF8740201604FF075
S11324F06051016000207047002819BF0220DFF8F6
S113250098160220DFF8A4160860704738B50D4607
S11325101446FFF7B9FD70B32A07DFF89006DFF819
S1132520781605D5220747BF08220A6008220260F0
S1132530EA0705D5E20747BF0120086001210160D1
S1132540680708D561074CBFDFF86416DFF8641626
S11325504FF400700860A80704D5600800F001007B
S1132560FFF7CAFFE80606D5DFF84C06E1064CBFC4
S113257000211B210160002032BD2DE9FC4700260B
S11325800D0018BF0125022980461446994603D13F
S113259000F027F8002022E0FFF752FD204F82468A
S11325A0B869010018BFA04210D10120BC6101909C
S11325B00090C7F81C90002200F022F83E704046BC
S11325C001F011FB2A46FFF7D7FC06465046FFF7F9
S11325D03BFD002E03BF0020B86101200020BDE8B0
S11325E0F68700B583B000200190002201200090FE
S11325F000F006F8FFF7C8FC09490020886107BD10
S1132600002300200021FEF7A0BF0000EC100840CA
S1132610EC100846EC100844187008440100181027
S113262028060020001F00210040084670B500F075
S11326306AF9002628B104F12801284601F020FF98
S11326400646304670BD70B504460D4694F85800F1
S1132650032801D1022070BD261D316A357081B175
S1132660204602F0E1FA40B93062204602F0CFFB86
S11326700146204602F0F5FA03E0E9B2204600F0F4
S113268002F8002070BD10B50C4690F858100329CC
S113269001D1022010BDFFF7F7FC10B1E0B201F048
S11326A097FF002010BD80B5084601F03CFF0020D4
S11326B002BD01F040BF2DE9F04104460F466069B8
S11326C0012815461E463CD000F01AF9002838D0DF
S11326D002F093FA012803D00121012002F083FAC9
S11326E0A889D5F804803F1ABFB2402F06D3A96841
S11326F0B809484308EB801807F03F0701F070FC65
S1132700404507D101F06FFCA968884204BFF6B2C6
S1132710002E10D0A968404601F094FC08B10220B4
S113272010E001F074FC002814BFDFF8AC04DFF8FB
S1132730AC0401F079FD2046FFF7A2FDF8B2FFF7E3
S11327402CF80020BDE8F081000000001C070020E8
S113275018700846186008462021FFF7A0BB000047
S1132760186008440C461546FFF78EBC04300E4032
S113277000280CBFDFF86804DFF868044FF48071A8
S11327800160704770B5DFF86044DFF860142578A5
S1132790DFF85C24ED074FF4806303D505000CBF1C
S11327A013600B602678B6074FF4006503D5060066
S11327B00CBF15600D602678760703D506000CBFA4
S11327C053604B6023781B0703D508B9556070BD6F
S11327D04D6070BD44000840002814BFDFF8D003EA
S11327E0DFF8D0034FF48061016070470307DFF81E
S11327F0F013DFF8002448BF002002D4C00603D53C
S1132800012010601020086070470000F81F0021AC
S113281038B504460D46680800F00100FFF7B2FF22
S113282005F00400FFF7D8FF2846FFF7DFFF204636
S1132830FFF792FF20B105F00100BDE8324097E7B1
S113284031BDF8B500F05FF870B3A878E978884234
S113285001D00120F2BD6878010002D1FFF735FEF6
S113286001E0FFF705FEA878DFF88C6340F6FF77F8
S113287000280EBF3760204600F07AF8E87840B9A7
S1132880DFF814133763602008604020DFF8541326
S113289009E0DFF8181360200860204600F07EF895
S11328A04020DFF83C1308600020F2BD30B585B04D
S11328B0FFF758FFC8B100226946012000F0EDFB84
S11328C0A8B1BDF80210AAB28A4228BF0D46DFF8AB
S11328D02C134A6A904204BF00204862ADB22A46D3
S11328E02146012000F059FA00E00025284605B0F1
S11328F030BD00008D20000004400840884008409E
S11329002046FFF7C1BB04460D46FFF7BDBB0120BF
S113291000F0BBBAF8B50C469BB200F023F806DA17
S1132920B3FA83F1D1F1190148BF002507D400F0AF
S113293019F8BABFB3FA83F1C1F1190506250121CB
S1132940AB1D01FA03F6B7B291B28F4288BF0F46AE
S1132950FFF79AFB20B1EAB23946204600F0ABF902
S1132960B0B2F2BDB3FA83F1C1F11901062970477F
S113297080B5FFF789FB80B10020FFF76DFBDFF81E
S11329808022012111604FF40051DFF87822116098
S113299018B1BDE80440002120E001BD10B5FFF7E7
S11329A073FBB8B10120FFF757FB04460121002057
S11329B0FFF75EFBDFF8441200204862FFF7FCF9E2
S11329C0DFF844124FF4005008601CB1BDE8104019
S11329D0012103E010BD0000F81E00210120FFF7D3
S11329E047BB70B505460E46FFF74EFB344608B9A3
S11329F02E813DE0DFF81402DFF814124FF6FF7267
S1132A00B3B283B92B89934204D10968C1F30B0192
S1132A10A5F8681000212981072101600520DFF84D
S1132A20F411086024E0B6B296422B890ED1934289
S1132A301ED0072303600868B5F86830000B43EA2A
S1132A40003008602A81B5F8684011E0934204D14F
S1132A500A68C2F30B02A5F868202E810722B6F596
S1132A60805F026088BF4FF48056701E0860344651
S1132A70A0B270BD2DE9F84FFFF745FF00284FF0D5
S1132A8000096CD0DFF890B1DFF89061DBF800A0AA
S1132A903768D6F80480294604F1280000F06EFC5B
S1132AA0DBF8005030687168DFF83C21B8420ED082
S1132AB01378870A03F0FE0307F001073B43C00ABB
S1132AC003F0FD0300F0010043EA400010704145AB
S1132AD00FD010788B0A00F0FB0003F0010340EAEA
S1132AE08300C90A00F0F70001F0010140EAC100C7
S1132AF010704FF6FF712089884203D001462046AA
S1132B00FFF76FFF554525D00021002D1EBF286813
S1132B100028A968204600F029F8002D1CBF286869
S1132B20002801D0286918B9002100228A4603E050
S1132B3042680168B0F80AA004F1280001F019FA0B
S1132B405FEA00090BD1514604F1280001F0DDF9D8
S1132B5000F03BF8207840F0020020704846BDE8C1
S1132B60F28F00001860084094400846FFF7B2B99D
S1132B7010B500F013F820B1E0B2BDE8104000F049
S1132B80EABCDFF89C0010BD00000000700008449F
S1132B908400084094400844440008460C46FFF76B
S1132BA073BA000000400840700008404400084424
S1132BB01C6008461C6008444C00084080B500F0C6
S1132BC0CFFFBDE8044000F0FABF04F1280001F093
S1132BD0A4B900F03FBD0000C0CF6A00E067350033
S1132BE08840084688400844E0170020A0000844B4
S1132BF0A0000846681F0021241008402806002071
S1132C0028100840241008445410084404000844C0
S1132C101800084004000846F81F0021A0000840DE
S1132C2000FEFFFF30B53025DFF8A8456843204497
S1132C300160426003991943416230BD38B5DFF841
S1132C4098556860002000900C4640F6FF7305F12B
S1132C500C0203210120FFF7E5FF00F058F90320DF
S1132C60288000230020688022464FF40050009002
S1132C7000210320FFF7D6FF0021002000F0FCFB19
S1132C800021012000F0F8FB0121022000F0F4FBF8
S1132C900121032000F0F0FBDFF84015F02008606C
S1132CA0A020DFF83C1508600120DFF83815086023
S1132CB0BDE831400FE138B5DFF8184522606060A7
S1132CC00D46FFF7BDF9DFF820150A680023E3601D
S1132CD0A56052075CBF04228A60FFF7B5F90DB105
S1132CE00220A06231BD00002DE9F04F894616464E
S1132CF0DFF8E01400EB4002052E81B001EB021571
S1132D0015D2761E032E45D8DFE806F00B0805021F
S1132D1019F8010BA86119F8010BA86119F8010B46
S1132D20A86119F8010BA86101B0BDE8F08F19F88A
S1132D30010BA861361F19F8010BA86119F8010BE2
S1132D40A86119F8010BA86101202968AC6801F099
S1132D500701891D00FA01FAAAF10108696808EA65
S1132D600400AAEB000741F0005BB742584408D2C4
S1132D703A46494602F074FEF21B09EB0701584635
S1132D8001E03246494602F06BFE30194AEA080176
S1132D900840A86001B0BDE8F08FF8B504460D46C0
S1132DA01646204600F071F8070014D0B74228BF39
S1132DB03746012000903021DFF8180461430844AD
S1132DC0BAB2C3689BB22946E0B200F00CF8BFB2B5
S1132DD0F61BE6D1F1BD2EB10220E1008840DFF8F8
S1132DE00C140860F1BD2DE9F047894630214843B1
S1132DF0DFF8E01382B00E1808587168144600F02A
S1132E0007000122801D02FA00FA41F000511D461C
S1132E10AAF10108009108EA0500AAEB000700994D
S1132E20A742014408D23A46484602F019FE0099E6
S1132E30E21B09EB070001E02246484602F010FEBF
S1132E400A9848B160194AEA08010840F060B1687C
S1132E5088421CBF0220B062BDE8F3873023DFF84C
S1132E60742358431044026AC2F30802914202D305
S1132E704FF0FF3070474268C0684FF000530818A5
S1132E801A44C0F30800105C70473022DFF8441382
S1132E9050430844006AC0F30C007047F8B50D466F
S1132EA0412D044601D30120F2BDDFF8386301202F
S1132EB03060FFF7C5F807462A4621460320FFF78E
S1132EC013FF3846FFF7C0F8042030600020F2BD3D
S1132ED000210020E2E738B5FFF7B2F80446C44801
S1132EE0BD4D01210160016300F011F80320288029
S1132EF0002068804FF4A020BE490860BE490860E5
S1132F000020A8602046BDE83240FFF79DB80020AD
S1132F10009003234FF403702A180021022081E655
S1132F200120B2E7B0480168C90311D54FF48031DC
S1132F308160B1480160B148016801F0FF0101649A
S1132F400168C1F3072101640421016400210164C3
S1132F507047F8B504004ED0FFF772F805469E4856
S1132F604188C1F3830200EB82024FF403731A44D5
S1132F708368022C1E4603D1D3B37408640002E0B4
S1132F80012C08BF144676084FF40373B4EB460FC4
S1132F90034423D1002181609442218841F40041FB
S1132FA021803BD102882146121F4FF413770280FF
S1132FB0241D0744468892B2361DBC4228BF1C46D5
S1132FC0052A468002D327883F04EBD48B7803F08C
S1132FD00703042B0CBF012300230EE0E61A01F0C3
S1132FE03F01711A068848BF4031361FB142D3DB16
S1132FF02846FFF729F80320F2BD0988804CC1F365
S11330000C01216006F07F0141802163A2642BB191
S11330104068010018BF804700F0BEFAFFF782FF46
S11330202846FFF711F80020F2BD6B4908884A884A
S11330308218D21E920802F00F0201EB82024FF4B2
S11330400373001D1A44088080B26E4B1860907898
S113305000F00700042803D16B4B1B681B03FBD44F
S11330608A60704710B55C4CA06828B1C10758BF8E
S1133070FFF76FFF0020A06010BD80B563494FF4D7
S113308080300860594908600220FFF7FEFE3D28A1
S113309002D2BDE8014045E701BD2DE9F84F0446E1
S11330A00D461646FEF7CCFFDFF82C818146B8F8B2
S11330B00200C0F3830108EB81014FF40372114451
S11330C0B8F80020022C10D1D8F8083053B91318DE
S11330D0DB1E9B0803F00F0308EB83034FF4037418
S11330E01C4405E05C08640002E0012C08BF0C46A7
S11330F04FF403734344E71A00F03F00B7EB000AB0
S113310048BF0AF1400A92451EDA002D08BF002E7E
S113311059D08C42DFF8E4B003D1DBF80470BFB2BD
S113312006E0201F984238BF40300088C0F30C07E7
S113313006B13780002D46D00220FFF7A6FE824557
S11331401ADA2088010404D54846FEF77DFF0020E2
S11331503DE0A17801F00701C01B06292970C0F3E6
S1133160090602DB00F06CF9361A30B2C043C00F16
S1133170042101F055F911E0DBF80000C01BC0F395
S1133180090621480068012E04DA000E00F00F0041
S1133190032801D1082000E000202870C7F30807A5
S11331A008EB07000C30A8606E80B0B2C019B0F50F
S11331B0007F05D9C7F50070A88008F10C0001E074
S11331C0AE800020E8604846FEF73EFF2046BDE89A
S11331D0F28F0000001008402C0F0020400008442B
S11331E040000846B8100840E0100840E4100840C9
S11331F058100840E8100840EC1008463810084001
S11332003C1008408410084004400840EC10084476
S113321080B5684602F060FCDFF89803DFF8981385
S1133220DFF89823016148F2E67141604FF40861C8
S11332300160DFF88C03DFF88C1341604AF63F41EC
S113324011604FF0C071DFF8802311600021016626
S1133250DFF8781301607F20DFF8741308602320FF
S1133260DFF87013086001BD10B5DFF86C03DFF8F8
S11332706C430168426849B10B0C1B04A34208BFAC
S11332800A600830DFF858138842F2D310BD10B535
S113329000F047F8FFF7E8FFFFF7BAFFDFF8441341
S11332A0DFF84443032008604FF40020DFF83C13A8
S11332B008600120206000F0E2FFDFF834134FF4CF
S11332C0607008604FF040706066E06710BD10B534
S11332D0DFF81C3382B001221A60DFF81843226839
S11332E0120E12F00F02FAD14FF00452A26701221B
S11332F0E2678A0001464FF0045002F0C1FBDFF898
S1133300F802E065DFF8F442DFF8F4022168009186
S1133310A82101F095F8DFF8EC02A0600099216083
S113332013BD80B50121DFF8E00202F0EFFB0121BB
S1133330DFF8D80202F0EAFB0121DFF8D40202F040
S1133340E5FB0121DFF8CC0202F0E0FB0121DFF80C
S1133350C80202F0DBFB0121DFF8C00202F0D6FB59
S11333600121DFF8BC0202F0D1FBBDE804400121D9
S1133370DFF8B00202F0CABB00000000F8B5044652
S11333800D460FF2C82600E00860002D1CBF286817
S113339010F1010F3FD055F8042BC2F3036156F826
S11333A0211093B2C2F307401943022808D300281E
S11333B01EBF55F8042B41F8042B401EF7D1E4E757
S11333C055F8040B120F4FF0010C072A01F1C063EA
S11333D001F180670CFA00FED7D8DFE802F0050699
S11333E0090C0E111417D0E7CEE7C0433860CCE7C0
S11333F00A685040C8E71860C7E700F005FCC4E756
S1133400C3F800E0C1E7C7F800E0BEE70A6802407D
S11334108242FBD1B9E7204601F02DFABDE8F14024
S113342000F090BCDFF8CC010068000E00F00F0043
S1133430022818BF032801D10120704700207047DB
S1133440DFF8E401016800208A0648BF0420CA06A8
S113345044BF801CC0B20A0744BF801CC0B24A07E4
S113346044BF801CC0B28A0744BF401CC0B2C90715
S113347044BF401CC0B27047DFF8B02102EB8000AB
S113348000F180634FF4407200F1C0601A600902D9
S11334900160704780B5112001F004FEDFF894113B
S11334A009688AB232B1C008C1F307414843B0FB8E
S11334B0F2F002BD002002BD10B5DFF87441FFF741
S11334C0E9FFDFF874110A6824682404DFF86C410A
S11334D0246848BF400804F4C054B4F5805F02F087
S11334E0300303D18969490D01F03003102B04D056
S11334F0202B04D0302B08D010BD400810BDC2F3DF
S1133500C421491CB0FBF1F010BD800810BD10B5FA
S11335104948016801F03002202A0FD1C1F302406A
S113352018B1C1F3C422B2FBF0F011F4C01F18BFEC
S113353040004408032C0AD3042408E0006800F483
S1133540E070402816BFB0F5807F02240124FFF705
S1133550B3FF604310BDF8B50446FEF771FD06469F
S1133560FFF760FF054636480068C0F38917B805C1
S113357044BF34480743FFF755FF00B900253046E0
S1133580FEF762FD3FB217F5007F01D12542E4D179
S113359005B92D4F3846F2BD1648016801F0706137
S11335A0B1F1C06F02D1816BC906F6D540214160EB
S11335B07047000034410840C0E6535108300840C9
S11335C09C4008407A27000F28700840806D6303F0
S11335D024300844243008460080E00F00000840EE
S11335E0B081E00FD86008469440084694400840F3
S11335F00C40084604400840C01F0021E81F002179
S1133600581F00213F003700003406000004060064
S1133610700506000064060000540600004406001D
S113362000240600007406004C000840A000084076
S1133630306108405060084018600840400008406D
S11336400870084000FCFFFF00FEFFFF0000084078
S11336500000002138B5040045D03C4D1422214619
S1133660284602F00DFA0121394802F04FFA0121EF
S1133670384801F0E7FC3848F8218160E27A217A81
S113368041EA0221A27B41EA0241416021780129F9
S113369017D1022169610023072101600422617BA3
S11336A0207B02F02CFB217CE07B0023042202F02F
S11336B026FBA17A607A0123042202F020FB002079
S11336C032BD022904D10121696105210160EAE7C3
S11336D0032904D10521696101210160E9E711B9D8
S11336E069610160EBE7012032BD70B5044620003A
S11336F01A4D15D0154E7168002049B1144802F0D6
S113370028FA716800EB5100B0FBF1F0401E000292
S11337104FF603712960716908431149086001E09B
S113372003202860204600F002F8002070BD002825
S113373014BF0C480C484FF08041016070470B499E
S11337400968002944BF0A49086070470817002027
S11337500034060000350800740008407C0008446A
S11337607C0008469440084694400844944008402D
S113377080000840012100F01F029140DFF8F82486
S1133780400942F820107047890001EB401000F115
S11337908440006870472DE9F047DFF8E0440121D8
S11337A0204602F0B3F9DFF8D874DFF8D8043860A3
S11337B0204602F0CEF94FF47A71B0FBF1FA4FF4DF
S11337C0FA70A0FB0A01090241EA1061DFF8B8248B
S11337D0002312EB00205941DFF8B02402F0D6FA9E
S11337E00446A4F58070B8625146002000F5FA70D2
S11337F04FF47A72002302F0C9FA06460D4624B942
S11338002B21002000F00CFE01242D026008002171
S113381045EA166510EB062069412246002302F0B2
S1133820B5FADFF86C6480460D46BAF1000F3560D6
S1133830C6F804804FEA142905D12B21002000F09A
S1133840EFFD4FF0010A22064B464FF47A70A0FBBD
S11338500249002100FB039914EB5A0049EB0101D2
S11338605246002302F092FAF060B16018F10200AF
S113387045F10001800840EA8170401E3863BDE8CC
S1133880F08780B51D20FFF775FFDFF808144FF0AF
S1133890005008600120FFE7DFF8FC13086001BD59
S11338A070B50446DFF8FC0306680D46101B63EB95
S11338B00501AB420CD828BFA24209D20023721CD6
S11338C063F1FF339B0043EA927310EB820059418A
S11338D070BDDFF8D42302EB001202F180620121F3
S11338E011604FF4807101FA00F0DFF8C013086032
S11338F070472DE9F14F8CB090469946FEF7A0FB36
S113390005909DF83000FFF7E4FF9DF85860022E03
S113391000F0FC8000F024F9012E82468B4607D18A
S1133920BAF1FF306BF1FF3118EB000849EB0109E4
S1133930DFF8706330680021401C61F1FF31CDE98C
S11339400801DDE90845AD0045EA9475A400224666
S11339502B464046494600F0E3F8804689465246E5
S11339605B46A408FFF79CFF44EA8574AD088D42CA
S113397003D300D8844280F0A4809DF83010336CC7
S1133980DFF82C53DFF82C7309310A0241F61F7457
S1133990002042F0010223409342F36B08BF04204D
S11339A009062B4041F480318B42F16B08BF40F093
S11339B002002140914208BF40F0010003904246BA
S11339C010F00100049018BFC7E904899DF8300085
S11339D00290022808BFC7E902894B4600F09DF80F
S11339E0DDE9082302F0D2F902997854DDE90823CD
S11339F04046494600F094F88046039800F00200DF
S1133A00069089460298385C70B1049810B1DFF8CA
S1133A10A8020460069810B1DFF89C0205600398C0
S1133A20400744BF002030640298DFF87C12000194
S1133A300A18C2F80C8011220A5000F091F80246CC
S1133A400B4600F06AF8CDE90A01CDE90089DDE909
S1133A500823DDE908895046594602F097F94246A1
S1133A604B46A0FB028900FB039901FB0299DDE9A7
S1133A70000110EB080241EB090300F04EF8DDE908
S1133A800A238B4204D301D8824201D3012000E0EF
S1133A9000209DF830204FF480719140F26A0A4072
S1133AA0521E924110EAD27F30D00298385C08B19D
S1133AB031632BE09DF8580040B99DF83000FFF7C2
S1133AC008FF0598FEF7C0FA002023E03163DFF811
S1133AD0EC01049941B1DFF8E0110C6040F20111EE
S1133AE00160DFF8D4110C60069941B1DFF8C81108
S1133AF00D60DFF8CC110160DFF8BC0105600398AC
S1133B00400703D5DFF8BC11012008600598FEF7D3
S1133B109BFA01200DB0BDE8F08F50465946BFE630
S1133B2001E0801A99419942FBD828BF9042F8D20B
S1133B307047DFF874110001085800F00100704765
S1133B4001F46001584A000141F00301115070472B
S1133B505D490020086070475C4959480860704717
S1133B602DE9F04102F089F9594F3C6880464C48F0
S1133B70067800F011F8002508B13C68761C404630
S1133B8002F07FF9B86906F00301401CE0FB01452F
S1133B9020462946BDE8F0814E480221F4E580B56F
S1133BA02220FFF7CCFD3C494FF48020086001BD82
S1133BB03A48006810F0060018BF01207047F0B5BD
S1133BC0334EB268A0FB024501FB0255F268A0FB2C
S1133BD0026701FB0277B6F1004267F1FF3300216F
S1133BE0E0186941F0BD10B529490C684968A0FB8B
S1133BF00123B2F1004263F1FF331A460023E0FBD4
S1133C0004231046194610BD2DE9F84F0446FFF76A
S1133C10A7FF804689462046FFF7E5FF04461F4874
S1133C200D46416A490800910068C00702D41FE0AC
S1133C30241A8D410027009EBD4203D8B4423CBFE4
S1133C4026462F46FFF78CFF82468B4652465B463C
S1133C5040464946FFF724FEB942F3D301D8B042A7
S1133C60F0D3A942D046D946E2D301D8A042DFD34B
S1133C70BDE8F18F0000000080E200E000040600CF
S1133C80005008400011010020A1070040420F002D
S1133C908C17002000E100E0045008400C5008405C
S1133CA0F817002030500840005108406450084084
S1133CB000001F1FF01600206C5008446C5008468A
S1133CC00000010108400840705008406C50084052
S1133CD0185008405C50084070B5DFF8A012DFF8B7
S1133CE0A062DFF8A05207200860304601F031FFDF
S1133CF04FF47A71B0FBF1F001460020DFF888221E
S1133D0080180023DFF8842202F040F8DFF88012E4
S1133D1008604EF6602000F068F84042A862DFF8C0
S1133D207402FFF760FFC400304601F012FF810CFB
S1133D306208002312EB80305941224602F026F833
S1133D40286070BD38B5DFF8380201F002FFC408FE
S1133D50FFF7DDFBDFF84022DFF84012E3011468CF
S1133D60240409D503F574402430DFF83442B0FB51
S1133D70F4F00860DFF82C0203EB5003B3FBF0F01F
S1133D80DFF82432486000201B68DB0215D4DFF81A
S1133D901C32DFF81C421B682568C3F381035B1CDB
S1133DA06D05256848BFD80005F0FF05FF2D04D038
S1133DB06468640548BF00EBC3001268120448BF7E
S1133DC0C01CC86031BD30B5DFF8C4211268C1170A
S1133DD0A2FB004502FB0155B4F17F4065F1FF31C0
S1133DE0400E40EAC110803830BD80B5FFF7EBFFCC
S1133DF00128B8BF002002BD10B500F040F8618A68
S1133E0000F00EF8DFF8AC11086010BD10B500F03A
S1133E1036F8E18900F004F8DFF89C11086010BD61
S1133E20081A4FF47A7148436168A0F6C410401A26
S1133E30DBE770B500F023F8218ADFF88051081A17
S1133E404FF47A7148436168A0F6C410461ADFF84B
S1133E504801006800040CD5DFF864018019FFF7FD
S1133E60B2FF2862DFF85C018019FFF7ACFF28601D
S1133E7070BD2068301AFFF7A6FF286270BD0446A3
S1133E8000F0F6BC10B5FFF7FAFFE18A081A4FF408
S1133E907A714843A0F6C410FFF7A7FFDFF8281192
S1133EA0086010BD80B5818A40684FF47A7202FBC5
S1133EB0010046490818FFF798FF4549086001BD0D
S1133EC080B58089414A4FF47A7101FB0020FFF7E5
S1133ED08CFF4049086001BD80B5028900F00AF8F2
S1133EE03D49086001BD80B5428900F003F83B49B3
S1133EF0086001BD4FF47A71514322B1006800F5A6
S1133F001C501030411808466FE743F2C822914212
S1133F10A8BF114641814089704710B5040017D0ED
S1133F20FFF7DAFF2046FFF7DEFF2046FFF7C8FF62
S1133F302046FFF761FF2046FFF77BFF2046FFF78F
S1133F4065FF2046FFF79EFF2046BDE81040A9E725
S1133F5010BD10B504000BD0FFF74EFF2046FFF74D
S1133F6055FF2046FFF765FF2046BDE8104089E76E
S1133F7010BD42600160002070470000844008408A
S1133F8060510700901F002100093D0000127A00D3
S1133F90E417002040420F0030610840881F0021D0
S1133FA048E8010020A10700040008400020084060
S1133FB0A8000840A81F0021A01F0021841F002181
S1133FC01541FFFF0526FDFFB41F002130DFFFFF71
S1133FD0AC1F0021981F00219C1F0021B01F00214D
S1133FE0A94840687047A848C0687047A748006857
S1133FF0C0F3080101F00700C90811F0070F1CBF46
S113400001F007025043C90818BF48437047A0484D
S11340100068000900F0010080F00100704710B54D
S11340200446FFF7E3FF48B19A49B1FBF0F18C4233
S113403022BF9949B1FBF0F0A04201D2002010BD8B
S1134040012010BD2DE9F84C06468A46FFF7CEFF45
S113405004463046FFF7E3FF18B90E2100F0E0F9FB
S11340600EE0012C19BF10208C4910208C490860E7
S113407001F034FF8346002C18BFBBF1000F01D1BF
S1134080022048E0804D6E6004FB06F7790BF804CB
S11340905A460023834E01F079FE3060E2047068D2
S11340A0C5F80CA0C0F31300ABFB0001002301F022
S11340B06DFEA8605A46A4FB0A01C90441EA5031C6
S11340C0C004002301F062FE3061287818B9706AD8
S11340D000F03F00287074480068400618D5734803
S11340E0B7FBF0F000FB00F140F24D5251434CF2AB
S11340F00C6202FB10106E49081803D12B2100F04A
S11341008FF9012029786B4A5143B1FBF0F07062BA
S113411000F01DF80020BDE8F28C70B506460C4690
S1134120654D2868000E00F00F000428F9D00A2815
S1134130F7D0401E8041C00F0F2100F071F95F4895
S113414006600CB180206860BDE87040FFE7FEB5F2
S11341500FF2A0111CC968461CC04B4C584861683A
S1134160E268836803FB0211A2680068C0024CBFC6
S11341705018881A5349B0FBF1F169444D78012174
S1134180A940B0FBF1F65048B6FBF0F0684447781C
S1134190206920B92B2100F043F901202061206916
S11341A04A4A06EB5001B1FBF0F043F6FF511160AF
S11341B0401E40EA0530464940EA87200860304600
S11341C000F001F8F7BD38B5044601F087FE18B9D0
S11341D02B2100F025F90120B4FBF0F100FB114282
S11341E064235A43B2FBF0F000B9491E4808441E48
S11341F0481C4008451E082C38BF082D02D255EA39
S1134200040003D11021002000F00AF931494FF4D1
S1134210EE6008602802304940EA0410086031BDAD
S1134220194801214170006970B52C4C164D4FF4AA
S11342300021216028612B490968B9B12A4908186D
S11342402A49B0FBF1F0C61E2948006800F00700B7
S1134250F6B2B0421CBF304602F0F1F8687828B1DB
S11342601F494FF4702008603004206070BD064977
S1134270002048704FF4002018490860704717491F
S11342804020086070470000B40600203430084025
S11342903841084000371789007DDAAC38410846B8
S11342A0384108442C3008409440084000366E01E0
S11342B0502D19008096980004400840383008407A
S11342C03030084040BE4025401B5F13A4400844E2
S11342D0A44008463040084430400846944008460C
S11342E0944008448009C64320A1070040420F00BF
S11342F070300E40000001020203030303000000BB
S11343002DE9F14F3B4882B006680298894602F0D5
S1134310CFF8002546F06C00B04207D1364800685B
S1134320C00703D4354801F06DFC08B1002047E014
S1134330FDF786FE01904FF480473148DFF8C4A0B2
S11343400668DAF800803049304C4FF0605008605D
S11343504FF000602E4908602420CAF800000420B1
S11343602C490860A7664FF48050606207E0029809
S11343705A466946284401F073FB5D44ADB24D458D
S113438012DA206E4004FCD52068C005F9D5A76672
S1134390DAF804000090A9EB05000428B4BFA9EBE7
S11343A0050B4FF0040BE2E71B4904200860CAF830
S11343B0008013480660A7660198FDF745FE48464D
S11343C0BDE8FE8F80B502216846FFF799FF0228F9
S11343D001D0002002BDBDF800004FF60401884260
S11343E004BF401CADF80000BDF800000B49086094
S11343F0012002BDC8400E400C4008406051070037
S11344001860084084000840186008440000084010
S113441018600846004008460040084458500840C8
S113442010B50C4640B90548046000F055FB214620
S1134430BDE8104002F040B810BD00BFF4060020F3
S1134440002202F043B875000B480C4A416D006825
S113445000020016C9B2FF2918BF10F1010F19BFDD
S113446000EBD070401090210C2040189070022076
S11344705070232010707047B081E00F651F002139
S113448070B504000D4613D0FEF74BFFDFF884052A
S1134490DFF88465DFF88425002101602078022894
S11344A008D1106880021AD503203071FF203070C3
S11344B0012070BD012804D1106810F4400FF3D11D
S11344C00DE00028F0D1DFF858050068116800F00D
S11344D0010080F0010001F480010843E4D10622C8
S11344E02146301D01F0BCFA002000F071F8A088CC
S11344F0294600F0D4F93079022802D100F051F8AD
S113450006E0012802D100F033F801E000F017F8CA
S1134510002000F05DF8DFF80C150320086000F0BF
S113452055FA002070BD80B50622DFF8FC1401F0B6
S113453097FA002002BDDFF8E00400787047DFF846
S1134540D404DFF8E824016811400160052241F039
S1134550804141F0040101600721DFF8D404416087
S1134560DFF8D0144A60C0220260812008607047DE
S1134570DFF8A004DFF8B42401681140016041F0C1
S1134580030101600721DFF8B004DFF8B024816083
S113459006211160DFF8A81441604FF44041016026
S11345A07047DFF87004DFF884240168114001606B
S11345B041F0804101604FF4EE40DFF88814086058
S11345C04FF48A41DFF880044160012101607047A3
S11345D02DE9F0470546C82000F0C3F8DFF8381489
S11345E00C792346FF20032B08BF087000F0B78026
S11345F0012BDFF83C24DFF81CC415D1082DA8BF1B
S1134600072502DA012D08BF0225DCF80060DFF877
S11346103C043040CCF80000ECB240EA0460CCF832
S113462000000420106595E0DCF80060DFF82074D9
S11346303E40CCF8006046F47C5646F0C806CCF800
S11346400060260004D1052D02D301262D1F00E0B1
S11346500026DFF8C8733F68FF4307F4FE1747F4EA
S11346600057B7FA87F7C7F11307C7EB4717EDB23F
S1134670FFB2BD4288BF3D4614B90EB1042400E028
S113468000246419DFF8CC7325B9DFF8CCE3C7F84C
S113469000E004E04FF0E06EC7F800E06D1EEDB2FC
S11346A04FF01F0EB5FBFEFE4FF001090EF1010A9B
S11346B009FA0AF9A9F10109DCF800804FEA8939FD
S11346C0CEEB4E1E09F47F19A5EB0E0549EA080846
S11346D06D1CCCF8008048EA0565CCF800504FF01A
S11346E0FF3ED7F8009091F803A0BAF1000F84467A
S11346F013D0A802DFF86483022B18BF08F108085E
S1134700000EB0FA80F0C0F11F0E4FFA8EFEBEF11B
S1134710000F58BF18F80EC0604629F07F43A5B2B9
S113472015B9DFF83C030EE01EF1010F18BFFF2896
S113473005D020B1000640F00400184303E023F044
S1134740040040F07F4038604FF480000EB1DFF881
S1134750E42210600C70087800F003F8E0B2BDE8C1
S1134760F087DFF8B4120A79032A00D17047F0B554
S1134770DFF8A042DFF8EC32226803EA02052A0AD5
S113478002F47F560022256040F209735B28A4BF1F
S1134790CF889F4204DAC92805DBCF889F4202DA1A
S11347A043F6C8760122354325601F28DFF8B86236
S11347B0DFF8B842DFF8B852DFF8B8724FF0010CF6
S11347C0B9BFC6F874C0C7F804C0C4F874C0C5F84B
S11347D004C091F802C0BCF1000F19D05128A4BF45
S11347E0B1F806C09C4504DA792811DBC8889842E0
S11347F00EDA4DF6017030673860102002B11720D0
S1134800000240F440402067286008202060F0BD8A
S113481008203060F0BD10B5FFF7F9FBDFF858420F
S113482028B12068216800F00CF8206004E0A06939
S1134830A16900F006F8A0614FF000708F4908608C
S113484010BD490820F47F1001F4FE11084370479D
S1134850704738B5FFF7DBFB894C8A494FF40015E4
S1134860002814BF2560A5614FF00060086031BDC9
S113487069480089704710B5044600F0A7F86648F7
S1134880814A41781268C2F38212914205D0C0680D
S1134890214600F004F8012010BD002010BDF0B541
S11348A083B00C46002700B901205B4DE8607648D0
S11348B00068800900F007006870801E012801D993
S11348C0001F01D1002610E02879E978022804D1DC
S11348D000290CBF9626C82607E0012808BF322607
S11348E003D0002914BFF026B426F9B2304600F0F4
S11348F048F8E968814202D37F1C102FF5D30FF2E8
S1134900A812D2E90001CDE90001781E000200904E
S113491030040190684600F008F800F011F828818E
S11349202046FFF716FB2889FEBD4168574A1160EF
S113493040F6FF71564A1160006856490860704796
S11349402DE9F041544948684D684C680A680E687E
S11349500F6802F00F01C0B200F013F8804628047B
S1134960C6F30311000E00F00CF800EB0805380A3A
S113497000F00F012002000E00F003F84019BDE81A
S1134980F08138B504460D4601F0A8FA6421B0FB65
S1134990F1F004FA05F1491142F210725143B1FBEE
S11349A0F0F032BD3D4B3E4A1A600204000502F4A9
S11349B0E02200F0F870104301F0070209011043EF
S11349C001F4F871084337490860704780B5FFF770
S11349D00DFB401E082817D8DFE800F005160E0E60
S11349E01010131313000C480079012819BF042177
S11349F000200421042009E0002103E00321032016
S1134A0004E00A21002001E00A210F20BDE804404F
S1134A10C8E70000E81F0021C806002088410E40B6
S1134A20D481E00F58410844CC060020E8FFFFBFC2
S1134A300841084408410846044108440C4108461A
S1134A40C100400024410844204108463F00C0E022
S1134A50FF3FC0E0584108402C000007B083E00F3E
S1134A600400000737C0FFFF944008449440084600
S1134A701C4108461C410844004108401C400840B1
S1134A80004108442040084418600840BC600840C5
S1134A90B8600844B8600846B8600840504108440B
S1134AA0F701F70150410846000000000000000033
S1134AB0002200E0521C8A420AD250F8223093FAB3
S1134AC0A3F3B3FA83F3202BF4D003EB4210704723
S1134AD0FFE74FF0FF30704710B50B4C206800B172
S1134AE001202621FFF79CFC206810BD38B5044640
S1134AF0054804600D46204600F057F82946204634
S1134B00BDE8344000F01EB8DC17002000F075B892
S1134B100846114600F067B810B50C4611461A460F
S1134B2003462046BDE81040FDF727BD0C3001F0D8
S1134B30F4BC0C3001F03CBD0C3001F048BD000069
S1134B400120704710B50446FDF75AFB08B1002058
S1134B5010BD204610BD70B50D00044614BF0126DB
S1134B6000261F213046FFF75BFC002060622562AF
S1134B701F213046FFF754FC4FF6FF76002001E07A
S1134B80401CC0B2E968884208D2A968182242438E
S1134B901144C989B142F3DA0E00F1D131462046FD
S1134BA000F05FF8304670BD704710B50446FDF75D
S1134BB0CFFBA06A01009D4908BF9D48886010BDD5
S1134BC070B5154600F10C0628000C4608BF984D38
S1134BD03046FFF7B5FF08B194488560214630465A
S1134BE0BDE87040B7E710B50C46FDF7BBFB1CB140
S1134BF0FDF7CDFB0128FBD110BDFDF7C8BB70B597
S1134C00C26A0120002300E05B1CD468A3420AD2DC
S1134C10946818255D432C44E689B14224BF248A54
S1134C208C42F1D3002070BDF0B583B004460D462C
S1134C30FFF752FF064669462046FDF734FDB5F9F5
S1134C401220012747F6FF702479824207D09DF88D
S1134C500010304601F0BEFCA04238BF00273846A1
S1134C60FEBD2DE9F04F85B04FF000098DF801909D
S1134C7004466E4F8DF800900D463868D7F804A0AE
S1134C800290CDF804A0204600F0C1F88046266AC0
S1134C90D4F824B000F0D2F8002818BFD34505D1C9
S1134CA0BBF1000F02D0A8B240454BD0002E1CBF70
S1134CB0B068002801D0F06808B903209CE0CA4617
S1134CC001E00AF1010AF068824518D2B06818219F
S1134CD001FB0AF10144A8B2CA89904222BF088AA2
S1134CE0AAB29042EDD301208DF800008B462046F5
S1134CF0FFF79AFF0028E4D001208DF8010003A9F2
S1134D002046FDF7D0FC2046FDF7D3FC82469DF8F3
S1134D100100C0B1217900F073F8386860B3B04283
S1134D2023D17A680AB35A451FD1A9B2884506D05F
S1134D3000232046FDF7BFFC5FEA000912D1C4F846
S1134D4024B0658057E09DF8000048B1BBF91220FB
S1134D509DF80C10A4F10C0001F03CFC0146DAE7CC
S1134D60012049E000F04BF83FE0016821B13268CE
S1134D70914208BF416800D0316800F045F881468F
S1134D805FEA090004D1DBF8001000F03DF8814629
S1134D905FEA09000FD100F051F810B13E60C7F886
S1134DA004B0C4F824B0658001235A46A9B2204651
S1134DB0FDF781FC81465FEA090005D1BA685946CE
S1134DC0A4F10C00904716E000F038F898B102986E
S1134DD0386001987860386808B100F014F800F081
S1134DE00EF8786838B100F00EF87A68002341466E
S1134DF02046FDF760FC484605B0BDE8F08F5146FB
S1134E002046FDF740BC01682046FDF733BE4088CC
S1134E1070470022027142718271427209B10549E0
S1134E20122202720022C27101607047D80600206B
S1134E30A94B0000C6C8B8BE006A704720467FE68A
S1134E4030B583B00C30DDE90645CDE90045FDF70A
S1134E504DFA3EBD38B500F01BF800212561E16034
S1134E60BDE83240FDF7F0B838B500F011F821691B
S1134E70E26829400D0018BF01251143E160FDF7E8
S1134E80E3F815B10020042134BD0020002134BD15
S1134E9004460D46FDF7D4B880B50C3001F001117D
S1134EA0FFF7D8FF002002BD890001EB401000F19C
S1134EB0844002607047890001EB401000F1844097
S1134EC00068704700F1806300F1C06019600260FF
S1134ED07047401CB0FA80F0C0F11F00704710B555
S1134EE0DFF8C84712212046FFF7E5FF0028F9D173
S1134EF02068000C00F0030010BD0122DFF81C172D
S1134F0010B5884232BF0022DFF81417884201D25C
S1134F10144600E002241021DFF80807FFF7C4FF5D
S1134F20DFF8D007016821F0807141EA0461016073
S1134F3010BDF0B5DFF8F026D36B03B1012341F6C1
S1134F407134D463DFF8B0571468002405EBC40649
S1134F50CFB23679BE4203D155F83460864202D2CC
S1134F60641C052CF2D3052C0EBF032005EBC400F2
S1134F704079116821F0407141EA00601060DBB2B1
S1134F800BB10020D063F0BD80B500F08AFFBDE80E
S1134F9004400021CDE7CCE7C01C0F2801D2000754
S1134FA070474FF07040704738B50446002500F054
S1134FB00BFADFF8FC26DFF87C16944208D0DFF801
S1134FC0F426944206D0DFF8F026944204D006E09A
S1134FD0086802E0486800E0886800F00700401EA6
S1134FE004281CD8DFE800F009030D06090000F0CE
S1134FF08FFF04E000F089FF01E000F083FF054625
S11350000DE000F041FFDFF8EC160968090E01F02D
S113501001010122491C02FA01F1B0FBF1F5284615
S113502032BDDFF8D8164A68D20702D40A680242B1
S1135030FCD1704780B500F0D7F8401C02BD491E72
S113504018E1000070B5020A0C4602F00F020021BC
S1135050521E092ADFF8805814D8DFE802F005143C
S11350601313071619131C20DFF8B855C0F30436C0
S113507011B10846FFF7D5FF224631462846BDE860
S1135080704011E770BD1035F0E730350121EDE7D0
S113509038351021EAE740354FF48031E6E7DFF890
S11350A0A458E3E770B5DFF85816DFF804260E6855
S11350B0DFF80016DFF83C46012510F4781075D0AF
S11350C0B0F5003F30D0B0F5802F27D0B0F5002FD9
S11350D06CD0B0F5202F2DD0B0F5402F5ED0B0F5B8
S11350E0602F3FD0B0F5901F53D0B0F5A01F2AD049
S11350F0B0F5B01F39D0B0F5D01F22D0B0F5E01F05
S113510031D0B0F5001F44D0B0F5281F22D0B0F53F
S1135110301F31D0B0F5381F4BD061E000F0C3FE32
S1135120E168C1F308210AE000F0BDFEA168C1F303
S1135130082104E000F0B7FE6169C1F30421491CB1
S113514024E0104627E01046FFF72EFF216A01F005
S11351500F0119E01046FFF727FF0646206AC0F347
S11351600110C6403DE0084615E00846FFF71CFF65
S1135170A16AC1F3011107E00846FFF715FFA16A10
S1135180090A01F00301091D05FA01F1B0FBF1F66A
S113519027E0DFF82405FFF707FF1FE0DFF8A80783
S11351A000F012F907281CD0092819D100F07BFE61
S11351B014E0DFF8980700F007F904280CD007285A
S11351C00FD008280CD100F06EFE2168C1F3042131
S11351D0491C01FB00F604E000F080FE064600E0F6
S11351E00026304670BD0000030903F00F030121BF
S11351F05B1E072BDFF8FC243AD8DFE803F0040633
S11352000A0E10142339106800E05069C0F304201A
S113521070471068C0F300607047D06800E0906881
S1135220C0F308207047DFF82837984204D0DFF82D
S11352302437984204D01BE0106A00F00F0013E0FA
S1135240106A09E0DFF81037984204D0DFF80C3711
S1135250984204D00CE0906AC0F3011004E0906A14
S1135260000A00F00300001D01FA00F0401E704720
S1135270002070472DE9F0420E46010901F00F01AC
S1135280491E0729DFF86C54DFF8D446DFF8D476DA
S1135290DFF8889317D8DFE801F00410171E243DC7
S11352A06285FFF771FE4846FFF727FE286820F461
S11352B0F85040EA062028601DE0686920F4F850A0
S11352C040EA062068617AE0286820F0807040EAAD
S11352D00660286073E0E868384040EA0620E86029
S11352E06DE0FFF751FE4846FFF707FEA868384017
S11352F040EA0620A86000F0C7FD0546FFF7EFFD71
S113530001462846FFF747FE2046FFF7CBFEBDE8DF
S1135310F042F2E5DFF85016884247D0DFF8301645
S1135320884204D0DFF82C1688420BD047E000F006
S113533048F806460420FFF774FE286A000946EA86
S113534000100AE000F03DF806460420FFF769FE6D
S1135350286A20F0300040EA061028622FE0DFF8C7
S1135360F815884204D0DFF8F41588420CD026E002
S113537000F027F806464020FFF753FEA86A20F005
S1135380300040EA06100BE000F01BF80446402011
S1135390FFF747FEA86A20F44070211F40EA01206D
S11353A0A8620CE0DFF8C015884208D14FF48020D1
S11353B0FFF737FE286B800846EA80002863BDE8C3
S11353C0F082304685E50000014601F00F0101201E
S11353D0491E0729DFF894254ED8DFE801F0040FB1
S11353E0134D21334D3B506A00F0070002283FD093
S11353F002D3042804D01FD305207047116910E09C
S113540002207047516901F00701491E042934D86C
S1135410DFE801F0120304141600F1E706207047D8
S1135420916901F00701012906D00229E8D0042975
S113543004D0052904D07047032070470A20704720
S11354400B207047116811F001010FD0012914D10C
S113545009207047DFF81815096801F03001102998
S113546004D0202904D0302904D070470720704785
S11354700420704708207047002070472DE9F84346
S1135480804600260324B8F1110F0F46A14612D11D
S1135490042F02D100F022FD08E0052F0BD1DFF824
S11354A0D404DFF8D4140068884204D306001CBF77
S11354B0002100F05CFD08F00F00401E0728DFF813
S11354C0AC540ED8DFE800F0043D43944078948255
S11354D0022F524806D0032F29D0042F2AD0052F9B
S11354E02DD085E004244FF0000901220121484613
S11354F000F008F9FFF748FD36B11221DFF8AC01DE
S1135500FFF7D9FC0028F8D16C6000F083F8FFF7AE
S1135510F4FC00F0B9FC0446FFF7E1FC0146204628
S1135520FFF739FD002E63D1BDE8F4437EE04FF070
S11355300109DAE70224A146FFF7DFFCD5E70124DD
S1135540FAE705F1100404E005F1180401E005F19F
S11355501404012F0AD0022F0BD0032F10D0062FD2
S113556015D00A2F1FD00B2F1FD041E00020206040
S11355703EE001220121002000F0C4F80220F6E7F9
S113558001220121012000F0BDF80120EFE700F025
S11355907BFCFFF7B2FC01220221DFF83C03FFF79A
S11355A083FC0320E3E70420E1E701220121062034
S11355B000F0A8F80520DAE7072F02D0092F02D05F
S11355C016E0002000E00120286011E0012F06D041
S11355D0042F16D0072F0DD0082F19D008E0002073
S11355E0DFF88C130A6822F0300242EA00100860E7
S11355F0BDE8F18301220121042000F083F8012099
S1135600EEE701220121022000F07CF80220E7E706
S11356100320E5E7DFF8480344E500000148E8011A
S11356200190D00300400E4004000E4001210020F0
S113563000F09DBC80400E4070B500F03FF80122A0
S11356400021022000F05EF8217CDFF838530020AE
S11356500229296808BF0120490840EA410028605E
S1135660082122782846FFF71FFCA088617A41EAC6
S1135670C020A860EE68207AFFF78EFCE28806F06E
S11356807F6141EAC221A27A1143227A41EAC2111E
S11356900843E860A17B607B090141EA0030E17BBB
S11356A00843217B40EA0140286170BD04300E406C
S11356B002001A0003001C0005002000044611200B
S11356C082E610B5FFF7FAFF00220021002000F067
S11356D019F82078617840EAC120A17840EA016095
S11356E0E178BDE8104040EA0122A749A748FFF746
S11356F0E9BB000000410E408CAC000040410E406C
S1135700040700202DE9F84F06288246904634D835
S1135710DFE800F04F4A4004457A56000126022093
S1135720012700240029DFF81892964D67D0BAF1BA
S1135730020F02BF2868C0F3011000284FF0000BCD
S11357400CD1934800682868C0074FF0010B05D5B9
S1135750286820F0300040F010002860EE6300F06C
S113576055F80028FBD0B8F1000F4DD0394600F0B1
S11357704EF80028FAD0BAF1020F45D1BBF1000F60
S113578042D02868C00722D501222021022000F03F
S1135790C6F820E00426082003270224C2E71026C6
S11357A0202005270424BDE740268020072706245F
S11357B0B8E74FF480764FF4007009270824B1E766
S11357C04FF480464FF400400F270E24AAE700212F
S11357D0022000F083F8022000F01CF804460122A5
S11357E000210220FFF78EFF2146022000F02CF852
S11357F0EE63394600F00BF80028FAD004E0E863C1
S113580000F004F80028FBD1BDE8F18F214648469A
S1135810FFF751BB401E0328584912D8DFE800F0B7
S1135820020C06080869C0F308007047086800E025
S1135830886800F07F00704756480068C0F30A008B
S1135840704700207047000070B5401E0D460328C5
S113585005F07F01494C4A4E3DD8DFE800F0022AAA
S1135860101DC5F308051A213046FFF724FB002854
S1135870F9D12069400A45EA4020206170BD0D46F7
S113588018213046FFF717FB0028F9D12068C0091A
S113589045EAC010206070BD0D4619213046FFF75F
S11358A00AFB0028F9D1A068C00945EAC010A0602D
S11358B070BD23480068606920F0300040F010009B
S11358C06061C5F3C310FFF767FB216A324A1140D8
S11358D029430843206270BDB0400E402948026845
S11358E0C2F30112002A18BF002907D0202902D0D0
S11358F0302903D005E04FF4000103E04FF44001E8
S113590000E02649C26E0A408A42FBD1490204D50E
S1135910C06F800A00F0010070470120704710B585
S113592002280AD10B0004D01D4B4FF480645C6440
S1135930196012B1BDE81040D0E7012010BD00008D
S113594090400E4050410E4006000C0098002E007E
S11359506006140060162A007017160070272C00C9
S113596000250800FF00FEFF8009120070400E4071
S11359705C410E4014070020012D310110400E40FF
S113598040410E4024400E407F1B000738400E402B
S11359903C300E409C400E4000F8FF0FFFF3E17FC7
S11359A064400E4080B5002845D00178122942D3C6
S11359B0DFF8A41042780A7082784A70C2788A703C
S11359C00279CA7042790A71827902B101224A715C
S11359D0C27902B101228A71027A02B10122CA712A
S11359E0427A0A720278182A0FDB827C02B1012201
S11359F04A72C27C8A72027DCA72437D827D43EA06
S1135A0002228A81C37D027E0EE0827A02B10122E3
S1135A104A72C27A8A72027BCA72437B827B43EAED
S1135A2002228A81C37B027C43EA0222CA81407C2F
S1135A300874002002BD002000F002F8012002BD1D
S1135A4010F1010F07D0DFF814100A68120C80B2AD
S1135A5040EA024008607047201700203C4108409B
S1135A6062B38B0708D0521E11F8013B00F8013BCA
S1135A7000F024808B07F6D1830740F0208000BF1C
S1135A80103A07D330B4B1E83810103AA0E838100F
S1135A90F9D230BC530724BFB1E80810A0E80810BD
S1135AA044BF51F8043B40F8043BD20724BF31F80B
S1135AB0022B20F8022B44BF0B7803707047083A7E
S1135AC007D3B1E80810083A40F8043B40F804CB87
S1135AD0F7D25307E4E700000B494A680B689200C9
S1135AE002F03C02C3F381131A4382700A6802F085
S1135AF03F0242708A68C96802F0F002C1F30311E0
S1135B001143017070470000E0FF0FE0021202F041
S1135B100F02012A06D0042A11D0052A11D0062A20
S1135B2011D012E0404AC0F304300123002903FAE3
S1135B3000F014BF02F1C06102F1806107E03B4A4A
S1135B40F1E73B4AEFE73B4AEDE7FFF77BBA086032
S1135B50704710B510F47811374C12D0B1F5003FEE
S1135B6044D0B1F5802F15D0B1F5C02F18D0B1F5C0
S1135B70002F37D0B1F5202F3CD0B1F5601F13D0E2
S1135B803CE000F090F92168C1F30421491CB0FB0A
S1135B90F1F010BD00F087F9E168C1F30821F5E7E1
S1135BA000F081F92169F8E72448006800F0070053
S1135BB0012806D0022808D004280AD005280CD0D1
S1135BC00EE0BDE8104000F09DB9BDE8104000F0C3
S1135BD09FB9BDE8104000F098B94FF4004010BDE3
S1135BE0002010BDBDE8104000F05DB900F05BF985
S1135BF0A168D2E700F057F96169C5E7BDE8104034
S1135C00FFF750BA021102F00F02062A0C4902D023
S1135C10072A04D005E00868C0F308207047886AA2
S1135C20FAE7FFF7E1BA000000400E40C8400E401A
S1135C30CC400E4010420E4000410E4000420E4047
S1135C4010410E40890001EB401000F184400260D5
S1135C50704700F1806300F1C06019600260704712
S1135C603023424A584310440C3000F1806006E06F
S1135C7030233E4A584310440C3000F1C0600122E6
S1135C8002FA01F1016070472DE9F04101F00308C7
S1135C90144603270F21082C1D460CD2A60000FA37
S1135CA006F2B1403248FFF7D4FF08FA06F207FAC9
S1135CB006F130480DE0A4F10802960000FA06F25D
S1135CC0B1402D48FFF7C5FF08FA06F207FA06F1BE
S1135CD02A48FFF7BEFF2A4621462948294DFFF7E7
S1135CE0B1FF069A21462846FFF7ACFF0120A040E9
