S0180000745F7377697463685F62726434313634612E733337B0
S1130000F81B002025AC000075AD000079AD0000A0
S11300107DAD000081AD000085AD00000000000052
S113002000000000000000000000000089AD000096
S11300308DAD00000000000091AD000095AD000002
S1130040FDA20000A91E000099AD00009DAD0000B6
S1130050B91A0000E91E0000AF1E0000B11E000026
S1130060AB1E000069A50000B772000085A900005E
S1130070798A0000A1AD0000A5AD0000A9AD000083
S1130080ADAD0000B1AD0000D5720000B5AD00000B
S1130090B9AD0000BDAD0000C1AD0000C5AD0000AC
S11300A0C9AD0000CDAD0000D1AD0000D5AD00005C
S11300B0EB1E0000AD1E0000259B00001F1F00006A
S11300C0D9AD0000B5A40000DDAD0000E1AD000035
S11300D0E5AD0000E9AD0000EDAD0000F1AD0000BC
S11300E0F5AD0000F9AD0000FDAD000001AE00006B
S11300F005AE000009AE00000DAE000011AE000018
S10F010015AE000019AE00000000000065
S11302000298380002983E0002986E030298340661
S11302100298560002987C00029856000298F20058
S11302200298060202982C02029860000298CA0200
S113023002983C03029866000698CC0800F80698D9
S1130240CC0800C5981F002154150698D60B00C58C
S11302509C1F002100F80698CC080698AC0C187076
S11302600698CC080E700698CC0806986C10069870
S1130270AC0C069876020698900B00F80698CC0809
S113028010B902BA06980A0400C59C1F002100F8A0
S11302909112033288B903DE40727179A11020D81B
S11302A008710698D60B5C7000C3F81E0021341345
S11302B080DB1A7100C3A8100840A1141034024C4A
S11302C0481300BC48139114076448138CBB627B29
S11302D040D80671517900BA076A00C0A0000840EE
S11302E00698E600042008780978041121411810C2
S11302F000A00698CC0800BD0698280A10B903DCB3
S1130300047100B902BA06980A0404D906710040BF
S11303104072811008D810710698280A03DC08720C
S11303200698620426700698D201FFD80C7288B829
S1130330477800B844784470911010D80E7100BB0F
S113034000C46C50084006983C0420B802A800F889
S113035000C0F81E0021041320DB2071911010D876
S11303600E710760FFD808728CB84478967008DB69
S11303709272A11328DB8C7203BD0698C6010698FD
S1130380AC0C00C5A01F00210698280A00BA03DCA3
S11303902A72042500C00C510840069896082114BE
S11303A000C014000840041002680423341111280A
S11303B0F82334110698F210412A5415212D069879
S11303C0740A0298600F91100155033551500119B8
S11303D000A001B8811180D92C7100C10C500840D3
S11303E014100430207264211412EC211410014AF8
S11303F007620360803021508C480A717F215521A7
S11304001410013000A00698CC080698AC0C00BD6E
S11304100698C60188B8477800B8447800C5A81F74
S1130420002154150698740A0298600F0698CC08A7
S113043000C4BC1F002144141DB3315B302C207553
S113044006987A0800C0600008400410016801D8CA
S11304500E7100C064000840237808B865780698D7
S1130460D201FFD8067208B8607800C20000020208
S11304700698080400F800B900C09C100840181041
S11304801C200AB9181000C2600008402410911101
S113049088BB0D302C7108220812FC2204D9147276
S11304A004D804716A7B08D804716C7B2F7A487B6A
S11304B0107004D804716D7B08D804716F7B217AA5
S11304C0507B517B8CB8427800A00698CC080698E3
S11304D0280A07DC0A7200C59C1F002100F8069850
S11304E0900B01B9911004D8047100B900C2000046
S11304F0020006980A040040207100C0F81E002182
S1130500041120D91471076101D9E07281100760C8
S113051001D8D8728CB864780698760200C5AC1FEE
S11305200021541500C01C51084006989608212D3E
S11305300698D60B00C5B01F002100F80698CC0819
S1130540811108D90C710698620420B802A800F839
S11305500698760200BD0698C60188B8477800B8A8
S1130560447800C5B41F002154150298600FB110DF
S1130570076001D80A7108B87F78020C7E78069863
S1130580CC0801F8911010D8467106982E0D0698E3
S1130590500D0698080E00C51C510840541100C5A2
S11305A0305008405412E82554151159112D06767F
S11305B00122212D00C1041F00211411112DD07519
S11305C018B875788CB8447801B802A800F8B1104E
S11305D0076810D8307100C04810084000C30000FC
S11305E0084031146024282444113411076101D9CE
S11305F0FA71441228100762281007622810076253
S11306002810E8700298D40C0C700698440A11382B
S11306100472076A00BB00C1081F002100C44051D6
S11306200840141120391672417B007C00C46C50C0
S1130630084000C200000101281400A006985604D6
S113064000C2F81E0021241240DA0672617B007C8D
S113065088BA527A00A088BA727A811204DAFC72DB
S113066000A088B86B7800C0640008402F7800A010
S11306700763076390B9637900B902EC00CD1145B3
S113068002EC00CC01DB067102984607411103B865
S113069004D91C720731911210DA087102DD10724C
S11306A01C7002B80698B6103038127208B8069852
S11306B04C0F00C024000840207800F802EC00CA67
S11306C005B823DAEA7202EC00C8911110D9167148
S11306D000C1001F0021141111500A7108DB0672B9
S11306E00AB8CC7007689111173111402111C0313B
S11306F01140011990B8411108D90471627820D9C8
S113070004726578273123DD0872C0DA04716078D9
S113071003B8411107310872A1152035927102DD29
S11307201672A11120D98871CCDA847206B8054DED
S1130730B2720298460721114049C0D93471A031E0
S113074041154035016551410361076308DA1472AC
S113075004DA1E72104901340A7101DB147190B875
S1130760677800C00D0F0C0D0698B81001D80872F8
S113077007B80298AE04CC32204A00C005170850CE
S11307800698B810113001420DDA6671208800C154
S1130790DE1B250120BB04DA107208DA0A7200C1DC
S11307A020841000F823E8233114056B01DA067164
S11307B01E49024B076B076B00C0501F0021381005
S11307C0BC2002DA127100B9FF21A11380DB087189
S11307D000C100FCFF0118100298CE0600C3F81EE9
S11307E00021341080D84671EFBA06987A0E009230
S11307F00362DDDA9472A11101D9327100C238109A
S1130800084024120423281302EC00C804D91671EA
S113081004BA183008710060FD20012A02EC00C8F7
S1130820FF22FA7604DC067218B8737890B843781D
S1130830029846070698CC0800B8011A91101730A0
S1130840011900C2020200000698080404D90671C6
S113085001B802A800C0F81E0021041380DB067151
S11308600298700401DB5E7100C2581F002124113C
S11308701114FF3402EC00C8FF24FA7607610698CD
S1130880C610036111380F300361111401114110B6
S11308900698C61001D8087203B80298AE04042260
S11308A002DB16712410112811280698DA1000C2F0
S11308B018000840FF200812411007600698C6106F
S11308C001D8087120BC10DB06720298460700BBF1
S11308D000C1501F00211415511207620762C02184
S11308E0112CFF320E71408851140698760741434B
S11308F0009441115112076AFF320E7151140764BA
S113090006987607076C414300C1541F0021141058
S1130910013BB8211411111231100F30127100BAB9
S1130920046101D80471114200600FD8F4723110CF
S113093006601E30047201B8003A087204B80298C6
S1130940AE040298DC0500C0601F002104110F31C1
S113095003DD1A7200C000600840041007D80E724C
S113096000C01040084004B9181000F80698780E2A
S113097000B8477800F830885088FF34087102ECDA
S1130980FF24F87002EC00CD141001BB5150FFD8C5
S1130990047131440760006B10DBF2710421FF2203
S11309A0E4720F4C0095009300A0B11001D80472BA
S11309B000A000C0287008400411108800C100186D
S11309C000401810442004111088A8200411108835
S11309D04CBA757A18103DB11088F4B842784420A6
S11309E07278D8207378E82073784FB200C4FFFF80
S11309F08080413A4FAA01BC01644113076300C0DF
S1130A006C70084003B918100110011001B91810D6
S1130A10011001100110011098200411076101B8A0
S1130A200160003A0471044904D904724152076018
S1130A30003A0471084908D9047231520460003B39
S1130A400E7200630064314241424FAAB2704FAA51
S1130A5044B801685378F8B853784020527800912C
S1130A603DA9009100C0147008401810009158204E
S1130A7018100091BC20181000A04024066400C087
S1130A80FFFF0000013C1DB00220015840280675FC
S1130A901EAC01EC00A000C21850084024111DB483
S1130AA0111324113051F871066C402404100158BC
S1130AB0112800C3901F002134110698F21000B8C9
S1130AC08020013A0662215A412A00A0009000C603
S1130AD0C01F0021008801B007680F305CB11113FA
S1130AE00F330111C04806982E0A0698500400C41A
S1130AF0681F002103DD167214BA281400C2000115
S1130B000840317A9C22CC22207A00A009DDEE71C3
S1130B1000BA03DF1E71004B06722814311953B05A
S1130B2080BB006B30380A7109DD06710298900EA3
S1130B3000A04413281441150698440A0060B830F4
S1130B4000C4E01008404412076201322140082426
S1130B50287CF8255412F03240DE0472404804DB4D
S1130B6008720DDD0C72044BEF3014480698FC0833
S1130B700088811140D91E72B1123032CF4A213817
S1130B80B1D8127208D8067104D80A719C24D424EE
S1130B90237C347098244412FF32C322047580B835
S1130BA0D82481D8247140D90472237C084B04BA18
S1130BB080DC067180D8367206B904A901D82E7279
S1130BC064242824307C4E7008D80C7107BA24D8C9
S1130BD0047106BA187004D80C7101BA40D80E71A9
S1130BE002BA0A7005BA20D8047203BAE024441188
S1130BF0402418140761181491111831114200C1CE
S1130C0000600840141110D90471404A2031115277
S1130C102814081400903088024806989C0E00930B
S1130C2008DB047100F800A05CB00F3000A010884D
S1130C30B111076980D90A7100C180000840081108
S1130C40009100A000C400010840441000A000C0AE
S1130C5020300E40041104101050F47200A000C0A3
S1130C6028400E400413315107610C3107691153B8
S1130C70381000A00698A40B00C0F41F0021041132
S1130C8006985E0A217A237A00C3000010000698B1
S1130C909E0A00C0781F00211DB1181000A0511435
S1130CA000C0B81F00210410012C0A7500B826A842
S1130CB006987A0800C0741F00211DB1181028B0CE
S1130CC010B9115911380EB9114028A880B800C1C3
S1130CD044300840081100C1F01F00211410303BBB
S1130CE006710760076000C40830084044111150C1
S1130CF0FF30015118146FB8076826A8217A050C33
S1130D0021102020267800C063EF0000314026A87F
S1130D10050C20EC247A20EC217A184826A828B067
S1130D200AB901510F31115028A8050C207A20EC82
S1130D300F0C98B846784178B11080D83E7100C045
S1130D404C30084000C16D01000018100D0E0D0E4E
S1130D5000C0703008400411303112710820257829
S1130D602478960CF82004113031F272DC2000C192
S1130D7006000000181000B9181006984E0A00C2A8
S1130D806C1F002124100151FF311150081200A0E2
S1130D900698A40B00B826A800C07C1F00211DB132
S1130DA0181000A030B840780DB101D9FC72427817
S1130DB000C074300E4004114CBA407A1810EC2074
S1130DC004115C7A1810A4BB707B4E7B4F7B00C26D
S1130DD00430084000A00698A40B217A227A00C0AF
S1130DE0881F00211DB1181000BB06989E0AA4BBE1
S1130DF000C040300E400411033101492872B11281
S1130E00076207623020041121510F3118726E7B82
S1130E106F7BF02004114CBA7C7A18101420041152
S1130E20607A1810B11002D81071707B30B86278F3
S1130E3060780DB001D8FC7108B86E780EB84EB168
S1130E4010D90C723EA8140C0FB83EA8107044A818
S1130E50140C01B800C1B0300E40081100C07780F6
S1130E601F003DB201423DAA00C0FFFFFFFC013A52
S1130E703DAA140C00C077E01F0001423DAA51B8FE
S1130E8001687D7808B87E78069856040698AA0703
S1130E9006985004511406987A08F4B845780A0C58
S1130EA000C0841F00211DB1181000A051B80168B2
S1130EB05D7800C00000000344A83EA800C1B03023
S1130EC00E40081110B807683DB101393DA908B8B2
S1130ED06F7800A001F8541000DC12710114069818
S1130EE07A0818B8707800B8417800F80298F00CC5
S1130EF006982E0D008800C56C1F00215415511250
S1130F00FF350762FF3206984E0A015951290475CC
S1130F1011590090212912750698500D0698080E53
S1130F2003D80472FF0FCE7018B8727800F800C0AE
S1130F30F41F0021041001D8147150BD0698660EE8
S1130F4000C3086208402C7B287B00BB1DB400A0B2
S1130F5001D8047200A006987A081DB42824408899
S1130F6000C00470084004108020FF30067202980C
S1130F70020E00DF0672011316703111016B115954
S1130F80112B016300C1FF070000113B012B00C0BE
S1130F908801000001583128087605B878BD28700A
S1130FA0F820087605B8C8BD1E70DCBDDC200676C6
S1130FB006B81470E020067607B80C70E8200676B0
S1130FC008B8047009B800C100620840141207622E
S1130FD001DA187110DA08720698660E2670082174
S1130FE02C79287950BD0698660E0768036800C1FD
S1130FF02C60084000C2FF0FFFFF1414213C014481
S1131000481101B8009400A002D8047200A0069808
S11310107A081DB42824408800C0047008400410D5
S1131020FF3080DC3C7106981411015900C2EC1F9A
S11310300021241550452A715412211006981411C8
S113104011280A75042554155045EE7200C01C6021
S113105008447FB906611810113A48B97979281003
S113106002B8009400A000C47860084044122155DE
S1131070FF355152281400A0EBBA00C0681F0021AC
S11310800411113A10D9067118B97479281000A006
S113109006986C10115106985E0A00B8B1110769E0
S11310A040D9067202984A0F00BC08D94071202426
S11310B000C160600840111200DC0C71A0222412EF
S11310C010DA10710C70BC222412076204DA047165
S11310D00421141200C180000840320C2811076258
S11310E0281107622811076228114B0C00C1601FE8
S11310F00021141200DC1C7120D8087101B8069874
S1131100540FF0DA0C720CDB087102B80698540F15
S1131110482400C380000840FFB8012004211411B2
S113112011410871014118130824014200C13830EB
S113113008401411014100C0006008400410303020
S11311400168014118132813481300B800C1601F37
S11311500021141203682150F0300152281100A01C
S113116064BC066C415C512C06987A085088069839
S113117090000095B110076820D8207108B86578F0
S1131180911004D808720698620400F888B86E7842
S113119000C064000840217800F808B86C7820B8D2
S11311A05A7859785B7800C0F440084078787978A8
S11311B000C0E81F0021041040A846A84EB010D873
S11311C044724DB100C09FFFFFFF113840B102D9F6
S11311D00A72604804BB41540870204802BB02BC38
S11311E04DA8F8B87078190C3EB141413EA9F4B944
S11311F073797378717800C4F840084000C20041E4
S11312000840227000C20000010044AA230C00C25E
S113121000000B0044AA00C41041084000C2184159
S1131220084004BB587C050C597C0C240F0C2FABD4
S1131230050CB11008D81471647A657A1CB87978F1
S11312407B7820B879787B78607CF424411351143E
S113125006987A08727B53B80168050C687840ECEC
S113126000C0801F00211DB1181000F8015053A8C0
S113127000C0B860084004110761076180D9047296
S113128040EC00C4F84008404EB010D80471182453
S113129041130C23527C407B01502FA8050C797C10
S11312A00A0C00C0000001020814787C050C507C74
S11312B008B86D7800A0115910D90671076007604D
S11312C008D90471076004D90471036002D9047158
S11312D0016001D90471006000A01088041102307B
S11312E006710761076100C0FFFF0000113800911B
S11312F000A000C2FFFF00002138213900BA01D844
S113130006710148112A0069006001D8F67201389B
S1131310F67200A08020FF30FF48812000A000006A
S113132048040000012100F01F029140DFF8382733
S113133005E0012100F01F029140DFF83027400949
S113134042F82010704780B500F0D0FEDFF8201777
S11313500968090E01F00F01032906D1DFF81417FB
S11313600B680E2262F307130B600121DFF80827D4
S11313701160BDE8024000F0BDBEDFF8002711682F
S1131380D368194021EA000090600846704704229F
S1131390C900002814BFDFF8A40ADFF8A40A02FA7F
S11313A001F1016070470120704738B50024002521
S11313B0A94208BFA04200D132B1DFF8884A012314
S11313C0237000F0D9FE257031BD70B500F08EFE9B
S11313D0DFF8AC16DFF8AC46CD78D1E902232E0055
S11313E0DFF8941A04BF4FF41056324219BF102686
S11313F00E60102626600DB9D20502D520220A609F
S113140001E020212160BDE8704000F073BEDFF8E8
S1131410700600210171C17811B10021C170D4E7B7
S1131420704710B5DFF85846207970B101F086FD99
S113143058B9FFF7ECFFD4E90201BDE810400022DF
S113144000F4805001F00001AFE710BDF8B5044688
S11314500D461646FFF7B9FF4FF4004014F0AA6F8B
S113146018BF48F20200B107DFF81C16DFF81C763B
S11314704A6848BF40F4005000F09DF8DFF81016A9
S1131480DFF8107608600020210448BF4FF4805034
S1131490E10348BF40F48070E10648BF40F40050C7
S11314A0A10648BF40F40070610648BF40F4806064
S11314B02106DFF8E4154A6848BF40F4006000F0F4
S11314C07AF805F00403DFF8D415DFF8D475086062
S11314D000250020AB4218BF4FF48020210548BFEF
S11314E040F48030610448BF40F48010A10748BF35
S11314F040F40010A10348BF40F400207107DFF856
S1131500A4154A6848BF40F0040082EA00035B085F
S113151002EA43023A600A6000EA43000860DFF826
S113152088150860F107DFF88405DFF8586A48BFBA
S1131530DFF87C05A10048BF40F400106100DFF82B
S113154074154A6848BF40F0007082EA00031A40EC
S1131550326000F034F8DFF8F018DFF8F068086063
S11315600020E107DFF8E8184A6848BF012082EA52
S113157000031A40326000F022F8DFF8D81808603F
S11315806103DFF8D40848BFDFF8D0086107DFF84B
S1131590D018DFF8AC484A6848BF40F4806082EA5B
S11315A0000323F4A0231A40226000F008F8DFF8B7
S11315B08C180860F1BD82EA00031A403A600A60A0
S11315C018400860704710B500F090FD04461C20D8
S11315D0FFF7AFFE0820FFF7ACFE0120FFF7A9FEDE
S11315E00420FFF7A6FE0520FFF7A3FE1D20FFF74A
S11315F0A0FE0720FFF79DFE0620FFF79AFE1F209E
S1131600FFF797FE2046BDE8104000F073BD2DE9BA
S1131610F04702EA0009089D099AC643CF43002D0A
S113162003EA010A05EA0208DFF854442CD1002930
S113163048D100286BD001280ED0042842D100F0F4
S113164055FD00F066F8002082450CBF814501205D
S11316500121FFF79CFE33E000F048FD00F059F84B
S11316600022924508BF9145DFF8E40706D0012126
S113167001600120DFF8DC17086021E0DFF8CC27E7
S11316800121116001601BE00022914204BF9042DD
S1131690012D17D100F02AFD05462069400848EACB
S11316A0400020614FF48061DFF80804B8F1000FB6
S11316B019BF0160DFF89007DFF8C82811600160E6
S11316C0284623E0FFF77FFF00F024F82269AA43AD
S11316D048EA02022261FFF7B9FE00F007FD044662
S11316E01C20FFF71FFE0820FFF71CFE0420FFF755
S11316F019FE0520FFF716FE1D20FFF713FE072035
S1131700FFF710FE0620FFF70DFE204616E1BDE8A8
S1131710F0870546D4E902013040394040EA090027
S113172041EA0A01C4E902017047DFF85C08006875
S113173000060FD4DFF8541808200860DFF85008BA
S11317400068800547BF0220DFF848180220DFF850
S1131750DC180860704710B5044601F0A6FDFFF7D9
S113176032FF00F007F9012001F0B7FF04F1CC01CA
S1131770DFF8940801F070FADFF8B418012008606B
S1131780204600F043FC01F0FEFF02F072F802F084
S113179071F904F1280002F068FA4FF440010020C6
S11317A002F0A6F84FF40011012002F0A1F802F0B3
S11317B0FCFB02F0A5FC10B9142102F0CFFCBDE83B
S11317C0104002F0CBBB38B5DFF85858DFF8584862
S11317D0286810F0070F06D1606E20B1002001F0D8
S11317E062FB401E68618020DFF8481808602068AA
S11317F020F04000206031BD10B500F077FC0446B5
S113180000F014F810B902F0ABF820B1204600F053
S113181071FC012010BDFFF7D6FFDFF8701701201F
S11318200860204600F066FC002010BD032002F092
S113183058B880B5010003D0DFF82018401E0860B6
S113184000F054FCDFF8E0170A6822F040020A6056
S113185000F050FCDFF83C170220086001BD0121B4
S113186002F0F9BA2DE9F04704468846914600F0A3
S11318703DFC82465FEA08007D4DDFF8DC670FD04F
S113188000F060F8DFF8D817012008600420306009
S113189001E001F07DFE2868000E10F00F00F8D181
S11318A080203060FFF7C2FF20B1032002F009F866
S11318B000F0DBFA02F028F802F022F800F042F817
S11318C0DFF86407DFF86477016841F040010160E4
S11318D0FF2038604FF480706860042030603CB1B1
S11318E0FFF731FD02F033F82020686000F0BDFA04
S11318F0B8F1000F21D0484600F0C0FA0120B9F138
S1131900000FF86019D0604841680160E869A86177
S1131910614841680160DFF84C0741680160DFF805
S1131920400541680160DFF8280541680160DFF87F
S1131930380760490860FFF76AFD5046BDE8F04784
S113194000F0D8BB10B5DFF8EC4606E0DFF8081766
S113195004200860022002F02FF804202060DFF841
S1131960280600684003F1D410BDDFF800070068C2
S11319700021704780B5DFF8F8060168DFF8F40647
S113198001F0B3FC6821DFF8A00602F0F7FBDFF8F2
S1131990F8050021016041608160BDE8014002F06A
S11319A0F1BBF8B5DFF8D016354C0A5C414E130094
S11319B005464FF400671CD0032D08BF3760521E44
S11319C00A54D2B25AB9032D05F10900DFF8AC1656
S11319D009D10002227840F0010012B10860002011
S11319E017E0F060FBE7042DF9D1000640F48030E5
S11319F0F4E701F066FF032D08D1DFF8841641F601
S1131A001F700860376001F07BFFE8E7022D02D108
S1131A1001200021F4BD042DE1D1032001F051FF88
S1131A2001F072FF00F062FB05466078002608B101
S1131A30FFF789FC01F082FA0D4F0028386804D1C1
S1131A40000E00F00F00032802D1A07820710126B7
S1131A50284600F04FFB002EC1D10020E070FFF7B4
S1131A60B4FC4FF48050D4E700E100E080E100E0F2
S1131A7004400840601F002124000840144008402E
S1131A805817002094400844680008406C0008443B
S1131A906C0008460C620844086208400C62084660
S1131AA0204008441C4008402040084604185000C8
S1131AB0041C5000645008402DE9F84FDFF8C405B9
S1131AC00168C26802EA010BC0F808B0DFF8B80583
S1131AD00168C26802EA01048460DFF8B0050168A5
S1131AE0C26802EA010585604FF6FF70FFF745FC06
S1131AF00646DFF89C050068C0F34070002801BF6B
S1131B00DFF890050068C0F3407000281ED000F094
S1131B10EDFA824601F024FF8046DFF87C05DFF809
S1131B2078150068C96801EA0007DFF86C1527F426
S1131B3000608860780704D5DFF860050178491CE7
S1131B40017000F08FF98DF8008002E08DF800003C
S1131B5000274FF00008BBF1000FC246C1463ED03B
S1131B605FEA0B41DFF820041CD50168DFF8E824A4
S1131B70DFF8E43401F4E051116080221A6010228D
S1131B80DFF8A8341A6011B94FF400280AE0CA0437
S1131B9048BF4FF0007805D449054CBF4FF40018F6
S1131BA04FF400085FEA8B7114D50068DFF8A814BD
S1131BB010F46040086008BF48F480180AD001049B
S1131BC048BF48F0806805D480044CBF48F48008BE
S1131BD048F080785FEA8B4048BF4FF00209DFF895
S1131BE0C004044233D014F4206F07D0002000F066
S1131BF045F9062100F03CF924F4802414F0090F7F
S1131C00DFF888B309D02020CBF800000120DFF8EA
S1131C1094140860082100F02BF914F0106F07D019
S1131C202020CBF8000001F061F9092100F020F92F
S1131C3014F4202F07D0002000F020F9072100F031
S1131C4017F924F48024E00348BF01F024FA600764
S1131C500ED5DFF8540400684FF4005128B1DFF8C2
S1131C604C04016048F4802802E0DFF84404016079
S1131C70600548BF48F0040860031CD501F0E3F98F
S1131C80401E062805D8DFE800F0080B080E1114E2
S1131C901400032100F0ECF80DE048F400580AE0C9
S1131CA048F4806807E048F4007804E048F4807859
S1131CB001E048F00808BDB1E80448BF48F4004812
S1131CC0E80548BF48F48038A80448BF48F0100825
S1131CD0A80548BF48F02008680548BF48F04008F8
S1131CE0280548BF48F0800816B3B00148BF49F042
S1131CF00809700148BF49F01009300148BF49F094
S1131D002009700348BF4AF0040AF00348BF48F4AE
S1131D100068F00248BF48F48048B00248BF48F069
S1131D200208300304D500F089F908B148F40038FA
S1131D30002F5ED0380506D50320FFF732FE48EAAF
S1131D4000084AEA010AB80104D52B2001F0EFFC8F
S1131D5048F0804817F4E00F04D1F80439D59DF811
S1131D600000B0B3B80204D5292001F0E0FC48F02B
S1131D700058780248F080550CD500F076F82720FA
S1131D8001F0D5FCDFF8D012802008601020DFF8C5
S1131D909C121BE0F80207D500F067F8282001F038
S1131DA0C6FC48F000681DE0F8041BD500F05DF89F
S1131DB001F0CDFDDFF8E002006810F4A00F11D1AE
S1131DC02A2001F0B4FC0120DFF8D8120860A846EC
S1131DD008E0F80406D50420FFF7E3FD48EA00080C
S1131DE04AEA010A780504D50220FFF7DAFD40EA41
S1131DF00909DFF8C0020169D0E9025301EA0902C6
S1131E0008EA05000AEA0301FFF7CFFA600303D5E5
S1131E1001F036F9FFF705FB6EB1B00148BF02F0DF
S1131E2098FB700148BF02F0B1FB300103D5BDE857
S1131E30F14F02F0ACBBBDE8F18F0000EC10084696
S1131E40EC100844F5170020685008463C7008441C
S1131E50387008403C700846090A0A090D0A0A0944
S1131E60E8100840504600F045B9042001F029BDAF
S1131E70002002F073B900009440084638B50446C7
S1131E8000F034F9054601F034F814B1FFF7BFFA55
S1131E9005E0DFF82402007808B9FFF7C2FA284603
S1131EA0BDE8324000F026B906E605E604E603E69E
S1131EB010B5DFF80802FFF760FA0446E00707D51B
S1131EC0DFF8FC010068000E00F00F0000F004F9D8
S1131ED0600708D5DFF8DC01007CBDE8104000F0A5
S1131EE00402002018E010BDE6E580B5DFF8D40157
S1131EF00168C26811408160C8070CD5DFF8B401DD
S1131F00007A122100F0010002F028F9BDE808402F
S1131F100022012000E001BD0021FFF746BADFF8EE
S1131F20A8010168C2681140816070472DE9F84337
S1131F3080460C46914600F0D9F83B4E376805467A
S1131F404046FFF730FA28B127EA040004EA090101
S1131F5008433060284600F0CDF804EA0700BDE8E5
S1131F60F28338B504460D46FFF71DFA00281ABF60
S1131F702D480068606F2840A84201D1012032BD7D
S1131F80002032BD6850084488400840084008409A
S1131F90081F00210040084670B50E0082B00546B7
S1131FA0DFF828410BD100220721FFF7BFFF2846A5
S1131FB0FFF7F9F938B30020C4E9000073BDFFF757
S1131FC0F2F9D8B142490720086001213079207024
S1131FD070790090684602F009FC0099C14000F055
S1131FE00F0040EA011060701C49B079A070F079CC
S1131FF0E070306860603079401C08600722072177
S11320002846FFF793FF73BD2B17000080B5FFF739
S1132010CAF928B1BDE804404C212E4802F0AEB8FC
S113202001BD000004000840F81E002100400844DF
S11320300C40084488400846802192E72048006804
S1132040000E00F00F0002281CBF0328072801D14E
S11320500120704700207047884008441800084059
S11320600C400846783008405000F0021C510840EB
S11320702013000000020000F01600206C500846F7
S11320806C50084460000840E010084000620840BA
S113209000E300E000E200E05C500840F617002096
S11320A0090A0B0928100840B40402432410084408
S11320B02410084658170020F51700200000FFFFE1
S11320C0044008403070084070300840581F002118
S11320D0040008440C1F0021024901200860024941
S11320E008607047204008441C400840EFF310800B
S11320F072B6704700B962B670470268531C036039
S113210011707047DFF8201504220968C00002FA34
S113211000F0084018BF0120C0B270470422C90073
S1132120002814BFDFF80405DFF8040502FA01F102
S11321300160704701207047704738B5D0E91045F9
S113214022402B400024A34208BFA24207D001B082
S1132150DFF810160968BDE830400C38084731BD77
S113216048B1DFF8D0246FF0FF011160000ADFF8F6
S113217008160002086070472DE9FC4104460D462C
S1132180904602F047FB00F10C06DFF8AC04DFF8E0
S1132190AC740421204029400022914208BF90429F
S11321A048D0200303D5FFF7E0FBC7E90201E002B2
S11321B003D5FFF7DAFBC7E90401E0000BD5DFF82C
S11321C08004006800F07F40B0F1007F03D1DFF8A5
S11321D0981502200860E0071FD500F00BF90022D3
S11321E000F08AF9012001F0B2F9F0800021012009
S11321F002F08DFB7978002914BFDFF87015DFF841
S11322007C154FF400100860386AFFF7A9FF00201E
S11322103862307840F00800307005F00401002383
S1132220994207D00121304602F0B2FC25F00405A2
S113223004430D430020854208BF84420ED0224649
S11322402B463046FFF779FF4FF0FF30C7E9020015
S1132250C7E90400200744BF002078625FEAC87021
S11322600AD5B9690020B86101203870080003D08C
S1132270F869BDE8FC410847BDE8F38110B50446A0
S1132280112002F035FF042802BFDFF8FC040068C7
S113229010F4403F01D0022010BD2046FFF75BFA46
S11322A0DFF8601560200860002010BDFEB504460C
S11322B00FF274000068029004F10C0764200026F9
S11322C0BE67C7E91066B886F88638877887B88706
S11322D0F8870D464FF6FF7038813E867E86384675
S11322E0FFF728FFC0B13846FFF7C8FF060013D137
S11322F002A9384600F0B3FA0646BA6F4FF0FF3130
S1132300384600F059F900F075F84FF08052042374
S113231010460421FFF77BF928001CBF2046A8477C
S11323203046FEBD000000000000000010B5044669
S1132330207881072FD5616A69B300F0FD00207011
S1132340DFF8E404006800281FBF01680029C068A2
S113235003F0A6F9606A4069006810F1010F03D028
S1132360BDE8104003F0EAB9D4E9100101F004011A
S11323700023994204D1207840F00200207010BD5F
S11323804FF48031204602F003FC02462046BDE8AB
S113239010400B46D1E610BD2DE9DC430446DDE9CF
S11323A00867D4E910019043994306EA020807EA52
S11323B0030940EA080041EA0901C4E9100122F0D6
S11323C0010823F0000900F0A9FA80B100F012F826
S11323D007EA090106EA080040F0805241F00403CC
S11323E040464946FFF713F92046FFF79FFF0020B8
S11323F0BDE8D6830020019000907047006801007A
S1132400DFF8601308BFDFF80805086070470000B4
S1132410002300210022032807D8DFE800F003028C
S1132420070A01231846FFF71DBA7047012301214B
S1132430F8E7012301210122F4E780B501F090FAC5
S113244040BBDFF8D004006800F07060B0F1807F1A
S113245018BFB0F1007F19D0B0F1407F18D0B0F1AF
S1132460806F1CBFB0F1A06FB0F1E06F0ED0B0F17F
S1132470006F0FD0B0F1106F0ED0B0F1206F1CBF01
S1132480B0F1306FB0F1406F04D007E0022002BD1C
S1132490032002BD042002BD052002BD012002BDAF
S11324A0DFF874040068C00900F0010080F0010046
S11324B0704710B5044600F0B9F92046FFF7BCFD9B
S11324C078B1204600F054F958B10321002000F0FF
S11324D0D3FC10F1010F01D1032010BDDFF8141556
S11324E00860002010BD10B5FFF7E3FF040008BF2B
S11324F0FFF782F9204610BD002301200021FFF7D9
S113250086B880B5DFF8B8160968090608BF00F078
S113251053FA0020FFF78DF9002002BD012809D0ED
S11325200BD3032803D008D24FF0C05006E04FF07D
S1132530005003E04FF0605000E00020DFF8401648
S11325400A6822F06052104308604FF40010DFF86C
S11325501C12DFF830260860DFF86806016821F0F5
S1132560060141F0040101604FF080511160042123
S1132570416100207047DFF8301606200860002013
S1132580DFF8281608604FF08050DFF82416086042
S11325904FF40011DFF8E40101604FF06051016075
S11325A000207047002819BF0220DFF80816022017
S11325B0DFF814160860704738B50D461446FFF767
S11325C0B9FD70B32A07DFF80006DFF8E81505D572
S11325D0220747BF08220A6008220260EA0705D5DD
S11325E0E20747BF0120086001210160680708D5A0
S11325F061074CBFDFF8D415DFF8D4154FF4007031
S11326000860A80704D5600800F00100FFF7CAFFBE
S1132610E80606D5DFF8BC05E1064CBF00211B2106
S11326200160002032BD0000EC100840EC100846A8
S1132630EC10084418700844010018102806002003
S1132640081F002170B500F06CF9002628B104F1D0
S11326502801284601F0B2FD0646304670BD70B52B
S113266004460D4694F85800032801D1022070BD99
S1132670261D316A357081B1204602F069F940B9EE
S11326803062204602F057FA0146204602F07DF9F6
S113269003E0E9B2204600F002F8002070BD10B556
S11326A00C4690F85810032901D1022010BDFFF701
S11326B041FD10B1E0B201F029FE002010BD80B54B
S11326C0084601F0CEFD002002BD01F0D2BD2DE987
S11326D0F04104460F466069012815461E463CD069
S11326E000F01CF9002838D002F01BF9012803D0AF
S11326F00121012002F00BF9A889D5F804803F1AC2
S1132700BFB2402F06D3A968B809484308EB801824
S113271007F03F0701F002FB404507D101F001FB40
S1132720A968884204BFF6B2002E10D0A9684046BA
S113273001F026FB08B1022010E001F006FB00289E
S113274014BFDFF8B004DFF8B00401F00BFC20463E
S1132750FFF7ECFDF8B2FFF782F80020BDE8F08146
S1132760000000001C0700200040084618600846CE
S11327702021FFF7F6BB00001870084618600844D3
S11327800C461546FFF7D6BC04300E4000280CBF9B
S1132790DFF86804DFF868044FF480710160704763
S11327A070B5DFF86044DFF860142578DFF85C2446
S11327B0ED074FF4806303D505000CBF13600B6075
S11327C02678B6074FF4006503D506000CBF1560E4
S11327D00D602678760703D506000CBF53604B6066
S11327E023781B0703D508B9556070BD4D6070BDD3
S11327F0002814BFDFF8D403DFF8D4034FF480615A
S113280001607047440008400307DFF8F013DFF865
S1132810002448BF002002D4C00603D50120106064
S11328201020086070470000F81F002138B50446E6
S11328300D46680800F00100FFF7B2FF05F0040040
S1132840FFF7D6FF2846FFF7DFFF2046FFF790FF8C
S113285020B105F00100BDE8324097E731BDF8B57D
S113286000F05FF870B3A878E978884201D00120BD
S1132870F2BD6878010002D1FFF77DFE01E0FFF7A9
S11328804DFEA878DFF88C6340F6FF7700280EBF72
S11328903760204600F07AF8E87840B9DFF814137E
S11328A03763602008604020DFF8541309E0DFF844
S11328B0181360200860204600F07EF84020DFF8FE
S11328C03C1308600020F2BD30B585B0FFF758FF17
S11328D0C8B100226946012000F0EDFBA8B1BDF8A3
S11328E00210AAB28A4228BF0D46DFF82C134A6AA6
S11328F0904204BF00204862ADB22A46214601201E
S113290000F059FA00E00025284605B030BD00006B
S11329103921000004400840884008402046FFF761
S113292009BC04460D46FFF705BC012000F0BBBA04
S1132930F8B50C469BB200F023F806DAB3FA83F13B
S1132940D1F1190148BF002507D400F019F8BABF26
S1132950B3FA83F1C1F1190506250121AB1D01FA72
S113296003F6B7B291B28F4288BF0F46FFF7E2FB7E
S113297020B1EAB23946204600F0ABF9B0B2F2BD5C
S1132980B3FA83F1C1F119010629704780B5FFF745
S1132990D1FB80B10020FFF7B5FBDFF880220121D5
S11329A011604FF40051DFF87822116018B1BDE8CE
S11329B00440002120E001BD10B5FFF7BBFBB8B116
S11329C00120FFF79FFB044601210020FFF7A6FB2F
S11329D0DFF8441200204862FFF750FADFF844128F
S11329E04FF4005008601CB1BDE81040012103E021
S11329F010BD0000001F00210120FFF78FBB70B540
S1132A0005460E46FFF796FB344608B92E813DE095
S1132A10DFF81402DFF814124FF6FF72B3B283B971
S1132A202B89934204D10968C1F30B01A5F86810FE
S1132A3000212981072101600520DFF8F4110860D5
S1132A4024E0B6B296422B890ED193421ED00723BE
S1132A5003600868B5F86830000B43EA003008608A
S1132A602A81B5F8684011E0934204D10A68C2F3A0
S1132A700B02A5F868202E810722B6F5805F02605C
S1132A8088BF4FF48056701E08603446A0B270BDF3
S1132A902DE9F84FFFF745FF00284FF000096CD0EF
S1132AA0DFF890B1DFF89061DBF800A03768D6F862
S1132AB00480294604F1280000F06EFCDBF8005085
S1132AC030687168DFF83C21B8420ED01378870A69
S1132AD003F0FE0307F001073B43C00A03F0FD03C4
S1132AE000F0010043EA4000107041450FD0107817
S1132AF08B0A00F0FB0003F0010340EA8300C90ADB
S1132B0000F0F70001F0010140EAC10010704FF637
S1132B10FF712089884203D001462046FFF76FFFEA
S1132B20554525D00021002D1EBF28680028A9681E
S1132B30204600F029F8002D1CBF2868002801D089
S1132B40286918B9002100228A4603E04268016816
S1132B50B0F80AA004F1280001F0B3F85FEA000914
S1132B600BD1514604F1280001F077F800F03BF84E
S1132B70207840F0020020704846BDE8F28F000043
S1132B801860084094400846FFF706BA10B500F0F4
S1132B9013F820B1E0B2BDE8104000F0D8BCDFF873
S1132BA09C0010BD00000000700008448400084030
S1132BB094400844440008460C46FFF7BBBA0000A2
S1132BC00040084070000840440008441C60084667
S1132BD01C6008444C00084080B500F099FEBDE834
S1132BE0044000F0C4BE04F1280001F03EB800F037
S1132BF029BD0000C0CF6A00E06735008840084660
S1132C0088400844E0170020A0000844A0000846BB
S1132C10701F0021241008402806002028100840B6
S1132C2024100844541008440400084418000840C0
S1132C3004000846F81F0021A000084000FEFFFF22
S1132C4030B53025DFF8A845684320440160426070
S1132C5003991943416230BD38B5DFF8985568606F
S1132C60002000900C4640F6FF7305F10C0203218E
S1132C700120FFF7E5FF00F058F903202880002326
S1132C800020688022464FF4005000900021032069
S1132C90FFF7D6FF0021002000F0FCFB00210120FB
S1132CA000F0F8FB0121022000F0F4FB01210320D5
S1132CB000F0F0FBDFF84015F0200860A020DFF8FA
S1132CC03C1508600120DFF838150860BDE8314084
S1132CD00FE138B5DFF81845226060600D46FFF754
S1132CE005FADFF820150A680023E360A56052079F
S1132CF05CBF04228A60FFF7FDF90DB10220A062D7
S1132D0031BD00002DE9F04F89461646DFF8E01486
S1132D1000EB4002052E81B001EB021515D2761EA0
S1132D20032E45D8DFE806F00B08050219F8010B5D
S1132D30A86119F8010BA86119F8010BA86119F829
S1132D40010BA86101B0BDE8F08F19F8010BA8616F
S1132D50361F19F8010BA86119F8010BA86119F8BD
S1132D60010BA86101202968AC6801F00701891DE5
S1132D7000FA01FAAAF10108696808EA0400AAEB5A
S1132D80000741F0005BB742584408D23A4649462E
S1132D9002F0E4FCF21B09EB0701584601E032465D
S1132DA0494602F0DBFC30194AEA08010840A860F1
S1132DB001B0BDE8F08FF8B504460D46164620462E
S1132DC000F071F8070014D0B74228BF374601203D
S1132DD000903021DFF8180461430844BAB2C36894
S1132DE09BB22946E0B200F00CF8BFB2F61BE6D164
S1132DF0F1BD2EB10220E1008840DFF80C14086018
S1132E00F1BD2DE9F047894630214843DFF8E0134E
S1132E1082B00E1808587168144600F007000122A9
S1132E20801D02FA00FA41F000511D46AAF1010882
S1132E30009108EA0500AAEB00070099A7420144A3
S1132E4008D23A46484602F089FC0099E21B09EB95
S1132E50070001E02246484602F080FC0A9848B187
S1132E6060194AEA08010840F060B16888421CBF52
S1132E700220B062BDE8F3873023DFF8742358439F
S1132E801044026AC2F30802914202D34FF0FF30A9
S1132E9070474268C0684FF0005308181A44C0F3E2
S1132EA00800105C70473022DFF844135043084494
S1132EB0006AC0F30C007047F8B50D46412D044676
S1132EC001D30120F2BDDFF8386301203060FFF741
S1132ED00DF907462A4621460320FFF713FF38461B
S1132EE0FFF708F9042030600020F2BD0021002023
S1132EF0E2E738B5FFF7FAF80446C448BD4D0121AE
S1132F000160016300F011F803202880002068802C
S1132F104FF4A020BE490860BE4908600020A860A4
S1132F202046BDE83240FFF7E5B8002000900323B7
S1132F304FF403702A180021022081E60120B2E731
S1132F40B0480168C90311D54FF480318160B1489C
S1132F500160B148016801F0FF0101640168C1F337
S1132F600721016404210164002101647047F8B55C
S1132F7004004ED0FFF7BAF805469E484188C1F3D5
S1132F80830200EB82024FF403731A448368022C19
S1132F901E4603D1D3B37408640002E0012C08BFB9
S1132FA0144676084FF40373B4EB460F034423D15D
S1132FB0002181609442218841F4004121803BD169
S1132FC002882146121F4FF413770280241D074400
S1132FD0468892B2361DBC4228BF1C46052A46804C
S1132FE002D327883F04EBD48B7803F00703042B28
S1132FF00CBF012300230EE0E61A01F03F01711A11
S1133000068848BF4031361FB142D3DB2846FFF75C
S113301071F80320F2BD0988804CC1F30C012160D2
S113302006F07F0141802163A2642BB14068010056
S113303018BF804700F0ACFAFFF782FF2846FFF77D
S113304059F80020F2BD6B4908884A888218D21EBC
S1133050920802F00F0201EB82024FF40373001D89
S11330601A44088080B26E4B1860907800F0070014
S1133070042803D16B4B1B681B03FBD48A60704785
S113308010B55C4CA06828B1C10758BFFFF76FFFAB
S11330900020A06010BD80B563494FF48030086003
S11330A0594908600220FFF7FEFE3D2802D2BDE820
S11330B0014045E701BD2DE9F84F04460D4616468B
S11330C0FFF714F8DFF82C818146B8F80200C0F34A
S11330D0830108EB81014FF403721144B8F8002016
S11330E0022C10D1D8F8083053B91318DB1E9B08F2
S11330F003F00F0308EB83034FF403741C4405E04F
S11331005C08640002E0012C08BF0C464FF4037312
S11331104344E71A00F03F00B7EB000A48BF0AF146
S1133120400A92451EDA002D08BF002E59D08C4269
S1133130DFF8E4B003D1DBF80470BFB206E0201F6F
S1133140984238BF40300088C0F30C0706B137807E
S1133150002D46D00220FFF7A6FE82451ADA208809
S1133160010404D54846FEF7C5FF00203DE0A178E0
S113317001F00701C01B06292970C0F3090602DB10
S113318000F06CF9361A30B2C043C00F042100F0CD
S1133190E5FF11E0DBF80000C01BC0F3090621487D
S11331A00068012E04DA000E00F00F00032801D19C
S11331B0082000E000202870C7F3080708EB070088
S11331C00C30A8606E80B0B2C019B0F5007F05D98C
S11331D0C7F50070A88008F10C0001E0AE80002063
S11331E0E8604846FEF786FF2046BDE8F28F0000FF
S11331F0001008402C0F00204000084440000846FE
S1133200B8100840E0100840E41008405810084086
S1133210E8100840EC100846381008403C100840FC
S11332208410084004400840EC10084480B5684607
S113323002F0D0FADFF87403DFF87413DFF87423B4
S1133240016148F2E67141604FF408610160DFF802
S11332506803DFF8681341604AF63F4111604FF09C
S1133260C071DFF85C23116000210166DFF854139C
S113327001607F20DFF8501308602320DFF84C132F
S1133280086001BD10B5DFF84803DFF84843016862
S1133290426849B10B0C1B04A34208BF0A60083002
S11332A0DFF834138842F2D310BD10B500F047F8AC
S11332B0FFF7E8FFFFF7BAFFDFF82013DFF820433A
S11332C0032008604FF40020DFF818130860012081
S11332D0206000F072FEDFF810134FF46070086095
S11332E04FF040706066E06710BD10B5DFF8F8324B
S11332F082B001221A60DFF8F4422268120E12F042
S11333000F02FAD14FF00452A2670122E2678A0049
S113331001464FF0045002F031FADFF8D402E065C0
S1133320DFF8D042DFF8D00221680091A02100F03C
S113333025FFDFF8C802A0600099216013BD80B5A5
S11333400121DFF8BC0202F05FFA0121DFF8B402C8
S113335002F05AFA0121DFF8B00202F055FA012115
S1133360DFF8A80202F050FA0121DFF8A40202F00B
S11333704BFA0121DFF89C0202F046FA0121DFF842
S1133380980202F041FABDE804400121DFF88C0202
S113339002F03ABA00000000F8B504460D460FF2F8
S11333A09C2600E00860002D1CBF286810F1010F66
S11333B03FD055F8042BC2F3036156F8211093B2A1
S11333C0C2F307401943022808D300281EBF55F84A
S11333D0042B41F8042B401EF7D1E4E755F8040B05
S11333E0120F4FF0010C072A01F1C06301F180674D
S11333F00CFA00FED7D8DFE802F00506090C0E111E
S11334001417D0E7CEE7C0433860CCE70A685040D1
S1133410C8E71860C7E700F0CFFAC4E7C3F800E0D4
S1133420C1E7C7F800E0BEE70A6802408242FBD168
S1133430B9E7204601F0BDF8BDE8F14000F050BB0B
S1133440DFF8A8010068000E00F00F00022818BF82
S1133450032801D10120704700207047DFF8C00124
S1133460016800208A0648BF0420CA0644BF801CA5
S1133470C0B20A0744BF801CC0B24A0744BF801CC4
S1133480C0B28A0744BF401CC0B2C90744BF401C35
S1133490C0B27047DFF88C2102EB800000F180633A
S11334A04FF4407200F1C0601A6009020160704775
S11334B080B5112001F08AFCDFF86C1109688AB22A
S11334C032B1C008C1F307414843B0FBF2F002BD7A
S11334D0002002BD80B5FFF7EBFFDFF8501109684B
S11334E001F03002102A04D0202A04D0302A08D057
S11334F002BD400802BDC1F3C421491CB0FBF1F078
S113350002BD800802BD10B54848016801F03002D0
S1133510202A0FD1C1F3024018B1C1F3C422B2FB77
S1133520F0F011F4C01F18BF40004408032C0AD364
S1133530042408E0006800F4E070402816BFB0F5E9
S1133540807F02240124FFF7C5FF604310BDF8B556
S11335500446FEF7CBFD0646FFF772FF05463448E6
S11335600068C0F38917B80544BF32480743FFF722
S113357067FF00B900253046FEF7BCFD3FB217F5E2
S1133580007F01D12542E4D105B92B4F3846F2BD65
S11335901648016801F07061B1F1C06F02D1816B0E
S11335A0C906F6D540214160704700003441084007
S11335B0C0E65351083008409C4008407A27000F69
S11335C028700840806D6303243008442430084682
S11335D00080E00F00000840B081E00FD86008468A
S11335E094400846944008400C4008460440084073
S11335F0C01F0021E81F0021601F00213F00370089
S1133600003406000004060070050600006406008D
S1133610005406000044060000240600007406005E
S11336204C000840A0000840506008401860084062
S11336300870084000FCFFFF00FEFFFF0000084088
S11336400000002138B5040045D03C4D1422214629
S1133650284602F093F80121394802F0D5F80121F7
S1133660384801F083FB3848F8218160E27A217AF6
S113367041EA0221A27B41EA024141602178012909
S113368017D1022169610023072101600422617BB3
S1133690207B02F088F9217CE07B0023042202F0E5
S11336A082F9A17A607A0123042202F07CF90020D5
S11336B032BD022904D10121696105210160EAE7D3
S11336C0032904D10521696101210160E9E711B9E8
S11336D069610160EBE7012032BD70B5044620004A
S11336E01A4D15D0154E7168002049B1144802F0E6
S11336F0AAF8716800EB5100B0FBF1F0401E000223
S11337004FF603712960716908431149086001E0AB
S113371003202860204600F002F8002070BD002835
S113372014BF0C480C484FF08041016070470B49AE
S11337300968002944BF0A49086070470817002037
S11337400034060000350800740008407C0008447A
S11337507C0008469440084694400844944008403D
S113376080000840012100F01F029140DFF8B822D8
S1133770400942F820107047890001EB401000F125
S11337808440006870472DE9F047DFF8A04201212A
S1133790204602F039F8DFF89872DFF898023860B2
S11337A0204602F050F84FF47A71B0FBF1FA4FF46E
S11337B0FA70A0FB0A01090241EA1061DFF87822DD
S11337C0002312EB00205941DFF8702202F032F995
S11337D00446A4F58070B8625146002000F5FA70E2
S11337E04FF47A72002302F025F906460D4624B9F7
S11337F02B21002000F0B2FC01242D0260080021DE
S113380045EA166510EB062069412246002302F0C2
S113381011F9DFF82C6280460D46BAF1000F3560CD
S1133820C6F804804FEA142905D12B21002000F0AA
S113383095FC4FF0010A22064B464FF47A70A0FB28
S11338400249002100FB039914EB5A0049EB0101E2
S11338505246002302F0EEF8F060B16018F1020065
S113386045F10001800840EA8170401E3863BDE8DC
S1133870F08780B51D20FFF775FFDFF8C8114FF002
S1133880005008600120FFE7DFF8BC11086001BDAB
S113389070B50446DFF8BC0106680D46101B63EBE7
S11338A00501AB420CD828BFA24209D20023721CE6
S11338B063F1FF339B0043EA927310EB820059419A
S11338C070BDDFF8942102EB001202F18062012145
S11338D011604FF4807101FA00F0DFF88011086084
S11338E07047DFF874110001085800F001007047B8
S11338F001F46001584A000141F00301115070477E
S11339005849002008607047574955480860704777
S11339102DE9F04102F005F9544F3C6880464C48CB
S1133920067800F011F8002508B13C68761C404682
S113393002F0FBF8B86906F00301401CE0FB014506
S113394020462946BDE8F0814948022114E780B5A4
S11339502220FFF7ECFE3C494FF48020086001BDB3
S11339603A48006810F0060018BF01207047F0B50F
S1133970334EB268A0FB024501FB0255F268A0FB7E
S1133980026701FB0277B6F1004267F1FF330021C1
S1133990E0186941F0BD10B529490C684968A0FBDD
S11339A00123B2F1004263F1FF331A460023E0FB26
S11339B004231046194610BD2DE9F84F0446FFF7BD
S11339C0A7FF804689462046FFF7E5FF04461F48C7
S11339D00D46416A490800910068C00702D41FE0FF
S11339E0241A8D410027009EBD4203D8B4423CBF37
S11339F026462F46FFF78CFF82468B4652465B468F
S1133A0040464946FFF744FFB942F3D301D8B042D8
S1133A10F0D3A942D046D946E2D301D8A042DFD39D
S1133A20BDE8F18F0000000080E200E00004060021
S1133A30005008400011010020A1070040420F007F
S1133A408C17002000E100E0045008400C500840AE
S1133A50F6170020305008400051084064500840D8
S1133A6000000101705008406C5008401850084094
S1133A705C50084070B5DFF85412DFF85462DFF888
S1133A80545207200860304601F0DDFE4FF47A718D
S1133A90B0FBF1F001460020DFF83C22801800233F
S1133AA0DFF8382201F0C6FFDFF8341208604EF662
S1133AB0602000F056F84042A862DFF82802FFF7C1
S1133AC06AFFC400304601F0BEFE810C6208002388
S1133AD012EB80305941224601F0ACFF286070BDE2
S1133AE010B5DFF8EC0101F0AEFE0446FFF70BFD64
S1133AF0E2084308DFF8F01103EBC212B2FBF0F066
S1133B00DFF8E821086000201268D20215D4DFF83B
S1133B10E021DFF8E03112681C68C2F38102521C14
S1133B2064051C6848BFD00004F0FF04FF2C04D0D7
S1133B305B685B0548BF00EBC200886010BD30B510
S1133B40DFF89C211268C117A2FB004502FB015556
S1133B50B4F17F4065F1FF31400E40EAC110803876
S1133B6030BD80B5FFF7EBFF0128B8BF002002BDD0
S1133B7010B500F02DF8618A00F00EF8DFF8781126
S1133B80086010BD10B500F023F8E18900F004F8D6
S1133B90DFF86811086010BD081A4FF47A714843C1
S1133BA06168A0F6C410401ADBE710B500F010F805
S1133BB0218A081A4FF47A7148436168A0F6C41048
S1133BC0401A2168401AFFF7BAFF4D49086010BD3A
S1133BD0044600F0EBBC10B5FFF7FAFFE18A081ABF
S1133BE04FF47A714843A0F6C410FFF7BAFF454971
S1133BF0086010BD80B5818A40684FF47A7202FB78
S1133C00010041490818FFF7ACFF4049086001BDB5
S1133C1080B580893C4A4FF47A7101FB0020FFF79C
S1133C20A0FF3B49086001BD80B5028900F00AF895
S1133C303849086001BD80B5428900F003F836496F
S1133C40086001BD4FF47A71514322B1006800F558
S1133C501C5010304118084683E743F2C8229142B1
S1133C60A8BF114641814089704710B5040017D0A0
S1133C70FFF7DAFF2046FFF7DEFF2046FFF7C8FF15
S1133C802046FFF775FF2046FFF78FFF2046FFF71A
S1133C9079FF2046FFF79FFF2046BDE81040A9E7C3
S1133CA010BD10B504000BD0FFF762FF2046FFF7EC
S1133CB069FF2046FFF779FF2046BDE810408AE7F8
S1133CC010BD42600160002070470000844008403D
S1133CD060510700901F002100093D0000127A0086
S1133CE0E417002040420F008C1F0021040008400C
S1133CF000200840A8000840A81F0021A01F0021A0
S1133D00A41F0021B41F002130DFFFFFAC1F0021DE
S1133D10981F00219C1F0021B01F0021A948406862
S1133D207047A848C0687047A7480068C0F30801F6
S1133D3001F00700C90811F0070F1CBF01F00702CA
S1133D405043C90818BF48437047A0480068000999
S1133D5000F0010080F00100704710B50446FFF741
S1133D60E3FF48B19A49B1FBF0F18C4222BF994973
S1133D70B1FBF0F0A04201D2002010BD012010BD23
S1133D802DE9F84C06468A46FFF7CEFF0446304636
S1133D90FFF7E3FF18B90E2100F0E0F90EE0012C63
S1133DA019BF10208C4910208C49086001F0EAFEEC
S1133DB08346002C18BFBBF1000F01D1022048E05C
S1133DC0804D6E6004FB06F7790BF8045A46002315
S1133DD0834E01F02FFE3060E2047068C5F80CA039
S1133DE0C0F31300ABFB0001002301F023FEA86025
S1133DF05A46A4FB0A01C90441EA5031C004002315
S1133E0001F018FE3061287818B9706A00F03F009C
S1133E10287074480068400618D57348B7FBF0F062
S1133E2000FB00F140F24D5251434CF20C6202FB94
S1133E3010106E49081803D12B2100F08FF90120CE
S1133E4029786B4A5143B1FBF0F0706200F01DF821
S1133E500020BDE8F28C70B506460C46654D286816
S1133E60000E00F00F000428F9D00A28F7D0401EF5
S1133E708041C00F0F2100F071F95F4806600CB15A
S1133E8080206860BDE87040FFE7FEB50FF2A01126
S1133E901CC968461CC04B4C58486168E26883687A
S1133EA003FB0211A2680068C0024CBF5018881AB4
S1133EB05349B0FBF1F169444D780121A940B0FBAD
S1133EC0F1F65048B6FBF0F068444778206920B911
S1133ED02B2100F043F90120206120694A4A06EBB6
S1133EE05001B1FBF0F043F6FF511160401E40EA6F
S1133EF00530464940EA87200860304600F001F862
S1133F00F7BD38B5044601F03DFE18B92B2100F089
S1133F1025F90120B4FBF0F100FB114264235A435C
S1133F20B2FBF0F000B9491E4808441E481C400882
S1133F30451E082C38BF082D02D255EA040003D1CF
S1133F401021002000F00AF931494FF4EE600860B6
S1133F502802304940EA0410086031BD19480121A3
S1133F604170006970B52C4C164D4FF4002121604E
S1133F7028612B490968B9B12A4908182A49B0FBB4
S1133F80F1F0C61E2948006800F00700F6B2B042FE
S1133F901CBF304602F0B1F8687828B11F494FF4CD
S1133FA0702008603004206070BD0649002048700D
S1133FB04FF40020184908607047174940200860F2
S1133FC070470000B40600203430084038410840EF
S1133FD000371789007DDAAC384108463841084477
S1133FE02C3008409440084000366E01502D1900D2
S1133FF0809698000440084038300840303008402B
S113400040BE4025401B5F13A4400844A44008461A
S113401030400844304008469440084694400844E0
S11340208009C64320A1070040420F0070300E40B3
S11340300000010202030303030000002DE9F14F15
S11340403B4882B006680298894602F091F8002540
S113405046F06C00B04207D136480068C00703D46C
S1134060354801F028FC08B1002047E0FEF73EF88F
S113407001904FF480473148DFF8C4A00668DAF8AD
S113408000803049304C4FF0605008604FF00060C1
S11340902E4908602420CAF8000004202C49086036
S11340A0A7664FF48050606207E002985A4669465A
S11340B0284401F053FB5D44ADB24D4512DA206E45
S11340C04004FCD52068C005F9D5A766DAF80400D9
S11340D00090A9EB05000428B4BFA9EB050B4FF031
S11340E0040BE2E71B4904200860CAF80080134867
S11340F00660A7660198FDF7FDFF4846BDE8FE8F00
S113410080B502216846FFF799FF022801D00020FC
S113411002BDBDF800004FF60401884204BF401CF4
S1134120ADF80000BDF800000B490860012002BD95
S1134130C8400E400C400840605107001860084019
S113414084000840186008440000084018600846CD
S113415000400846004008445850084010B50C463A
S113416040B90548046000F055FB2146BDE8104005
S113417002F002B810BD00BFF4060020002202F0D5
S113418005B875000B480C4A416D00680002001622
S1134190C9B2FF2918BF10F1010F19BF00EBD0708D
S11341A0401090210C204018907002205070232061
S11341B010707047B081E00F6D1F002170B50400CE
S11341C00D4613D0FFF7BBF8DFF88405DFF88465EC
S11341D0DFF88425002101602078022808D11068C6
S11341E080021AD503203071FF203070012070BD89
S11341F0012804D1106810F4400FF3D10DE0002819
S1134200F0D1DFF858050068116800F0010080F073
S1134210010001F480010843E4D106222146301D47
S113422001F09CFA002000F071F8A088294600F003
S1134230D4F93079022802D100F051F806E00128BF
S113424002D100F033F801E000F017F8002000F08C
S11342505DF8DFF80C150320086000F055FA002023
S113426070BD80B50622DFF8FC1401F077FA002057
S113427002BDDFF8E00400787047DFF8D404DFF80B
S1134280E824016811400160052241F0804141F0B9
S1134290040101600721DFF8D4044160DFF8D01481
S11342A04A60C0220260812008607047DFF8A004E1
S11342B0DFF8B42401681140016041F0030101609A
S11342C00721DFF8B004DFF8B02481600621116013
S11342D0DFF8A81441604FF4404101607047DFF8F3
S11342E07004DFF8842401681140016041F08041CA
S11342F001604FF4EE40DFF8881408604FF48A41FF
S1134300DFF8800441600121016070472DE9F04726
S11343100546C82000F0C3F8DFF838140C792346AA
S1134320FF20032B08BF087000F0B780012BDFF8D3
S11343303C24DFF81CC415D1082DA8BF072502DAD8
S1134340012D08BF0225DCF80060DFF83C04304092
S1134350CCF80000ECB240EA0460CCF80000042081
S1134360106595E0DCF80060DFF820743E40CCF87E
S1134370006046F47C5646F0C806CCF8006026007F
S113438004D1052D02D301262D1F00E00026DFF8FD
S1134390C8733F68FF4307F4FE1747F40057B7FAA2
S11343A087F7C7F11307C7EB4717EDB2FFB2BD425A
S11343B088BF3D4614B90EB1042400E000246419FA
S11343C0DFF8CC7325B9DFF8CCE3C7F800E004E0EC
S11343D04FF0E06EC7F800E06D1EEDB24FF01F0E17
S11343E0B5FBFEFE4FF001090EF1010A09FA0AF9C4
S11343F0A9F10109DCF800804FEA8939CEEB4E1EA1
S113440009F47F19A5EB0E0549EA08086D1CCCF8E0
S1134410008048EA0565CCF800504FF0FF3ED7F81D
S1134420009091F803A0BAF1000F844613D0A802BB
S1134430DFF86483022B18BF08F10808000EB0FAF5
S113444080F0C0F11F0E4FFA8EFEBEF1000F58BF70
S113445018F80EC0604629F07F43A5B215B9DFF8FD
S11344603C030EE01EF1010F18BFFF2805D020B158
S1134470000640F00400184303E023F0040040F079
S11344807F4038604FF480000EB1DFF8E422106002
S11344900C70087800F003F8E0B2BDE8F087DFF8AC
S11344A0B4120A79032A00D17047F0B5DFF8A042AC
S11344B0DFF8EC32226803EA02052A0A02F47F5686
S11344C00022256040F209735B28A4BFCF889F4275
S11344D004DAC92805DBCF889F4202DA43F6C8769E
S11344E00122354325601F28DFF8B862DFF8B8429F
S11344F0DFF8B852DFF8B8724FF0010CB9BFC6F854
S113450074C0C7F804C0C4F874C0C5F804C091F8F6
S113451002C0BCF1000F19D05128A4BFB1F806C0E5
S11345209C4504DA792811DBC88898420EDA4DF6E6
S1134530017030673860102002B11720000240F487
S113454040402067286008202060F0BD08203060CB
S1134550F0BD10B5FFF7F9FBDFF8584228B1206829
S1134560216800F00CF8206004E0A069A16900F063
S113457006F8A0614FF000708F49086010BD49082B
S113458020F47F1001F4FE1108437047704738B5DA
S1134590FFF7DBFB894C8A494FF40015002814BF50
S11345A02560A5614FF00060086031BD694800894D
S11345B0704710B5044600F0A7F86648814A417870
S11345C01268C2F38212914205D0C068214600F0FD
S11345D004F8012010BD002010BDF0B583B00C46D6
S11345E0002700B901205B4DE86076480068800927
S11345F000F007006870801E012801D9001F01D156
S1134600002610E02879E978022804D100290CBF9B
S11346109626C82607E0012808BF322603D00029C1
S113462014BFF026B426F9B2304600F048F8E96821
S1134630814202D37F1C102FF5D30FF2A812D2E9C6
S11346400001CDE90001781E0002009030040190C1
S1134650684600F008F800F011F828812046FFF7BA
S113466020FB2889FEBD4168574A116040F6FF715E
S1134670564A116000685649086070472DE9F041B8
S1134680544948684D684C680A680E680F6802F01F
S11346900F01C0B200F013F880462804C6F30311DA
S11346A0000E00F00CF800EB0805380A00F00F01CA
S11346B02002000E00F003F84019BDE8F08138B57F
S11346C004460D4601F05EFA6421B0FBF1F004FAF1
S11346D005F1491142F210725143B1FBF0F032BDC1
S11346E03D4B3E4A1A600204000502F4E02200F049
S11346F0F870104301F007020901104301F4F87146
S1134700084337490860704780B5FFF70DFB401E2A
S1134710082817D8DFE800F005160E0E1010131342
S113472013000C480079012819BF0421002004213A
S1134730042009E0002103E00321032004E00A210E
S1134740002001E00A210F20BDE80440C8E7000072
S1134750E81F0021C806002088410E40D481E00FE4
S113476058410844CC060020E8FFFFBF0841084434
S113477008410846044108440C410846C100400071
S113478024410844204108463F00C0E0FF3FC0E008
S1134790584108402C000007B083E00F04000007D4
S11347A037C0FFFF94400844944008461C41084623
S11347B01C410844004108401C4008400041084492
S11347C02040084418600840BC600840B8600844B1
S11347D0B8600846B860084050410844F701F70142
S11347E0504108460000000000000000002200E0E4
S11347F0521C8A420AD250F8223093FAA3F3B3FA35
S113480083F3202BF4D003EB42107047FFE74FF003
S1134810FF30704710B50B4C206800B101202621F1
S1134820FFF79CFC206810BD38B5044605480460B9
S11348300D46204600F04DF829462046BDE8344098
S113484000F014B8DC17002000F06BB808461146DD
S113485000F05DB80C3001F0C0BC0C3001F008BDB4
S11348600C3001F014BD00000120704710B504465F
S1134870FDF71CFD08B1002010BD204610BD70B529
S11348800D00044614BF012600261F213046FFF701
S113489065FC0020606225621F213046FFF75EFC44
S11348A04FF6FF76002001E0401CC0B2E968884260
S11348B008D2A968182242431144C989B142F3DAE3
S11348C00E00F1D13146204600F05FF8304670BD4D
S11348D0704710B50446FDF791FDA06A01009D499B
S11348E008BF9D48886010BD70B5154600F10C06E0
S11348F028000C4608BF984D3046FFF7B5FF08B1B5
S11349009448856021463046BDE87040B7E710B54D
S11349100C46FDF77DFD1CB1FDF78FFD0128FBD191
S113492010BDFDF78ABD70B5C26A0120002300E006
S11349305B1CD468A3420AD2946818255D432C44B6
S1134940E689B14224BF248A8C42F1D3002070BD91
S1134950F0B583B004460D46FFF75CFF0646694692
S11349602046FDF7ACFEB5F91220012747F6FF708B
S11349702479824207D09DF80010304601F08AFC69
S1134980A04238BF00273846FEBD2DE9F04F85B060
S11349904FF000098DF8019004466E4F8DF8009099
S11349A00D463868D7F804A00290CDF804A020463C
S11349B000F0C1F88046266AD4F824B000F0D2F89A
S11349C0002818BFD34505D1BBF1000F02D0A8B20F
S11349D040454BD0002E1CBFB068002801D0F068C1
S11349E008B903209CE0CA4601E00AF1010AF06814
S11349F0824518D2B068182101FB0AF10144A8B21B
S1134A00CA89904222BF088AAAB29042EDD30120FB
S1134A108DF800008B462046FFF79AFF0028E4D06B
S1134A2001208DF8010003A92046FDF748FE204629
S1134A30FDF74BFE82469DF80100C0B1217900F0DC
S1134A4073F8386860B3B04223D17A680AB35A4520
S1134A501FD1A9B2884506D000232046FDF737FEB2
S1134A605FEA000912D1C4F824B0658057E09DF8CC
S1134A70000048B1BBF912209DF80C10A4F10C0001
S1134A8001F008FC0146DAE7012049E000F04BF8A8
S1134A903FE0016821B13268914208BF416800D00B
S1134AA0316800F045F881465FEA090004D1DBF87B
S1134AB0001000F03DF881465FEA09000FD100F0D4
S1134AC051F810B13E60C7F804B0C4F824B0658052
S1134AD001235A46A9B22046FDF7F9FD81465FEA53
S1134AE0090005D1BA685946A4F10C00904716E0B4
S1134AF000F038F898B10298386001987860386806
S1134B0008B100F014F800F00EF8786838B100F03D
S1134B100EF87A68002341462046FDF7D8FD484642
S1134B2005B0BDE8F08F51462046FDF7B8BD0168D9
S1134B302046FDF7ADBF40887047002202714271E4
S1134B408271427209B10549122202720022C271B5
S1134B5001607047D8060020D1480000C6C8B8BE1E
S1134B60006A704720467FE630B583B00C30DDE93B
S1134B700645CDE90045FDF70FFC3EBD38B500F014
S1134B801BF800212561E160BDE83240FDF7B2BAAF
S1134B9038B500F011F82169E26829400D0018BF0A
S1134BA001251143E160FDF7A5FA15B100200421A8
S1134BB034BD0020002134BD04460D46FDF796BAED
S1134BC080B50C3001F00111FFF7D8FF002002BDC1
S1134BD0890001EB401000F18440026070478900B5
S1134BE001EB401000F184400068704700F18063DD
S1134BF000F1C060196002607047401CB0FA80F098
S1134C00C0F11F00704710B5DFF8F04712212046AD
S1134C10FFF7E5FF0028F9D12068000C00F003003D
S1134C2010BD0122DFF8001710B5884232BF002200
S1134C30DFF8F816884201D2144600E0022410215D
S1134C40DFF8EC06FFF7C4FFDFF8B407016821F0D2
S1134C50807141EA0461016010BDF0B5DFF8D4262B
S1134C60D36B03B1012341F67134D463DFF8945755
S1134C701468002405EBC406CFB23679BE4203D1D2
S1134C8055F83460864202D2641C052CF2D3052CFC
S1134C900EBF032005EBC4004079116821F0407178
S1134CA041EA00601060DBB20BB10020D063F0BDBC
S1134CB080B500F04AFFBDE804400021CDE7CCE711
S1134CC0C01C0F2801D2000770474FF07040704796
S1134CD038B50446002500F00BFADFF8DC26DFF8CF
S1134CE06016944208D0DFF8D426944206D0DFF848
S1134CF0D026944204D006E0086802E0486800E048
S1134D00886800F00700401E03281BD8DFE800F085
S1134D1002050C0800F04AFF04E000F04DFF01E03A
S1134D2000F047FF05460DE000F002FFDFF8D01663
S1134D300968090E01F001010122491C02FA01F17E
S1134D40B0FBF1F5284632BDDFF8BC164A68D2073D
S1134D5002D40A680242FCD1704780B500F0D8F84A
S1134D60401C02BD491E19E10000000070B5020A92
S1134D700C4602F00F020021521E092ADFF8545893
S1134D8014D8DFE802F005141313071619131C20B6
S1134D90DFF89C55C0F3043611B10846FFF7D4FF81
S1134DA0224631462846BDE8704011E770BD1035F3
S1134DB0F0E730350121EDE738351021EAE74035D9
S1134DC04FF48031E6E7DFF87858E3E770B5DFF8B1
S1134DD03C16DFF8E4250E68DFF8E015DFF820461E
S1134DE0012510F4781075D0B0F5003F30D0B0F53F
S1134DF0802F27D0B0F5002F6CD0B0F5202F2DD008
S1134E00B0F5402F5ED0B0F5602F3FD0B0F5901FC5
S1134E1053D0B0F5A01F2AD0B0F5B01F39D0B0F5EB
S1134E20D01F22D0B0F5E01F31D0B0F5001F44D020
S1134E30B0F5281F22D0B0F5301F31D0B0F5381F9F
S1134E404BD061E000F083FEE168C1F308210AE081
S1134E5000F07DFEA168C1F3082104E000F077FEB4
S1134E606169C1F30421491C24E0104627E010467F
S1134E70FFF72EFF216A01F00F0119E01046FFF73A
S1134E8027FF0646206AC0F30110C6403DE00846ED
S1134E9015E00846FFF71CFFA16AC1F3011107E002
S1134EA00846FFF715FFA16A090A01F00301091D6D
S1134EB005FA01F1B0FBF1F627E0DFF80405FFF78E
S1134EC007FF1FE0DFF87C0700F012F907281CD069
S1134ED0092819D100F03BFE14E0DFF86C0700F05C
S1134EE007F904280CD007280FD008280CD100F0AB
S1134EF02EFE2168C1F30421491C01FB00F604E0E5
S1134F0000F040FE064600E00026304670BD00007A
S1134F10030903F00F0301215B1E072BDFF8E024D4
S1134F203AD8DFE803F004060A0E10142339106897
S1134F3000E05069C0F3042070471068C0F30060BB
S1134F407047D06800E09068C0F308207047DFF82D
S1134F50FC36984204D0DFF8F836984204D01BE0BF
S1134F60106A00F00F0013E0106A09E0DFF8E4367D
S1134F70984204D0DFF8E036984204D00CE0906AFE
S1134F80C0F3011004E0906A000A00F00300001D61
S1134F9001FA00F0401E7047002070472DE9F042EE
S1134FA00E46010901F00F01491E0729DFF850548C
S1134FB0DFF8A846DFF8A876DFF86C9317D8DFE8A7
S1134FC001F00410171E243D6285FFF771FE484668
S1134FD0FFF727FE286820F4F85040EA06202860EE
S1134FE01DE0686920F4F85040EA062068617AE020
S1134FF0286820F0807040EA0660286073E0E86862
S1135000384040EA0620E8606DE0FFF751FE48466C
S1135010FFF707FEA868384040EA0620A86000F0C1
S113502087FD0546FFF7EFFD01462846FFF747FEDB
S11350302046FFF7CBFEBDE8F042F2E5DFF8241688
S1135040884247D0DFF80416884204D0DFF80016FF
S113505088420BD047E000F048F806460420FFF7EA
S113506073FE286A000946EA00100AE000F03DF8E1
S113507006460420FFF768FE286A20F0300040EA64
S1135080061028622FE0DFF8CC15884204D0DFF840
S1135090C81588420CD026E000F027F806464020C8
S11350A0FFF752FEA86A20F0300040EA06100BE039
S11350B000F01BF804464020FFF746FEA86A20F4DF
S11350C04070211F40EA0120A8620CE0DFF894152B
S11350D0884208D14FF48020FFF736FE286B800801
S11350E046EA80002863BDE8F082304685E500008A
S11350F0014601F00F010120491E0729DFF8682548
S113510049D8DFE801F0040F1348202E4836506ACE
S113511000F0070002283AD002D3042804D01CD39C
S11351200520704711690FE002207047516901F0B2
S11351300701491E03292FD8DFE801F00F020311EC
S1135140F2E706207047916901F00701012904D0B4
S11351500229E9D0042902D07047032070470A20AD
S11351607047116811F001010FD0012914D10920F1
S11351707047DFF8F814096801F03001102904D0F1
S1135180202904D0302904D0704707207047042018
S11351907047082070470020704700002DE9F8434D
S11351A0804600260324B8F1110F0F46A14612D100
S11351B0042F02D100F0E6FC08E0052F0BD1DFF844
S11351C0B004DFF8B0140068884204D306001CBFA2
S11351D0002100F020FD08F00F00401E0728DFF832
S11351E088540ED8DFE800F0043D438B406F8B7980
S11351F0022F4D4806D0032F29D0042F2AD0052F83
S11352002DD07CE004244FF00009012201214846FE
S113521000F0FEF8FFF74CFD36B11221DFF8DC0197
S1135220FFF7DDFC0028F8D16C6000F07AF8FFF796
S1135230F8FC00F07DFC0446FFF7E5FC014620463F
S1135240FFF73DFD002E5AD1BDE8F44374E04FF062
S11352500109DAE70224A146FFF7E3FCD5E70124BC
S1135260FAE705F1100404E005F1180401E005F182
S11352701404012F08D0022F09D0032F0ED0062FBB
S113528013D00A2F1DD03AE00020206037E001221D
S11352900121002000F0BCF80220F6E701220121E0
S11352A0012000F0B5F80120EFE700F041FCFFF722
S11352B0B8FC01220221DFF81C03FFF789FC03205C
S11352C0E3E70420E1E7072F02D0092F02D016E01C
S11352D0002000E00120286011E0012F06D0042FF7
S11352E016D0072F0DD0082F19D008E00020DFF8C2
S11352F07C130A6822F0300242EA00100860BDE81C
S1135300F18301220121042000F082F80120EEE75C
S113531001220121022000F07BF80220E7E70320AC
S1135320E5E7DFF8380351E50148E8010190D003CF
S113533000400E4004000E400121002000F06BBC30
S113534080400E4070B500F03DF80122002102209B
S113535000F05EF8217CDFF8285300200229296838
S113536008BF0120490840EA41002860082122784A
S11353702846FFF72DFCA088617A41EAC020A86086
S1135380EE68207AFFF79CFCE28806F07F6141EA30
S1135390C221A27A1143227A41EAC2110843E86089
S11353A0A17B607B090141EA0030E17B0843217B5A
S11353B040EA0140286170BD02001A0003001C008D
S11353C0050020000446112092E610B5FFF7FAFF0D
S11353D000220021002000F01BF82078617840EAC8
S11353E0C120A17840EA0160E178BDE8104040EABC
S11353F00122A449A448FFF7F9BB000004300E4081
S113540000410E4080A7000040410E4004070020E8
S11354102DE9F84F04288246904673D8DFE800F05F
S11354204E493F034400012602200127002400299D
S1135430DFF80892924D60D0BAF1020F02BF2868DB
S1135440C0F3011000284FF0000B0CD18F48006806
S11354502868C0074FF0010B05D5286820F03000FC
S113546040F010002860EE6300F04EF80028FBD0F6
S1135470B8F1000F46D0394600F047F80028FAD0BA
S1135480BAF1020F3ED1BBF1000F3BD02868C00730
S11354901BD501222021022000F0C0F819E00426C7
S11354A0082003270224C2E710262020052704240D
S11354B0BDE74026802007270624B8E74FF480760E
S11354C04FF4007009270824B1E70021022000F0FE
S11354D083F8022000F01CF8044601220021022077
S11354E0FFF796FF2146022000F02CF8EE633946C0
S11354F000F00BF80028FAD004E0E86300F004F8A8
S11355000028FBD1BDE8F18F21464846FFF767BB71
S1135510401E0328584912D8DFE800F0020C0608A0
S11355200869C0F308007047086800E0886800F064
S11355307F00704756480068C0F30A007047002097
S11355407047000070B5401E0D46032805F07F012A
S1135550494C4A4E3DD8DFE800F0022A101DC5F33D
S113556008051A213046FFF73AFB0028F9D12069D3
S1135570400A45EA4020206170BD0D46182130469E
S1135580FFF72DFB0028F9D12068C00945EAC010B7
S1135590206070BD0D4619213046FFF720FB00281E
S11355A0F9D1A068C00945EAC010A06070BD2348C5
S11355B00068606920F0300040F010006061C5F3BD
S11355C0C310FFF77DFB216A324A11402943084387
S11355D0206270BDB0400E4029480268C2F3011237
S11355E0002A18BF002907D0202902D0302903D06F
S11355F005E04FF4000103E04FF4400100E02649C8
S1135600C26E0A408A42FBD1490204D5C06F800AA7
S113561000F00100704701207047000010B5022817
S11356200AD10B0004D01D4B4FF480645C641960F4
S113563012B1BDE81040CFE7012010BD90400E40EC
S113564050410E4006000C0098002E006006140025
S113565060162A007017160070272C000025080019
S1135660FF00FEFF8009120070400E405C410E40B6
S113567014070020012D310110400E4040410E401E
S113568024400E407F1B000738400E403C300E4043
S11356909C400E4000F8FF0FFF33E10764400E40CA
S11356A080B5002845D00178122942D3DFF8A41030
S11356B042780A7082784A70C2788A700279CA7015
S11356C042790A71827902B101224A71C27902B126
S11356D001228A71027A02B10122CA71427A0A72E3
S11356E00278182A0FDB827C02B101224A72C27C42
S11356F08A72027DCA72437D827D43EA02228A81D4
S1135700C37D027E0EE0827A02B101224A72C27A1D
S11357108A72027BCA72437B827B43EA02228A81B9
S1135720C37B027C43EA0222CA81407C08740020C5
S113573002BD002000F002F8012002BD10F1010FAB
S113574007D0DFF814100A68120C80B240EA024055
S113575008607047201700203C41084062B38B0763
S113576008D0521E11F8013B00F8013B00F02480E0
S11357708B07F6D1830740F0208000BF103A07D38F
S113578030B4B1E83810103AA0E83810F9D230BC7F
S1135790530724BFB1E80810A0E8081044BF51F82B
S11357A0043B40F8043BD20724BF31F8022B20F815
S11357B0022B44BF0B7803707047083A07D3B1E853
S11357C00810083A40F8043B40F804CBF7D25307DA
S11357D0E4E700000B494A680B68920002F03C02BF
S11357E0C3F381131A4382700A6802F03F024270C5
S11357F08A68C96802F0F002C1F303111143017011
S113580070470000E0FF0FE0021202F00F02012ACD
S113581004D0042A0FD0052A0FD010E02E4AC0F37A
S113582004300123002903FA00F014BF02F1C0611F
S113583002F1806105E0294AF1E7294AEFE7FFF721
S113584095BA0860704710B510F47811254C0FD044
S1135850B1F5003F23D0B1F5802F12D0B1F5C02FA0
S113586015D0B1F5002F16D0B1F5202F1BD01EE0B6
S113587000F06DF92168C1F30421491CB0FBF1F07B
S113588010BD00F064F9E168C1F30821F5E700F008
S11358905EF92169F8E7BDE8104000F058B900F05E
S11358A056F9A168F0E700F052F96169E3E7BDE851
S11358B01040FFF78BBA021102F00F02062A0A49C0
S11358C002D0072A04D005E00868C0F30820704716
S11358D0886AFAE7FFF71CBB00400E40C8400E4040
S11358E0CC400E4000410E4010410E40890001EBB7
S11358F0401000F184400260704700F1806300F1C1
S1135900C0601960026070473023424A5843104413
S11359100C3000F1806006E030233E4A58431044C6
S11359200C3000F1C060012202FA01F101607047FD
S11359302DE9F04101F00308144603270F21082C38
S11359401D460CD2A60000FA06F2B1403248FFF719
S1135950D4FF08FA06F207FA06F130480DE0A4F184
S11359600802960000FA06F2B1402D48FFF7C5FF81
S113597008FA06F207FA06F12A48FFF7BEFF2A469C
S113598021462948294DFFF7B1FF069A21462846AA
S1135990FFF7ACFF0120A04028612146079A244864
S11359A0BDE8F041A2E7F8B50446164630000D46BE
S11359B01F4607D0002F204602D0FFF7ADFF01E0BD
S11359C0FFF7A2FF30210F22124811FB04F1082D2A
S11359D0084405D2AB00416800F015F8416006E0C8
S11359E0A5F108039B00816800F00DF881604EB9B1
S11359F0002F2946204602D0BDE8F4408CE7BDE8DC
S1135A00F44081E7F1BD9A4021EA020206FA03F16B
S1135A101143704700A0004000A4004008A40040C7
S1135A2004A400400CA4004010A4004014A40040AE
S1135A3028A400401B4213D1094236D12AB184461E
S1135A40B0FBF2F002FB10C2704700F08BBCFCD339
S1135A500022002370470B00020000210020704741
S1135A60904271EB030CF6D370B5B1FA81F4B3FA3A
S1135A7083F52C1BA340C4F1200532FA05F6334309
S1135A80A2405FF00046E64002E05B085FEA3202B3
S1135A90841A71EB030524BF204629467641F4D3CA
S1135AA002000B003000002170BD012ACFD970B56F
S1135AB0140C20D0B1FA81F4B2FA82F5C4F12004B6
S1135AC06419B4F12006D6D3B2405FF00044F44028
S1135AD0002502E052085FEA3303C61A71EB020E96
S1135AE024BF3046714664416D41F3D302000B007C
S1135AF02000290070BD0C46B1FBF2F102FB1145F8
S1135B002D0445EA1045B5FBF2F402FB145580B2AE
S1135B1040EA0545B5FBF2F002FB105240EA0440AE
S1135B2070BDEFF3108072B6704700B962B670476B
S1135B3080B500F00CF82749274A0968C1F3082109
S1135B40491CB0FBF1F0106002BD244870472448A2
S1135B50016801F00701022909D00AD3042901D000
S1135B6002D306E01F4905E04FF4004103E01E495B
S1135B7000E01E490968C06EC0F30420401CB1FB5C
S1135B80F0F07047184800687047174908601448D7
S1135B90006800F00700022808BFFFF7C9BF70477C
S1135BA01348016841F47001016070474FF40040EC
S1135BB070474FF47A7070470A4800687047094983
S1135BC008600748006800F00700042808BFFFF7D2
S1135BD0AFBF704708410E401007002000F0490293
S1135BE094400E400C0700200807002014070020F2
S1135BF088ED00E0890001EB401000F18440026070
S1135C007047890001EB401000F184400068704740
S1135C1012212846F5E738B50C46DFF804150D685F
S1135C2028B9FFF794FFC5F30421491C4843DFF862
S1135C30F414097831B1DFF8F014884202D2214615
S1135C40022001E021460020BDE83440F8B50446B6
S1135C50DFF8CC04DFF8C47400680D46FFF777FF63
S1135C60064600F01EF80028FBD13868000C00F04E
S1135C700300A042214613D0022C04BF3046FFF794
S1135C801EF81020C4F102018840F8601CB90021FC
S1135C903046FFF714F81DB100F003F80028FBD1DB
S1135CA0F1BD12213846ACE7DFF88004006803290F
S1135CB020D8DFE801F00205080B00F0FF0006E041
S1135CC0C0F3072003E0C0F3074000E0000E11001A
S1135CD00AD1000330F470410CD1DFF854140B687E
S1135CE023F4704303430B60012A0CD1000330F406
S1135CF0704101D000207047DFF838140A6822F49C
S1135D007042104308600120704770B500250024DC
S1135D1052EA0322DFF8206416D0521E0CD0FF3A58
S1135D2014D0521E0AD0FF3A12D0521E08D0FF3AA5
S1135D3014D0521E06D015E0B2680AE0B2680EE034
S1135D40F26806E0F2680AE0326802E0326806E0CF
S1135D507268C2F3072402F0FF0503E07268140EB0
S1135D60C2F3074505600C6070BDF8B50446DFF862
S1135D70CC53686AC007FCD4DFF8C463F06910F040
S1135D80030704D001220D212846FFF733FFA74261
S1135D9002D12CBB00221EE0032F18BF002F0FD10D
S1135DA0022C18BF012C0BD14FF40020B06000F07E
S1135DB018F8800040F00100F06130680003FCD561
S1135DC000F00FF844EA8000F061686AC007FCD470
S1135DD0220018BF01222846BDE8F8400D2109E73A
