S069000073616D706C652D617070732F626F6F746C6F616465722D7370692D657A73702F65667233326D673132703333326631303234676C3132352F626F6F746C6F616465722F52656C656173652F4578652F626F6F746C6F616465722D636F6D62696E65642E7333375B
S3150FE100000A4880F308880A4800470000000000000C
S3150FE1001000000000000000000000000000000000EA
S3150FE1002000000000000000006805E10F90040020C9
S3150FE100305105E10F6449654A01E021B1491E136992
S3150FE10040DB07FAD401B9B0E0506001201060106906
S3150FE1005010F0060F05D0410700D5A9E0800700D5BE
S3150FE10060A9E000207047F0B513460022002936D0EB
S3150FE10070554C564D8BB98B4231D250F8046BEE602D
S3150FE100805B1C08262E60264601E036B3761E2F69E5
S3150FE10090FF07FAD4002EEED11FE0EFF3108672B60A
S3150FE100A000230EE02F6907F01907102F08BF2F6005
S3150FE100B02F693F07F6D550F8047BEF605B1C1027DD
S3150FE100C02F608B42F4D306B962B6264601E026B11C
S3150FE100D0761E2869C007FAD40EB96FF002021046F0
S3150FE100E0F0BD2DE9F0479A46354B364F1C681B6834
S3150FE100F03B688046002043F001033B60950881464B
S3150FE101000C4602E0B14404EB8604A94517D208EB8D
S3150FE1011089063046FFF78EFF010014D1C6F30A00B8
S3150FE10120C0F500608608A5EB0900B04238BF064668
S3150FE10130524631462046FFF796FF0100E2D0396875
S3150FE10140490849003960BDE8F0871D491E4A0B6829
S3150FE1015009681C490B6843F001030B6088600120B5
S3150FE1016048604869400704D50868400840000860C0
S3150FE101701EE04869800704D508684008400008601A
S3150FE1018019E00220486001E022B1521E4869C0071A
S3150FE10190FAD422B9086840084000086005E008680B
S3150FE101A0400840000860002070476FF0020070477A
S3150FE101B04FF0FF3070476FF001007047002390E773
S3150FE101C004300E4008000E40809698000C000E4059
S3150FE101D0084841F6713181630168490849000160B8
S3150FE101E070470448016849084900016000218163AD
S3150FE101F07047000008000E4010B50446FFF7E8FF10
S3150FE102002046FFF7A2FF0446FFF7EBFF601E804192
S3150FE10210C00F10BD10B58408800782B005D508045C
S3150FE1022040F47F4040F0FF0003E041F07F4040F4AF
S3150FE102307F000090FFF7CCFF04226946A000FFF78D
S3150FE10240BDFF0446FFF7CDFF204616BD2DE9F04170
S3150FE1025004460E46154604F0010005F00101084378
S3150FE1026027D125B3A00708D536F8021B2046FFF79D
S3150FE10270D1FFF0B9A41CAD1E19D0AF08FFF7A8FF47
S3150FE10280BF003A4631462046FFF798FF8046FFF713
S3150FE10290A8FF3C197808B8F1000F06EB400608D124
S3150FE102A0E81B04D031882046FFF7B4FF08B90120D7
S3150FE102B000E00020BDE8F08170B5244801680869C7
S3150FE102C0CC68826AA2421DD304F510418A4219D243
S3150FE102D0111B45181E4A2968914213D1E9681D4E33
S3150FE102E04FF0FF3200F052F8B0420BD11A480068D6
S3150FE102F0AA688168914203D300F030F8B04201D089
S3150FE10300012070BD002070BDF8B510480068056981
S3150FE10310C468A86A001B2E18274604E03846FFF783
S3150FE103206BFF07F50067F26810198742F6D3294686
S3150FE103302046FFF78BFF0848006800F00FF80549E4
S3150FE10340884201D00020F2BD0120F2BD2800E10F65
S3150FE1035007B0CD5EE320BBDE2808E10FC1684FF0A1
S3150FE10360FF32204600F012B80A0A484000F0FF00BB
S3150FE1037008214308C00746BF034858401846491E9F
S3150FE10380F7D15040704700002083B8ED70B50446B1
S3150FE103900D461046002604E00146A05DFFF7E4FF97
S3150FE103A0761CAE42F8D370BD18481949006808604B
S3150FE103B040211848C16001684903FCD4FFF7A4FF47
S3150FE103C00028FBD040F2022000F02CF800BF80B5E8
S3150FE103D000F048F810490968B1F5803F0AD040F2BC
S3150FE103E00921884218BFB0F5007F03D1FFF764FFFB
S3150FE103F000B101BD09490A480860016881F308881F
S3150FE1040081F3098840688047FEE7000088000020F5
S3150FE104108C00002004300E4004500E4008ED00E041
S3150FE104200008E10F4FF0005108804FF20F004880AE
S3150FE104300948016821F4E06141F480610160BFF38D
S3150FE104404F8F0648064A016801F4E06111430160E6
S3150FE10450BFF34F8F00BFFDE700500E400CED00E0FC
S3150FE104600400FA054FF000504FF20F024188914216
S3150FE1047001D100887047002904BF0088012802D105
S3150FE1048040F2022070474FF40070704710B450F8F5
S3150FE10490041B79B10268436802440830DC0744BFA4
S3150FE104A0A9F10104E31852F8044B43F8044B091F71
S3150FE104B0F9D1ECE710BC704710B50749794418310B
S3150FE104C0064C7C44163404E00A68081D114488473B
S3150FE104D00146A142F8D110BD2C0000003C000000FE
S3150FE104E04EF68851CEF20001086840F470000860BC
S3150FE104F0BFF34F8FBFF36F8F4FF00070E1EE100A2E
S3150FE105007047000089FFFFFF100000008000000028
S3150FE1051080000020000000000120C046002801D025
S3150FE10520FFF7CAFF0020AFF30080FFF73DFF00F0B2
S3150FE1053000F800F001B800000746384600F002F86F
S3150FE10540FBE700002021090326311820ABBEF9E7AE
S3150FE105500248804702488047024800477D05E10F80
S3150FE10560CF03E10F9D05E10FAD1007B001000000CC
S3150FE10570000004010008E10F008000000248016855
S3150FE1058041F470010160704788ED00E000F0490227
S3150FE1059000800000C0EA2101C0EA2101AFF300802B
S30D0FE105A0FFF79EFFFFF7B8FF1D
S3150FE10800D8100020E136E10F1320E10F8130E10F1F
S3150FE108107720E10F5B26E10F6326E10F0000000071
S3150FE1082000000000000000004008E10FAF2FE10FCC
S3150FE10830E32FE10F000000007736E10F9336E10F6A
S3150FE1084007B0CD5E0100000000000401303000006A
S3150FE108500000000000001000F0001000D936E10F93
S3150FE10860DD36E10FA732E10FFF36E10F2D37E10F4D
S3150FE10870000000000A0A484000F0FF000821430883
S3150FE10880C00746BF034858401846491EF7D15040A6
S3150FE10890704700002083B8ED70B504460D4610464B
S3150FE108A0002604E00146A05DFFF7E4FF761CAE42A9
S3150FE108B0F8D370BD82B000EB40000021CDE9000115
S3150FE108C0DDE90001421E61F10003CDE900230022BB
S3150FE108D09142F5D19042F3D102B070471FB5264848
S3150FE108E0016841F4801101606C462448016841F0CA
S3150FE108F00101016000F054F84FF47A71B0FBF1F0A9
S3150FE109001F49800A48600FF288000FC884E80F007C
S3150FE109100A208DF8020069461A4800F081F81FBDDA
S3150FE1092030B5194A164C1369656805FB00306080CE
S3150FE109309BB260889842AD41ED0F257011B11169F7
S3150FE109408142FCD101201060506030BD0C490F4847
S3150FE109500A78002A026803D0D20705D4002070472F
S3150FE10960D20701D5012070478069498888428041C5
S3150FE10970C043C00F7047000000400E40C0400E401C
S3150FE109804C14002000800140148001400C8001408E
S3150FE109900100000000000000000000000000000060
S3150FE109A0104911480A6802F00702022A09D00AD350
S3150FE109B0042A01D002D306E0406805E04FF4004077
S3150FE109C002E0006800E08068C96EC1F30421491CAA
S3150FE109D0B0FBF1F070470548016841F47001016021
S3150FE109E07047000094400E40C400002088ED00E0FF
S3150FE109F0074988421CBF0749884205D00649884204
S3150FE10A001CBF0649884201D101207047002070477B
S3150FE10A10008001400084014000A0014000A4014094
S3150FE10A202DE9F84304460D46FFF7E2FF287801006A
S3150FE10A3004BF0221616000216162697801B1402141
S3150FE10A406A7A02B18022AB7A03B12023EE7A06B13C
S3150FE10A50102695F8049095F805C095F80CE0EF7817
S3150FE10A6095F80280B9F1000F18BF4FF40059BCF1A8
S3150FE10A70000F18BF4FF0805CBEF1000F18BF4FF0AB
S3150FE10A80080E3F0447EA0868AF7948EA8728EF7905
S3150FE10A902D7A48EA07273D43294311431943314349
S3150FE10AA049EA01014CEA01014EEA0101216008B16F
S3150FE10AB001206060BDE8F18380B5AB48016841F480
S3150FE10AC080110160A948016841F0080101600168E0
S3150FE10AD041F0200101600121A54800F0A1F900F0E4
S3150FE10AE045F80123042200F06AF8012301220621C9
S3150FE10AF000F066F801230122082100F061F80123D5
S3150FE10B000122092100F05CF89A484FF00131816723
S3150FE10B1040F201420E2141670168114301604FF432
S3150FE10B206022052141604521C1604FF0E0619248A5
S3150FE10B30016000210162C1624163C1668F490A60AA
S3150FE10B4000228A604A608E4A0A6300228A634A63F8
S3150FE10B500FF26C22920892008A610121C163022091
S3150FE10B6088490860BDE80140FFF7B8BE80B50023AC
S3150FE10B70002200F024F800230022062100F020F8DD
S3150FE10B8000230022082100F01BF80023002209218F
S3150FE10B9000F016F8774840F6AA61C16000210160BE
S3150FE10BA0416641F205014160002181604161C16405
S3150FE10BB075498164002141678167C16701BD0721DD
S3150FE10BC0002000F079B938B50D46322D044602D32F
S3150FE10BD041F2031032BD00F022F810B141F20610D6
S3150FE10BE032BD6A4902E0225C0A54401CA842FAD39C
S3150FE10BF04A6B681E60F30E124A6301F134008008F6
S3150FE10C0063498000086002206249086000F007F836
S3150FE10C100028FBD0012000F019F8002032BD5F4813
S3150FE10C205D49006880070DD5332002465C480068B0
S3150FE10C300B68C0F30A10C3F301431818401C824234
S3150FE10C40F3D170470868C0F30140704718B15549B1
S3150FE10C50012008607047544901200860002165E0D2
S3150FE10C605249002814BF8020402008607047504841
S3150FE10C70006840F20111884208BF002006D040F219
S3150FE10C80022188420EBF96204A49401A4A4909680D
S3150FE10C90814201D10020704701D2401A7047C1F558
S3150FE10CA0967140187047F8B504460E4615467BB166
S3150FE10CB0069F1FB100213846FFF732FEFFF7D7FF38
S3150FE10CC0B04205D2002FF9D0FFF740FE0028F5D04C
S3150FE10CD0FFF7CDFFB04202D2FFF7C9FF064600206C
S3150FE10CE02849354A334B03E00027176002270F6087
S3150FE10CF0B0420ED2176813F807C004F800C0401CC3
S3150FE10D007F1CB7F5967F1760EED0962FF0D10127AE
S3150FE10D10EDE705B128600020F2BD80B50021009115
S3150FE10D20012300220121FFF7BEFF02BD1F4A234B1C
S3150FE10D3020B1022018604FF48060106091B101205C
S3150FE10D4018600FF27C0113481B4B89088900C165B6
S3150FE10D50002119604FF40061116001210160022049
S3150FE10D60084908607047000000400E40B0400E4051
S3150FE10D70006204000008014000200E4080200E4072
S3150FE10D8001000E0008200E46F9FF01008000002049
S3150FE10D90C8200E403C200E401008014020200E4096
S3150FE10DA0BC200E4074080146740801440C0801404A
S3150FE10DB094200E40181200205414002020200E44D7
S3150FE10DC0500910031C0801401812002013000000FF
S3150FE10DD009000000000100000202000013000000FC
S3150FE10DE0500910031C080140AE1200201300000049
S3150FE10DF0090000000002000001010000D3FFFFFF20
S3150FE10E00890001EB401000F1844002607047DFF882
S3150FE10E1074104A68D20702D40A680242FCD17047BD
S3150FE10E2070B5020A0C4602F00F020021521E092A82
S3150FE10E30DFF8545014D8DFE802F005141313071640
S3150FE10E4019131C20DFF83850C0F3043611B10846E8
S3150FE10E50FFF7DDFF224631462846BDE87040CFE772
S3150FE10E6070BD1035F0E730350121EDE7383510214A
S3150FE10E70EAE740354FF48031E6E7DFF81050E3E774
S3150FE10E8000400E4040410E40B0400E4050410E40F2
S3150FE10E903023254A584310440C3000F1806006E0B8
S3150FE10EA03023214A584310440C3000F1C06001222F
S3150FE10EB002FA01F101607047F8B5044616463000B3
S3150FE10EC00D461F4607D0002F204602D0FFF7E8FF59
S3150FE10ED001E0FFF7DDFF30210F22134811FB04F18B
S3150FE10EE0082D084405D2AB00416800F015F84160C2
S3150FE10EF006E0A5F108039B00816800F00DF881601B
S3150FE10F004EB9002F2946204602D0BDE8F440C7E787
S3150FE10F10BDE8F440BCE7F1BD9A4021EA020206FAC8
S3150FE10F2003F111437047000000A00040890001EB77
S3150FE10F30401000F18440006870473023DFF85C24ED
S3150FE10F40584310441C30F1E73023DFF8502458435F
S3150FE10F5010440C3000F1806007E03023DFF83C24C9
S3150FE10F60584310440C3000F1C060012202FA01F13E
S3150FE10F700160704780B5DFF82804016841F48011FC
S3150FE10F8001600123DFF81C04016841F008010160EB
S3150FE10F90042200F045F9012302220B2100F041F969
S3150FE10FA0DFF80404002101704170C170BDE8014012
S3150FE10FB0FFF782BD80B500F0D3F900F01FF9DFF836
S3150FE10FC0E803052101700022DFF8E0130A70092218
S3150FE10FD04A70A7228A7003220A6200214171C17009
S3150FE10FE001210171002181708171816000F002FAA6
S3150FE10FF0002002BD2DE9FC47DFF8AC53DFF8B06303
S3150FE11000202306F1D40206F18C0105F10C0000272D
S3150FE1101000F090FBB946DFF89CA3DFF8904341F26D
S3150FE110208838287805284ED8DFE800F0033E831884
S3150FE11030333340F20270DCE0822000E0C120207001
S3150FE11040A72060700220206206E0042000F07AF902
S3150FE1105002E01920FFF72EFC032028702046216AB3
S3150FE11060FFF7B1FD50B900F0C9F8FFF7D8FD216AD6
S3150FE110708842FAD200F0A4F90020287100F0BBF8FB
S3150FE110800028FBD00020FFF7E1FDE878B0B104209E
S3150FE11090287000F0B0F80028FBD00A20FFF70AFC11
S3150FE110A000F0ACF80120287000F0A5F80028FBD07D
S3150FE110B00120FFF7D5FDA87978B114E0687849EA00
S3150FE110C0000701202870F8B20028AAD0B9F1000F65
S3150FE110D000F0848040F204708BE000214FF47A70C7
S3150FE110E003E00D2817D200214046FFF719FC00F067
S3150FE110F082F8D0B100F034F9FFF728FCE97881F0F6
S3150FE1110001010842F3D0A868A979401C0029A8601B
S3150FE11110E7D13D28E2D318208AF800000120CAF86A
S3150FE111202000E870814604202870287928B3022030
S3150FE1113028700020FFF794FD01210020FFF7F6FD4F
S3150FE111402879002885D1F0780A283FF475AF0B2866
S3150FE111503FF474AFFD2818BFFE287FF476AFFD206C
S3150FE111602070A720E07001202062304600F05CF885
S3150FE11170A070206A6070C01C65E7FF20F07002E086
S3150FE11180F01CFFF7CAFDF078FF28F9D000F018F947
S3150FE11190301DFFF7C2FDF0783779FD2818BFFE281D
S3150FE111A018D1862FA4BF012000F0CCF84FF4FA70C6
S3150FE111B00090012301AA791C701DFFF774FD18B188
S3150FE111C0022000F0BFF8B2E7019830440079A72872
S3150FE111D002D1ACE7A72FAAD00320F2E7A87810B186
S3150FE111E040F2057005E06878002814BF002040F250
S3150FE111F00370BDE8F687092100209EE60A21032048
S3150FE11200A2E680B5FFF7B2FC0023002200F008F852
S3150FE11210BDE80050002300220B210320FFF74CBE4F
S3150FE112200A210320FFF748BEF0B5064683B03079B1
S3150FE11230604C5D4D012804BF717951291DD1E878C4
S3150FE1124070B1266A594F32462146B81C00F000FEAE
S3150FE11250B919A72088703E620020E870B878FEBD04
S3150FE112601A220FF26411204600F002FE1A202062C4
S3150FE112700120E87068711A20FEBD697909B94D2020
S3150FE11280FEBD7179012903D1852801D02620FEBD46
S3150FE1129001A9701D00F0B3F807469DF80400207010
S3150FE112A09DF80400062806D100F00AF960700020C7
S3150FE112B0A070032000E0012020620120E87097B1C1
S3150FE112C040F601103F1A25D07F1E25D07F1E35D05F
S3150FE112D07F1E23D07F1E25D07F1E21D07F1E23D0D8
S3150FE112E07F1E29D02CE0A8710020A86080230FF281
S3150FE112F0F400314F009006F10802394605F10C0072
S3150FE1130000F054FAC0B1B878B0B9182020700120B6
S3150FE11310206215E02420FEBD2320FEBD2220FEBD66
S3150FE113202720FEBD2520FEBD0120687000F0C8F81C
S3150FE11330401C60701720FEBD1920FEBD2120FEBDA9
S3150FE113401820FEBD18490A794AB9184A10700020CB
S3150FE113505070A7209070032010620120087170472A
S3150FE1136080B50A211548FFF7E1FDB0B10B21032046
S3150FE11370FFF7E3FD88B9FFF741FF0B210320FFF7E5
S3150FE11380DCFD0028F9D00A20FFF794FA00F018F8EF
S3150FE11390BDE802401920FFF78DBA01BD00A000405C
S3150FE113A000400E40B0400E4044130020E0130020F1
S3150FE113B0D810002004140020281400209CA000401F
S3150FE113C00A210320C9E500005201FFFF00000000DA
S3150FE113D000000000000000000000000000041809F2
S3150FE113E001040000000000005132E10F000000008F
S3150FE113F0000000003448002101704170704770B55C
S3150FE1140004460D462078012808D003284ED004283B
S3150FE1141047D0182818BF432848D04CE02A4E707899
S3150FE11420002860780CD1012805D170706078A17819
S3150FE114300818FF2815D01520287040F6041070BD46
S3150FE114403178884204D10620287040F6061070BD27
S3150FE11450491CC9B28842E9D01520287040F605101B
S3150FE1146070BD00228021E01C00F040FD04F18302F3
S3150FE11470010A1378994204D01520287040F602101C
S3150FE1148070BD517800F0FF00884204D01520287016
S3150FE1149040F6011070BD607830700620287000208C
S3150FE114A070BD0620287040F6071070BD1820287011
S3150FE114B040F6081070BD1820287040F6031070BD75
S3150FE114C00148007870470000581400202DE9F843D1
S3150FE114D01F460446786800280D46164646D000F0AA
S3150FE114E013FD216E001D721882421DD300F1180300
S3150FE114F0994219D28446884238BF8C469A4288BFB0
S3150FE115001A46ACEB0101ACEB000005EB0108A2EBCF
S3150FE115100C0920444A464146683000F099FCFF2207
S3150FE115204946404600F004FD00F0F2FC216E001D35
S3150FE11530884222BF7218031D9A420DD3411A05EB59
S3150FE1154001080422414604F1800000F081FCFF22EC
S3150FE115500421404600F0ECFC29463B68206E7D688D
S3150FE115603246A847206E301820660020BDE8F28388
S3150FE1157030B54B688C689C4206D200F140021B1BCA
S3150FE1158014781B19412B01D3002030BD5378147801
S3150FE115908D68E3180C68645D03F03F03C4548B68F0
S3150FE115A05B1C8B6013785B1C13704C688B68A342D2
S3150FE115B0ECD3012030BD90F840004A6889681018D5
S3150FE115C0401A70472DE9F0410F46144698460546F5
S3150FE115D0FFF7F1FF404505F1400607D239462846A8
S3150FE115E0FFF7C6FF00284DD0002049E000200BE0B1
S3150FE115F07178695C2154401C7178491C01F03F01F7
S3150FE1160071703178491E3170317809B14045EFD3A8
S3150FE11610B9687A68914238BF404507D23A68515C5A
S3150FE116202154401CB968491CB960F1E7404529D1FD
S3150FE11630B26C41462046FFF72FF9B064069820B108
S3150FE11640F0684246214600F0B0FC079800281CBF1F
S3150FE11650F078002805D0B06843462246214600F0CF
S3150FE11660C8FCF07838B1F069B1694044F06188425D
S3150FE1167024BF0020F07070694044706141F20300AD
S3150FE11680BDE8F0811220B07141F20200F8E7F0B542
S3150FE1169085B004460020019000901546082302AA62
S3150FE116A000F0B7FB41F20306B0423CD194F8430098
S3150FE116B004F1480738B100F038F83868082302AA70
S3150FE116C002A900F096FC9DF80A109DF80B0009049B
S3150FE116D041EA00609DF8091040EA01209DF80810E3
S3150FE116E0084328609DF80E209DF80F10120442EA78
S3150FE116F001619DF80D2041EA02219DF80C2011436D
S3150FE11700696094F8431049B9DFF8A41688421CBF03
S3150FE11710DFF8A016884201D000F007F86868B860D4
S3150FE117200020F860304605B0F0BD7868082202A9BE
S3150FE1173000F03BBCF8B5044604F140070020B87150
S3150FE1174038707870F870787138710D4603F02000B3
S3150FE11750B87016464FF0FF30B864FF2200203862AA
S3150FE117607862182104F1680000F0E2FBFF22042100
S3150FE1177004F1800000F0DCFBFF22042104F1840078
S3150FE1178000F0D6FBBD60FE600020C04600B11DB182
S3150FE117900020C04618B116B941F20B00F2BD16B1E1
S3150FE117A0F86800F0F8FB0020F2BD00002DE9FA4FD2
S3150FE117B099B0044603A80021002300252AC01A98F0
S3150FE117C0DDF890A00392049004F1420604F1480774
S3150FE117D041F203080DF120090EE000F005FB40454B
S3150FE117E02CD10798DFF8D015B8600020F86006987D
S3150FE117F0884270D10220307105981A99884280F09B
S3150FE11800D28230791228F7D8DFE810F014001500EC
S3150FE11810C900430117016501FB0058016501530139
S3150FE11820650153012B02CA029102A702AA02D30153
S3150FE11830CA02E1E7D1E700F0D7FA404540F0B482BA
S3150FE11840B07820B10698DFF86C15884243E030781E
S3150FE11850C0074BD57078002848D10698DFF85815A0
S3150FE1186088421CBFDFF85415884222D0DFF85015A5
S3150FE1187088421CBFDFF84C1588421AD0DFF84815AD
S3150FE11880884222D0DFF82815884263D0DFF83C156D
S3150FE11890884213D0DFF8381588420DD0DFF81415DA
S3150FE118A0884215D0DFF82C1588421CBFDFF82815C2
S3150FE118B0884200F0EE8011E00E209CE70F20307198
S3150FE118C0B86838610020786196E71220307163E0DD
S3150FE118D00020C046002840F0DC8036E0122030714F
S3150FE118E006A80020C046002856D0AAE10698DFF8E0
S3150FE118F0CC1488421AD0DFF8C814884214D0DFF826
S3150FE11900C414884214D0DFF8A81488421FD0DFF838
S3150FE11910A414884212D0DFF8BC1488420CD0DFF849
S3150FE11920B814884206D017E0042064E7062062E780
S3150FE11930072060E709205EE70B205CE70020C04641
S3150FE11940002804BF70780028C5D10C2053E77078C2
S3150FE119500028C0D110204EE706A80020C046A0B14E
S3150FE11960069878641120307106980020C046054626
S3150FE1197030788006A8D5002DA6D069680800A3D0D7
S3150FE119802046884700289FD05BE11220307170789E
S3150FE1199010B141F2040007E241F2080004E2F868EF
S3150FE119A0082831D200200190082300F041FA404582
S3150FE119B0F4D199F803000006B0F1407F04D012206C
S3150FE119C0307141F20900EFE199F8050099F8041039
S3150FE119D041EA00200290C00704D5307840F00100BB
S3150FE119E0307002E00020C04630B90020C046002822
S3150FE119F0D5D00298C005D2D41220307141F20A0037
S3150FE11A00D2E1BB68F868984280F0C8810120019065
S3150FE11A10009000F0FCF94045F2D119981C2208A973
S3150FE11A20083000F025FA199901204870E9E70520F9
S3150FE11A3030710120F0700020F861F8680828BFF4D2
S3150FE11A40DBAE012001900090082300F0E0F940455C
S3150FE11A50D6D11999DFF884230120087000F0C8F96F
S3150FE11A6019994860DFF87803006801689142DED181
S3150FE11A7099F8062099F80710C068120442EA016145
S3150FE11A8099F8052041EA022199F804201143814290
S3150FE11A90CDD012203071D4E0012000F0C1F94045DC
S3150FE11AA0AED100F0A5F90290B868052824BF0298D7
S3150FE11AB0B861F8680428EFD30A209CE60020F861A4
S3150FE11AC0082098E6DAF80030F8695A4608A9E0479F
S3150FE11AD0F8695844F861B868F968814294D2A0EB85
S3150FE11AE0010BBBF1040F03A9204604D3FFF763FDF6
S3150FE11AF0042804D26CE0FFF75EFD584568D3BBF1CD
S3150FE11B00410F28BF4FF0400B00F086F9584502D23E
S3150FE11B1000F082F98346BBF1040F24BF4FEA9B0025
S3150FE11B204FEA800B00F08BF9404540F03D8130796B
S3150FE11B30072804D1DAF808C0BCF1000FC2D1CBF106
S3150FE11B400400BBF1040F009007D2014608A8FF225B
S3150FE11B50584400F0EDF90098834430790A2806D10C
S3150FE11B6053465A4608A92046FFF7B0FCB3E70528C6
S3150FE11B70B1D1DAF80C000028ADD0F869052812D2F8
S3150FE11B800BEB000107290ED308A9091D081A0090CE
S3150FE11B900146042204F1840000F05AF90098FF226D
S3150FE11BA0042100F0C5F9DAF80030F869DAF80CC06B
S3150FE11BB08BE73078800634D5786C0020C046050077
S3150FE11BC02FD13EE04FF0010B00F026F9584504D234
S3150FE11BD003A92046FFF7CCFCE5E0B868F968A0EB6E
S3150FE11BE0010BBBF1410F28BF4FF0400B00F014F989
S3150FE11BF0834502D300F010F9834600F020F9404502
S3150FE11C0021D1307880060CD5DDB1D5F808C0BCF10D
S3150FE11C10000F16D053465A4608A92046E04700283A
S3150FE11C2011D1F868B968884230780DD28006C9D5E6
S3150FE11C30002DC7D029690800C4D0204688478346BE
S3150FE11C40C2E741F20100AFE0800609D5002D07D0CA
S3150FE11C50EA68100004D05146204690470028F2D199
S3150FE11C609CE0002000F0DCF8404507D1386C5D4977
S3150FE11C70884204D01220307141F2050094E0002031
S3150FE11C80C04618B919990120C87003E01998C078B0
S3150FE11C90002846D0F07850B1DAF80C50280006D07B
S3150FE11CA0DAF80030042204F184010420A847B86968
S3150FE11CB000281CBFDAF80400002832D04FF0FF30BD
S3150FE11CC0029004F180050422294602A800F0A2F948
S3150FE11CD050B100F01DF938B12946DAF80030DAF8DB
S3150FE11CE004500422001DA847042204F1680102A84A
S3150FE11CF000F090F9A8B100F007F9DAF80030DAF858
S3150FE11D000450142204F16C010830A84700F0FCF8E6
S3150FE11D1004F16801DAF80030DAF804400422001D14
S3150FE11D20A0471999012088700D2030713BE0F868C2
S3150FE11D30102833D200200190102300F079F84045A6
S3150FE11D4032D100F09DF9802100900191012338688D
S3150FE11D5009AA022100F02EF9E9E7012070701DE0D2
S3150FE11D60B078D8B901900090402300F050F8404583
S3150FE11D701AD1786800F01BF9786810AA08A900F063
S3150FE11D8087F938B119990020C8701220307141F2E4
S3150FE11D90060009E019990120C870B07001202AE503
S3150FE11DA041F2070000E000201BB0BDE8F08F000014
S3150FE11DB0F70A0AF7FC0404FCEB17A603F40A0AF484
S3150FE11DC0F50909F5F60808F6F70909F7F90707F925
S3150FE11DD0FA0606FAFD0303FDFE0101FEAD1007B09B
S3150FE11DE02800E10FE320BBDE06AA03A920464EE455
S3150FE11DF099F8021099F80300090441EA006099F88D
S3150FE11E00011040EA01209DF820100843704708AA07
S3150FE11E1003A92046FFF7D6BB03A92046FFF7CBBBA5
S3150FE11E2001900090042308AA03A92046FFF7CABB35
S3150FE11E300120009008AA03A92046FFF7C3BB0120A2
S3150FE11E40019000905B4608AA03A92046FFF7BABBAB
S3150FE11E5062B38B0708D0521E11F8013B00F8013B24
S3150FE11E6000F024808B07F6D1830740F0208000BF76
S3150FE11E70103A07D330B4B1E83810103AA0E8381069
S3150FE11E80F9D230BC530724BFB1E80810A0E8081017
S3150FE11E9044BF51F8043B40F8043BD20724BF31F865
S3150FE11EA0022B20F8022B44BF0B7803707047083AD8
S3150FE11EB007D3B1E80810083A40F8043B40F804CBE1
S3150FE11EC0F7D25307E4E70A46090241EA12214840ED
S3150FE11ED0C0F30311484080EA003041010206C9B25E
S3150FE11EE0D20E41EA0221484080B2704770B50446EE
S3150FE11EF00D461046002604E00146A05DFFF7E3FF1D
S3150FE11F00761CAE42F8D370BD06480068006970478B
S3150FE11F100548064A00680168914201D10069704798
S3150FE11F20002070472808E10F2800E10FAD1007B038
S3150FE11F3062F30F2262F31F42401810F0030308D039
S3150FE11F40C91A1FD3DB0748BF00F8012D28BF20F8B8
S3150FE11F50022D130030B414461546103928BF20E977
S3150FE11F603C00FAD8490728BF20E90C0048BF40F8E2
S3150FE11F70042D890028BF20F8022D48BF00F8012D56
S3150FE11F8030BC7047C91818BF00F8012DCB0728BF21
S3150FE11F9000F8012D704710B5044600F04BF92046C5
S3150FE11FA0BDE81040002100F04BB900F05FB90146E2
S3150FE11FB000F080B9F8B505460E4617461C4600F007
S3150FE11FC082FA079A0699284600F083FA05F124006A
S3150FE11FD00021016006750C22394605F13900FFF73C
S3150FE11FE037FF05F14500210C01708470210A41701C
S3150FE11FF0F1BD10B584B01C460191029200F12801A2
S3150FE12000009100F1380300F12402214600F07EFA37
S3150FE120101FBDFEE70300002013F0030F09D0521E88
S3150FE1202022BF13F8010B11F801CBB0EB0C00F3D083
S3150FE120307047121F22BF53F8040B51F804CB6045CA
S3150FE12040F7D0121D0AD200BA9CFA8CFCB0EB0C0049
S3150FE1205038BF6FF0000088BF01207047521E22BFC4
S3150FE1206013F8010B11F801CBB0EB0C00F6D0521CB3
S3150FE1207008BF10467047FEE70248704702487047AF
S3150FE12080024870474A43E00F6A43E00F8642E00F8A
S3150FE1209070B504000D4618BF002DA2B0164600D04C
S3150FE120A016B940F2016023E001211248FEF7B8FEAE
S3150FE120B0402111A800F0D2FAFFF7DEFF014611A881
S3150FE120C000F0B8FDFFF7DAFF014619A800F0B2FDFF
S3150FE120D0294601A800F0AEFD314609A800F0AAFD98
S3150FE120E001A8009011AB20222146034800F0B1FD73
S3150FE120F022B070BD0005080000000F4010B54A6818
S3150FE121008B68CC680968016002600360046010BDEA
S3150FE1211010B502680368046800680A608C604B605A
S3150FE12120C86010BD38B504460D46FFF7E7FF05F168
S3150FE1213010012046FFF7E2FF05F120012046FFF7E8
S3150FE12140DDFF05F130012046BDE83440D6E72DE944
S3150FE12150F04F91B08046894616461C4600F0F7FED1
S3150FE12160074614B1012C02D003E0002000E0042061
S3150FE12170386000207860F864786820F44060786011
S3150FE1218000203863786300F00BFF04464FF482704A
S3150FE121903D1841462846FFF7B1FF08F110012846E1
S3150FE121A0FFF7ACFF204600F0FFFE2048386500251B
S3150FE121B04FF4D27007EB000A0CE000F0F1FE044693
S3150FE121C059465046FFF7AEFF204600F0EDFE1848A0
S3150FE121D038656D1CB54211D209EB851B1BF0030067
S3150FE121E0EBD0402259466846FFF732FE00F0D8FEA3
S3150FE121F0044669465046FFF795FFE5E700F0D0FE46
S3150FE1220004464FF480703E1841463046FFF780FF93
S3150FE1221008F110013046FFF77BFF204600F0C4FEC0
S3150FE12220384600F09DFE11B0BDE8F08F888AC801EF
S3150FE12230070D810100281CBF6C2100F00FBA704712
S3150FE1224000F1200200231360536031B1012180F8C0
S3150FE12250681020220FF2541104E080F86810202252
S3150FE122600FF22811FFF704BE01238CE02DE9F041AF
S3150FE122701600044688461BD000F063F8A7B1AE42BC
S3150FE1228012D300F059F804F128012046FFF7ECFFCD
S3150FE12290A844761B002707E0B509012300F048F8AB
S3150FE122A008EB8518A6EB8516402EF5D206B155E05B
S3150FE122B0BDE8F0817CB5044604F120000D46426885
S3150FE122C00168D20042EA51728DF80320C900130E5C
S3150FE122D08DF80030160A130C0A0E8DF804208DF8CE
S3150FE122E001300A0C8DF805208DF802600A0A8DF887
S3150FE122F006208DF80710007800F038F834BFC0F1EA
S3150FE123003802C0F178022046FFF7B0FF082269468E
S3150FE123102046FFF7ABFF002001E000F02DF894F81F
S3150FE123206810002914BF1C2120218842F5D373BD03
S3150FE123302A46414620460AE7E0192A462830FFF7A2
S3150FE1234087BD206A00F03F073018B042C7F140055C
S3150FE12350206202D2606A401C606270473246414693
S3150FE12360E019BDE8F0412830FFF772BD0FF25C01CD
S3150FE1237000F03F0038287047810854F8211009BA58
S3150FE123802950001D70470122E1E6000067E6096A60
S3150FE1239085AE67BB72F36E3C3AF54FA57F520E5190
S3150FE123A08C68059BABD9831F19CDE05BD89E05C120
S3150FE123B007D57C3617DD703039590EF7310BC0FF73
S3150FE123C011155868A78FF964A44FFABE8000000073
S3150FE123D00000000000000000000000000000000007
S3150FE123E000000000000000000000000000000000F7
S3150FE123F000000000000000000000000000000000E7
S3150FE12400000000000000000000000000890001EB61
S3150FE12410401000F184400260704710B54A688B683E
S3150FE12420CC680968016002600360046010BD10B5F5
S3150FE1243002680368046800680A608C604B60C860D4
S3150FE1244010BD38B5102A04460D460ED101220021E2
S3150FE12450FFF7DCFF4FF48870044429462046FFF767
S3150FE12460DCFF05F11001204606E000220021FFF70F
S3150FE12470CDFF294604F12400BDE83440CDE71FB571
S3150FE124800C4614F0030108D06946FFF7D0FF10227E
S3150FE1249069462046FFF7DCFC1FBD2146FFF7C7FF64
S3150FE124A01FBD1FB5044611F0030008D01022684680
S3150FE124B0FFF7CEFC69462046FFF7AFFF1FBD20466B
S3150FE124C0FFF7ABFF1FBD00281CBF242100F0C6B8E4
S3150FE124D0704770B504000D4618BF002D164602D1A0
S3150FE124E06FF0210070BD242100F0B8F8802E18BFDF
S3150FE124F0B6F5807F02D06FF01F0070BD2660F2083F
S3150FE125002946201DFFF7A4FC002070BD2DE9FF4FE2
S3150FE1251081B0002A14BF17680027002400281CBFCA
S3150FE125200F9D002D0AD0DDF84090B9F1000F1EBFC7
S3150FE12530002BDDF83880B8F1000F02D16FF02100E2
S3150FE1254070E00068802818BFB0F5807F04D06FF087
S3150FE125501F0067E000F069F8029884425ED2002F0F
S3150FE12560F8D100F0F4FC0646002070604FF0000B46
S3150FE125704FF44040306000F013FD82460198006849
S3150FE12580802801980CBF08221022011D3046FFF763
S3150FE1259058FF049906F18400FFF783FF00F050F826
S3150FE125A00298001B0009009014E000F04CF80BF1C3
S3150FE125B0010B00F0F5FC8246291906F1A000FFF7A1
S3150FE125C070FF09EB040106F18000FFF758FF00F0F9
S3150FE125D037F8103400988345E7D30298001B0FD0E4
S3150FE125E05FB900F030F800F0DBFC8246414606F1B8
S3150FE125F08000FFF744FF00F023F800F016F8ECE750
S3150FE1260000F0CEFC8246049906F18400FFF737FF0E
S3150FE1261000F016F8304600F0A3FC9DE7039800B1F1
S3150FE126200760002005B0BDE8F08F285D18F80710A8
S3150FE12630484009F80400641C781C00F00F07704746
S3150FE12640504600F0B1BC4820B0600520B06030695B
S3150FE126508007FCD40320B0607047FEE7002200F04C
S3150FE12660A7BCFEE710B54A688B68CC6809680160BC
S3150FE1267002600360046010BD10B502680368046868
S3150FE1268000680A608C604B60C86010BD38B50446BF
S3150FE126900D46FFF7E7FF05F110012046BDE834408F
S3150FE126A0E0E738B504460D46FFF7E6FF05F1100101
S3150FE126B02046BDE83440DFE78C220FF2F871504334
S3150FE126C00844007A70478C220FF2E87150430844B0
S3150FE126D0407A704710B500F010F8BDE8104000F1F0
S3150FE126E00C0106E010B500F008F8BDE8104000F166
S3150FE126F02C0120221846FFF7ABBB0B468C240FF2B9
S3150FE12700B471604308447047F8B504460D46164662
S3150FE1271000F046FC07464FF4847029462044FFF744
S3150FE12720B5FF4FF4867031462044FFF7AFFF3846C9
S3150FE1273000F03AFCDFF8E806206501206065606984
S3150FE12740000E00F0010080F00100F2BD2DE9F04F1F
S3150FE1275089B0044688469246994600F021FC8346A5
S3150FE127604FF48270271808F1400100F08AF94FF40F
S3150FE1277086702518514600F025F94FF48870261812
S3150FE127800AF120013046FFF781FF00F023F900F04F
S3150FE1279024F98346414600F074F94FF4847004EB53
S3150FE127A0000A08F1200100F013F908F14001304663
S3150FE127B0FFF76CFF00F00EF9DFF868062065DFF82A
S3150FE127C0680600F04BF883464FF48070261809F13E
S3150FE127D0400100F0F4F869465046FFF762FF00F05A
S3150FE127E0F9F800F0DDFB834600F0EBF800F0F2F8C4
S3150FE127F0DFF838062065DFF838066065DFF834065E
S3150FE1280000F0F3F8054600F03AF900F0DDF8DFF8ED
S3150FE1281028062065DFF8240600F020F8054649462C
S3150FE128205046FFF73EFF00F0CFF800F0B9FB054643
S3150FE1283069463846FFF72AFF00F0C6F8DFF80006CB
S3150FE128402065DFF8000600F009F8044600F0B5F858
S3150FE12850204600F0A9FB09B0BDE8F08F60650120C5
S3150FE12860A06500F09DBB2DE9F04F99B0044688466F
S3150FE12870914600F095FB05464FF48270271800F05C
S3150FE12880FEF800F0A1F8DFF8C0052065DFF8BC051A
S3150FE128906065DFF8BC05FFF7E3FF06464FF480708E
S3150FE128A0251808A900F002FB00F0E6F800F078FB26
S3150FE128B0064600F086F800F0DFF8DFF898052065A8
S3150FE128C0DFF8940560654FF48670FFF7C9FF82461E
S3150FE128D04FF48670261810A93046FFF7E2FE6946D7
S3150FE128E000F0E4FA504600F05FFB00F059FB824638
S3150FE128F008F1400100F0C5F8504600F055FBDFF84E
S3150FE129005C0520650120606500F04AFB83464FF4C4
S3150FE12910847004EB000A414600F05AF800F05AF8C9
S3150FE12920DFF83C052065DFF83C056065DFF8380523
S3150FE1293000F05BF8834669465046FFF7A7FE10A9FC
S3150FE129403046FFF7A3FE00F045F8DFF820052065D6
S3150FE12950DFF81C056065DFF81C05FFF781FF83468D
S3150FE129604FF4887049462044FFF79BFE00F032F89A
S3150FE1297000F016FB834600F082F808F1400100F003
S3150FE1298027F808A93046FFF781FE00F023F8DFF8B4
S3150FE12990E8042065DFF8E404606500F001FB044616
S3150FE129A009F140012846FFF77CFE00F006F82046C4
S3150FE129B000F0FAFA19B0BDE8F08F09F120013046BF
S3150FE129C06FE64146284661E6284600F0EDBA314604
S3150FE129D050465BE6584600F0E7BADFF86C0420652F
S3150FE129E0DFF89C046065DFF89C04A0650120E065D3
S3150FE129F000F0D6BA2DE9F04105460F461C46904642
S3150FE12A0020212046FFF72AFE0120206000F0C8FAB8
S3150FE12A1006464FF4807041462844FFF737FE4FF4E0
S3150FE12A20827039462844FFF731FE4FF484702F1830
S3150FE12A30214600F026F800F01FF8DFF84C04286570
S3150FE12A400BE0DFF848042865DFF844046865DFF832
S3150FE12A504404A865DFF84004E8656869C001F0D56C
S3150FE12A6000F09EFA054621463846FFF71AFE28463C
S3150FE12A70BDE8F04100F098BA304600F095BA08F19A
S3150FE12A802001384602E650F8043B934203D007E0B3
S3150FE12A9050F8042B22B9091F0129F9DA01207047F1
S3150FE12AA0002070472DE9F04188B004460E461546E1
S3150FE12AB0984620216846FFF7D1FD0120009020219D
S3150FE12AC00E9F3846FFF7CAFD202107F12000FFF7D9
S3150FE12AD0C5FD202107F14000FFF7C0FD3046FFF7A6
S3150FE12AE0EBFD00F0A3F800F09CF88C210FF2C43057
S3150FE12AF011FB06F108444068461E00E0761E012EE2
S3150FE12B0016DB00F03EF8F9D512E0202229463846C9
S3150FE12B10FFF7AEF9202205F1200107F12000FFF7BB
S3150FE12B20A7F92022694607F14000FFF7A1F9761EC2
S3150FE12B30002E23D43A4639462046FFF794FE00F09D
S3150FE12B4020F8F4D5002220213846FFF79CFF70B11B
S3150FE12B500022202107F12000FFF795FF38B100226F
S3150FE12B60202107F14000FFF78EFF0028CDD13B462C
S3150FE12B702A4639462046FFF7E9FDD8E708B0BDE812
S3150FE12B80F081301106EBD060401158F82010A6EB1A
S3150FE12B904010C140C80770472DE9F04104460F4682
S3150FE12BA090B016461D463846FFF786FD00F03EF813
S3150FE12BB000F037F869463846FFF78CFD08AB6A46F1
S3150FE12BC006F140012046FFF715FF00F0E9F98046CF
S3150FE12BD04FF4827008A92044FFF758FD4FF4867031
S3150FE12BE027183146FFF74DFF4FF4887006F12001A4
S3150FE12BF02044FFF74BFD404600F0D6F9FFF7EDFE17
S3150FE12C0006464FF4807005F120012044FFF749FD98
S3150FE12C1029463846FFF745FDFFF72EFF10B0BDE811
S3150FE12C20F0810020206020636063704701462046F3
S3150FE12C3000F0D8B938B50D4604462021FFF70EFD51
S3150FE12C40FFE71F204242295C2244401ED177F9D586
S3150FE12C5031BD2DE9F04F0F00984618BFB8F1000FBF
S3150FE12C60B9B00446154603D0429E0EB1012D02DAE4
S3150FE12C7040F20160D1E0FFF7D4FF606840F0100049
S3150FE12C8060600020FFF71FFDFFF7D0FF606820F4BB
S3150FE12C90406040F40060606009A9606820F440700C
S3150FE12CA040F4007060600020FFF71CFD09AA314671
S3150FE12CB02046FFF729FD30B909AA06F12001204682
S3150FE12CC0FFF722FD10B140F20260A6E0212DA8BF69
S3150FE12CD02025202111A8FFF7C1FC002014E02A1AB4
S3150FE12CE0521E01A99208A5F1010C01EB8201ACEB91
S3150FE12CF0000C3B5C0A6C4FEACC0C0CF0180C03FA97
S3150FE12D000CF31A430A64401CA842E8DB00F048F9C9
S3150FE12D1005464FF48470271811A93846FFF7B6FC1C
S3150FE12D20FFF752FE5D48206500F03AF981464FF410
S3150FE12D308070251811A900F0B9F8484600F034F96A
S3150FE12D4019AB09AA06F120012046FFF753FE00F061
S3150FE12D5027F983464FF4827019A92044FFF796FCB1
S3150FE12D604FF4887004EB000911A94846FFF78EFC72
S3150FE12D704FF4867004EB000AFFF729FEFFF72AFEF0
S3150FE12D80474820654748606500F00AF9834611A96F
S3150FE12D904846FFF786FC19A900F088F8FFF71AFEF7
S3150FE12DA021A8009011AB0FF2581200212046FFF730
S3150FE12DB079FE01A8009019AB424600212046FFF7A4
S3150FE12DC071FE21AB21AA00212046FFF7E5FE01ABFB
S3150FE12DD021AA01A92046FFF7B9FC01AB01AA0021FF
S3150FE12DE02046FFF7D9FE00F0DBF805460020FFF796
S3150FE12DF06AFCFFF71BFF01A93846FFF747FCFFF710
S3150FE12E00E6FDFFF7E1FD2848206523486065606927
S3150FE12E10C0014CBF002040F2046039B0BDE8F08F2D
S3150FE12E203035DA10D01482CB1481E11C8CE11C8190
S3150FE12E301C84D91C8391D11CE014D8141482E11C93
S3150FE12E4084D31482D11CE0148AD11C81821CC00C5C
S3150FE12E500C0C0100C00C0C83D91C83D88AD11C83BE
S3150FE12E60DA0C811482D11C81C80C0C818CE11CD047
S3150FE12E701484E31482D11C01D81483D11CC00C0134
S3150FE12E80D91C83D11C81E11C39398401D02484FCFE
S3150FE12E901C82FED88B1C81A03938010030D00C0181
S3150FE12EA030E11C8430D91C013035DA142846FFF79E
S3150FE12EB0F8BB00002000000000010000050C000037
S3150FE12EC0FFFFFFFFFFFFFFFFFFFFFFFF0000000018
S3150FE12ED0000000000000000001000000FFFFFFFFFF
S3150FE12EE0512563FCC2CAB9F3849E17A7ADFAE6BCB6
S3150FE12EF0FFFFFFFFFFFFFFFF00000000FFFFFFFFE8
S3150FE12F0096C298D84539A1F4A033EB2D817D03778D
S3150FE12F10F240A463E5E6BCF847422CE1F2D1176B28
S3150FE12F20F551BF376840B6CBCE5E316B5733CE2BFB
S3150FE12F30169E0F7C4AEBE78E9B7F1AFEE242E34F2A
S3150FE12F40890001EB401000F184400260704780B5C3
S3150FE12F50FFE7012200210B48FFF7F2FF0A4802BD06
S3150FE12F600949884209D100200FF2240101EBC00083
S3150FE12F70002241680348E3E7704704498842FBD1E1
S3150FE12F800120F1E7B0400E4000000F4000040F4072
S3150FE12F9000000F400000000000040F400100000098
S3150FE12FA0EFF3108072B6704700B962B67047FEE76D
S3150FE12FB000B500BF130096469446103928BFA0E826
S3150FE12FC00C50FAD85FEA417C28BF0CC048BF40F8E5
S3150FE12FD0042BC90728BF20F8022B48BF00F8012BA5
S3150FE12FE000BDFEE742685209042941EA421209D9B6
S3150FE12FF0491F022908D9C91E032903D9091F022925
S3150FE1300002D970474260704742F010014160704744
S3150FE1301038B5174C206840F00800206001230422E0
S3150FE1302000F02AF8002001E00098401C009000987B
S3150FE130306428F9DB0123022200F01EF8002001E0EB
S3150FE130400098401C00900098B0F5FA7FF8DB09482C
S3150FE130500068012814BF012500250123002200F095
S3150FE130600BF8206820F008002060284632BD0000EA
S3150FE13070B0400E409821144206210520FDF71CBFF2
S3150FE130804FF4017000F0AEF800BF474847490068BA
S3150FE130900860474947480068000E09D14AF6E850EB
S3150FE130A0C862486B40F0040048630020C86201E043
S3150FE130B0022803D2086840F4005008603E480168D0
S3150FE130C021F4401141F4881101603C48016841F453
S3150FE130D08071016040213A48C16001684903FCD41F
S3150FE130E00020C04600F079F8FDF744FFFDF762FFD7
S3150FE130F0C0B9FDF77FFF0446FEF783F8002C1ABF30
S3150FE1310040F20370844240F2012009D040F205708B
S3150FE1311084421CBF40F20670844203D140F2032081
S3150FE1312000F060F84FF40170FAE7000038B5254872
S3150FE13130016801240125B1F5803F08BF002512D0B2
S3150FE13140006840050AD500F06FF840F20221401AF7
S3150FE1315007D0C01E05D0C01E012802D9FFF758FFC0
S3150FE1316008B1002400250420006810F1010F06D1F3
S3150FE13170BDE832404FF4027000F028B831BD25B1F9
S3150FE13180002000F090F80400F2D0002CF6D00E49A2
S3150FE131900020086000221046016881F3088881F358
S3150FE131A0098840688746FEE7CC000020D000002062
S3150FE131B064310E40FC81E00F20400E4000000E40CE
S3150FE131C004300E4004500E4008ED00E04FF0005180
S3150FE131D008804FF20F00488070470F494CF23C30A0
S3150FE131E0088070474FF0005108804FF20F0048807A
S3150FE131F00A48016821F4E06141F480610160BFF39F
S3150FE132004F8F0748074A016801F4E06111430160F6
S3150FE13210BFF34F8F00BFFDE70200002000500E40C5
S3150FE132200CED00E00400FA054FF000504FF20F02EB
S3150FE132304188914201D100887047002904BF008877
S3150FE13240012802D140F2022070474FF40070704717
S3150FE132502DE9F04104465048006888460169164653
S3150FE132608C4222BF37194069B84216D3E00AB4EB54
S3150FE13270C02004BF204600F0BFF804F50060C50A80
S3150FE13280ED0204E0284600F0B7F805F50065BD420A
S3150FE13290F8D332464146204601E0BDE8F081BDE86C
S3150FE132A0F04100F0D3B850B585B0044668460FF249
S3150FE132B000111022FEF7DCFD22686068616B02F1F6
S3150FE132C06042B2F5802F29D8334A126812699042CB
S3150FE132D024D3324B984221D202F1400081420E466D
S3150FE132E001D3994205D30020C046401E8041C00F4D
S3150FE132F01BE00020C04698B900F054F8A0B97069F8
S3150FE1330090B102280CD1B069001D011B4FF0FF32BD
S3150FE133102046FDF7C1FA2249884205D0002004E094
S3150FE13320204600F004F800E0012005B050BD50B58D
S3150FE133309FB0044668460FF288011022FEF798FD0A
S3150FE13340666B00F02FF818B9706901280AD1B669D2
S3150FE13350114800680069864228BFA64202D3B6F536
S3150FE13360801F01D9002013E004A8FEF714FE321BDB
S3150FE13370214604A8FEF719FE04A8FEF718FE06F18A
S3150FE133802002314604A8FEF783FE401E8041C00F9E
S3150FE133901FB050BD000000002808E10F010010002A
S3150FE133A0E320BBDE102269463046FEF733BE00004E
S3150FE133B013B779FAC925DDB7ADF3CFE0F1B614B896
S3150FE133C013B779FAC925DDB7ADF3CFE0F1B614B886
S3150FE133D0084841F671318163016849084900016086
S3150FE133E0704704480168490849000160002181637B
S3150FE133F07047000008000E4010B50446FFF7E8FFDE
S3150FE13400204600F0E4F80446FFF7EBFF601E80412B
S3150FE13410C00F10BD10B58408800782B005D508042A
S3150FE1342040F47F4040F0FF0003E041F07F4040F47D
S3150FE134307F000090FFF7CCFF04226946A00000F061
S3150FE13440FFF80446FFF7CDFF204616BD2DE9F04103
S3150FE1345004460E46154604F0010005F00101084346
S3150FE1346027D125B3A00708D536F8021B2046FFF76B
S3150FE13470D1FFF0B9A41CAD1E19D0AF08FFF7A8FF15
S3150FE13480BF003A463146204600F0DAF88046FFF7AC
S3150FE13490A8FF3C197808B8F1000F06EB400608D1F2
S3150FE134A0E81B04D031882046FFF7B4FF08B90120A5
S3150FE134B000E00020BDE8F0816449654A01E021B1F1
S3150FE134C0491E1369DB07FAD401B9B0E05060012058
S3150FE134D01060106910F0060F05D0410700D5A9E07D
S3150FE134E0800700D5A9E000207047F0B5134600220A
S3150FE134F0002936D0554C564D8BB98B4231D250F807
S3150FE13500046BEE605B1C08262E60264601E036B39F
S3150FE13510761E2F69FF07FAD4002EEED11FE0EFF3E7
S3150FE13520108672B600230EE02F6907F01907102FE8
S3150FE1353008BF2F602F693F07F6D550F8047BEF6080
S3150FE135405B1C10272F608B42F4D306B962B6264671
S3150FE1355001E026B1761E2869C007FAD40EB96FF0DD
S3150FE1356002021046F0BD2DE9F0479A46354B364F2C
S3150FE135701C681B683B688046002043F001033B60F3
S3150FE13580950881460C4602E0B14404EB8604A94551
S3150FE1359017D208EB89063046FFF78EFF010014D1EB
S3150FE135A0C6F30A00C0F500608608A5EB0900B04234
S3150FE135B038BF0646524631462046FFF796FF0100D1
S3150FE135C0E2D03968490849003960BDE8F0871D49FD
S3150FE135D01E4A0B6809681C490B6843F001030B602F
S3150FE135E08860012048604869400704D508684008AB
S3150FE135F0400008601EE04869800704D50868400866
S3150FE136004000086019E00220486001E022B1521E35
S3150FE136104869C007FAD422B9086840084000086033
S3150FE1362005E00868400840000860002070476FF029
S3150FE13630020070474FF0FF3070476FF0010070479F
S3150FE13640002390E704300E4008000E408096980064
S3150FE136500C000E404EF68851CEF20001086840F498
S3150FE1366070000860BFF34F8FBFF36F8F4FF000709D
S3150FE13670E1EE100A7047FEE70120C046002801D0AF
S3150FE1368000F008F80020AFF30080FFF7FEFC00F032
S3150FE1369015F8FEE710B5074979441831064C7C4415
S3150FE136A0163404E00A68081D114488470146A14211
S3150FE136B0F8D110BD300100004C01000000F000B858
S3150FE136C00746384600F002F8FBE700002021090320
S3150FE136D026311820ABBEF9E700207047002070476E
S3150FE136E080B5FDF778F9FFF721FDBDE8014000F060
S3150FE136F000B8AFF30080FFF7ADFFFFF7BDFF10B5E1
S3150FE13700B1F5BC7F044602D240F2052010BD4FF45D
S3150FE13710BC71FEF7A3FF04F1FC0204F1B40104F15D
S3150FE137202400BDE810400023FEF704B810B582B0BF
S3150FE137300446009104F124002146FEF737F80028EC
S3150FE137401CBF41F207018842C4F874010CD1A01CD9
S3150FE13750017839B1407810B140F2032016BD40F23D
S3150FE13760022016BD40F2012016BD19E050F8041BE8
S3150FE13770CB0744BFA9F101035918121F0023042AED
S3150FE1378041F8043BF9D25FEA827C0B4604D54FF050
S3150FE13790000CA1F800C09B1CD10744BF0021197092
S3150FE137A050F8042B002AE1D1704730B50168426821
S3150FE137B08468014401EB5203D20748BF4C44994256
S3150FE137C001D10C3030BD11F9012B11F8015B002A43
S3150FE137D004F8015B02D5521CF9D1F0E7521EF4D57C
S3150FE137E0EDE7000087FFFFFF84030000D8100020FC
S3150FE137F000000000B7FFFFFF0C00000042000000D1
S3150FE1380080000020CC000BF07F10308000002034C8
S3150FE13810080140FB000EF0490200800000C0EA21DA
S3110FE1382001C0EA210100000000000000D9
S503035E9B
S70500000000FA
