S0110000626F6F746C6F616465722E733337B8
S3150FE10800201100200134E10F7B0FE10FC12DE10F24
S3150FE10810830FE10F2B1BE10FBB1BE10F0000000064
S3150FE1082000000000000000004008E10FDB1CE10FB3
S3150FE10830D723E10F00000000232DE10F9733E10FDE
S3150FE1084007B0CD5E0100000000000401502D00004D
S3150FE108500000000000001000F0001000F933E10F76
S3150FE10860FD33E10FC12FE10F1F34E10F4D34E10FDE
S3150FE108700000000001790122091DC01C00F014BA25
S3150FE1088000F0A6B900B5A3B000F038FBB0F5027FD2
S3150FE1089008D168460FF29011882200F043FB6846B3
S3150FE108A0FFF7E8FF68460FF20821882200F03AFBCE
S3150FE108B00549096889680DF1070001606846FFF788
S3150FE108C0D9FF23B000BD00002808E10FADF5247D67
S3150FE108D060A80FF26421882200F024FB0FF2E020DA
S3150FE108E00FC80BAC84E80F0002A8242100F046FBE9
S3150FE108F020230FAA2AA93CA800F078FC40F603347E
S3150FE1090008E001208DF886010020ADF8870160A887
S3150FE10910FFF7B0FF882182A800F030FB00F008FA5C
S3150FE109200028FBD04FF47A700090012382A801AA28
S3150FE109300121C01C00F019FA9DF80B022028EDD118
S3150FE109404FF47A700090012301AA032183A800F0E6
S3150FE109500CFA01980328DDD19DF80C5275B140F6DA
S3150FE10960B8300090012383A801AA2946C01C00F0E4
S3150FE10970FCF90199A94208BF0028CBD19DF80D02D8
S3150FE109800028C7D19DF80E029DF80F320328C1D872
S3150FE10990DFE800F03703041ABCE7B2E70BA80090D3
S3150FE109A084AA02A93CA800F05DFC02218DF886110C
S3150FE109B000281CBF41F20701884212BFADF88741FB
S3150FE109C00020ADF88701A2E703208DF886019DF897
S3150FE109D00B109DF80A0008421ABF0020ADF88701F7
S3150FE109E0ADF8874160A8FFF745FF9DF80A009DF82E
S3150FE109F00B1008409DF8081008428BD040F20920F1
S3150FE10A0009E09DF80B109DF80A0081F001010842FB
S3150FE10A1003D040F2032000F03BFA012B14BF40F262
S3150FE10A20012040F20220F6E7000000A002000103D8
S3150FE10A300B000000000000000000000000000000B5
S3150FE10A4000000000000000000000000000000000B0
S3150FE10A5000000000000000000000000000000000A0
S3150FE10A600000000000000000000000000000000090
S3150FE10A700000000000000000000000000000000080
S3150FE10A800000000000000000000000000000000070
S3150FE10A900000000000000000000000000000000060
S3150FE10AA00000000000000000000000000000000050
S3150FE10AB0000000A00400000000000000000000009C
S3150FE10AC00000000000000000000000000000000030
S3150FE10AD00000000000000000000000000000000020
S3150FE10AE00000000000000000000000000000000010
S3150FE10AF00000000000000000000000000000000000
S3150FE10B0000000000000000000000000000000000EF
S3150FE10B1000000000000000000000000000000000DF
S3150FE10B2000000000000000000000000000000000CF
S3150FE10B30000000000000000000000020020000009D
S3150FE10B4000000000000000000000000000000000AF
S3150FE10B50000000000000000000000000000000009F
S3150FE10B60000000000000000000000000000000008F
S3150FE10B70000000000000000000000000000000007F
S3150FE10B80000000000000000000000000000000006F
S3150FE10B90000000000000000000000000000000005F
S3150FE10BA0000000000000000000000000000000004F
S3150FE10BB0000000000000000000000000000000003F
S3150FE10BC0000000000D2FE10F000000005B2FE10F89
S3150FE10BD010B501218348844C00F0A6FE012183481C
S3150FE10BE000F0A2FE0121824800F09EFE012181481C
S3150FE10BF000F09AFE40F6AA60E06000210020206036
S3150FE10C00606641F205006060A1606161E1647A4965
S3150FE10C10A16400216167A167E167606020682060D8
S3150FE10C207648006801280CBF4FF4957040F27B209F
S3150FE10C30C000606101230422002000F0C1FE012300
S3150FE10C4001220121002000F0BBFE0020A067012355
S3150FE10C500320606704220521002000F0B1FE052084
S3150FE10C60E0604FF0E0616648016000210162C16218
S3150FE10C704163C1664FF4402262490A6000228A60ED
S3150FE10C804A600FF2B412920892008A615E4A0A63D1
S3150FE10C9000228A634A6303215C4A11600121C16321
S3150FE10CA002205B49086010BD70B50E46802E0546E1
S3150FE10CB0144602D341F2031070BD00F028F810B9C3
S3150FE10CC041F2062070BD30460026524902E0AA5D88
S3150FE10CD08A55761C8642FAD3D1F88020401E60F3FE
S3150FE10CE00E12C1F8802001F1800080084A49800088
S3150FE10CF008600220494908603CB100F008F8002875
S3150FE10D00FBD0474800688006FBD5002070BD4548FB
S3150FE10D1045498268920702D50220086003E0006820
S3150FE10D20800703D4022088600120704700207047B6
S3150FE10D303E48006840F20111884208BF002007D003
S3150FE10D4040F2022188420EBF4FF480703849401AB3
S3150FE10D5038490968814201D10020704701D2401A12
S3150FE10D607047C1F5007140187047F8B504460E4655
S3150FE10D7015468BB1069F2FB100F05CFE0021384678
S3150FE10D8000F07AFEFFF7D4FFB04205D2002FF9D07B
S3150FE10D9000F088FE0028F5D0FFF7CAFFB04202D275
S3150FE10DA0FFF7C6FF064600201949224A204B03E00A
S3150FE10DB00027176002270F60B0420FD2176813F8AA
S3150FE10DC007C004F800C0401C7F1CB7F5007F176011
S3150FE10DD0EED0B7F5807FEFD10127ECE705B12860BB
S3150FE10DE00020F2BD4041050000000140003508003A
S3150FE10DF00055080000420400F9FF010094400E403F
S3150FE10E0000200E4080200E4001000C0028200E44E9
S3150FE10E1008200E4680000020C8200E403C200E40E0
S3150FE10E201000014020200E4020200E4494200E4059
S3150FE10E302011002028130020F00F10031C000140A1
S3150FE10E40201100201300000009000000000100003E
S3150FE10E500202000013000000F00F10031C00014016
S3150FE10E60201200201300000009000000000200001C
S3150FE10E7001010000D3FFFFFF4FF0005108804FF251
S3150FE10E800F00488070470F494CF23C30088070479D
S3150FE10E904FF0005108804FF20F0048800A48016871
S3150FE10EA021F4E06141F480610160BFF34F8F0748A0
S3150FE10EB0074A016801F4E06111430160BFF34F8F07
S3150FE10EC000BFFDE70200002000500E400CED00E0F0
S3150FE10ED00400FA054FF000504FF20F02418891429C
S3150FE10EE001D100887047002904BF0088012802D18B
S3150FE10EF040F2022070474FF4007070474FF00050F8
S3150FE10F000088704762B38B0708D0521E11F8013B78
S3150FE10F1000F8013B00F024808B07F6D1830740F000
S3150FE10F20208000BF103A07D330B4B1E83810103A39
S3150FE10F30A0E83810F9D230BC530724BFB1E8081046
S3150FE10F40A0E8081044BF51F8043B40F8043BD20730
S3150FE10F5024BF31F8022B20F8022B44BF0B78037024
S3150FE10F607047083A07D3B1E80810083A40F8043B4E
S3150FE10F7040F804CBF7D25307E4E7FEE7002200F08F
S3150FE10F80BBBDFEE72DE9F8431F4604467868002806
S3150FE10F900D46164646D000F0C9FD216E001D7218AA
S3150FE10FA082421DD300F11803994219D28446884231
S3150FE10FB038BF8C469A4288BF1A46ACEB0101ACEBBF
S3150FE10FC0000005EB0108A2EB0C0920444A46414615
S3150FE10FD06830FFF797FFFF224946404600F0BAFD1A
S3150FE10FE000F0A8FD216E001D884222BF7218031D75
S3150FE10FF09A420DD3411A05EB01080422414604F149
S3150FE110008000FFF77FFFFF220421404600F0A2FD9B
S3150FE1101029463B68206E7D683246A847206E301818
S3150FE1102020660020BDE8F28330B54B688C689C42A0
S3150FE1103006D200F140021B1B14781B19412B01D379
S3150FE11040002030BD537814788D68E3180C68645D21
S3150FE1105003F03F03C4548B685B1C8B6013785B1CF6
S3150FE1106013704C688B68A342ECD3012030BD90F826
S3150FE1107040004A6889681018401A70472DE9F04117
S3150FE110800F46144698460546FFF7F1FF404505F131
S3150FE11090400607D239462846FFF7C6FF00284DD04E
S3150FE110A0002049E000200BE07178695C2154401C77
S3150FE110B07178491C01F03F0171703178491E317029
S3150FE110C0317809B14045EFD3B9687A68914238BFB3
S3150FE110D0404507D23A68515C2154401CB968491C16
S3150FE110E0B960F1E7404529D1B26C4146204600F09F
S3150FE110F077FDB064069820B1F0684246214600F0CC
S3150FE1110087FD079800281CBFF078002805D0B06846
S3150FE1111043462246214600F09FFDF07838B1F0694B
S3150FE11120B1694044F061884224BF0020F0707069D4
S3150FE111304044706141F20300BDE8F0811220B071C5
S3150FE1114041F20200F8E7F0B585B0044600200190C0
S3150FE1115000901546082302AA00F0B7FB41F20306F9
S3150FE11160B0423CD194F8430004F1480738B100F09E
S3150FE1117038F83868082302AA02A900F06DFD9DF838
S3150FE111800A109DF80B00090441EA00609DF8091069
S3150FE1119040EA01209DF80810084328609DF80E20CB
S3150FE111A09DF80F10120442EA01619DF80D2041EA04
S3150FE111B002219DF80C201143696094F8431049B957
S3150FE111C0DFF8A41688421CBFDFF8A016884201D0CB
S3150FE111D000F007F86868B8600020F860304605B09F
S3150FE111E0F0BD7868082202A900F012BDF8B50446F1
S3150FE111F004F140070020B87138707870F870787193
S3150FE1120038710D4603F02000B87016464FF0FF30E7
S3150FE11210B864FF22002038627862182104F1680071
S3150FE1122000F098FCFF22042104F1800000F092FC0B
S3150FE11230FF22042104F1840000F08CFCBD60FE6006
S3150FE112400020C04600B11DB10020C04618B116B945
S3150FE1125041F20B00F2BD16B1F86800F0CFFC0020A9
S3150FE11260F2BD00002DE9FA4F99B0044603A800211B
S3150FE11270002300252AC01A98DDF890A00392049066
S3150FE1128004F1420604F1480741F203080DF1200982
S3150FE112900EE000F005FB40452CD10798DFF8D0159D
S3150FE112A0B8600020F8600698884270D1022030714C
S3150FE112B005981A99884280F0D28230791228F7D8A8
S3150FE112C0DFE810F014001500C900430117016501AD
S3150FE112D0FB00580165015301650153012B02CA0257
S3150FE112E09102A702AA02D301CA02E1E7D1E700F010
S3150FE112F0D7FA404540F0B482B07820B10698DFF8CE
S3150FE113006C15884243E03078C0074BD570780028DA
S3150FE1131048D10698DFF8581588421CBFDFF85415F7
S3150FE11320884222D0DFF8501588421CBFDFF84C15F2
S3150FE1133088421AD0DFF84815884222D0DFF82815FF
S3150FE11340884263D0DFF83C15884213D0DFF83815B1
S3150FE1135088420DD0DFF81415884215D0DFF82C1529
S3150FE1136088421CBFDFF82815884200F0EE8011E0B5
S3150FE113700E209CE70F203071B86838610020786144
S3150FE1138096E71220307163E00020C046002840F056
S3150FE11390DC8036E01220307106A80020C046002816
S3150FE113A056D0AAE10698DFF8CC1488421AD0DFF8B6
S3150FE113B0C814884214D0DFF8C414884214D0DFF879
S3150FE113C0A81488421FD0DFF8A414884212D0DFF8A0
S3150FE113D0BC1488420CD0DFF8B814884206D017E067
S3150FE113E0042064E7062062E7072060E709205EE74D
S3150FE113F00B205CE70020C046002804BF7078002868
S3150FE11400C5D10C2053E770780028C0D110204EE7E4
S3150FE1141006A80020C046A0B1069878641120307165
S3150FE1142006980020C046054630788006A8D5002DDF
S3150FE11430A6D069680800A3D02046884700289FD028
S3150FE114405BE112203071707810B141F2040007E2CE
S3150FE1145041F2080004E2F868082831D20020019031
S3150FE11460082300F041FA4045F4D199F8030000064C
S3150FE11470B0F1407F04D01220307141F20900EFE163
S3150FE1148099F8050099F8041041EA00200290C00787
S3150FE1149004D5307840F00100307002E00020C046FC
S3150FE114A030B90020C0460028D5D00298C005D2D465
S3150FE114B01220307141F20A00D2E1BB68F868984216
S3150FE114C080F0C88101200190009000F0FCF94045C1
S3150FE114D0F2D119981C2208A90830FFF723FD1999B3
S3150FE114E001204870E9E7052030710120F0700020F6
S3150FE114F0F861F8680828BFF4DBAE0120019000908F
S3150FE11500082300F0E0F94045D6D11999DFF8842395
S3150FE115100120087000F0C8F919994860DFF87803DF
S3150FE11520006801689142DED199F8062099F8071013
S3150FE11530C068120442EA016199F8052041EA0221E5
S3150FE1154099F8042011438142CDD012203071D4E0B5
S3150FE11550012000F0C1F94045AED100F0A5F90290A6
S3150FE11560B868052824BF0298B861F8680428EFD354
S3150FE115700A209CE60020F861082098E6DAF80030A8
S3150FE11580F8695A4608A9E047F8695844F861B86816
S3150FE11590F968814294D2A0EB010BBBF1040F03A9C9
S3150FE115A0204604D3FFF763FD042804D26CE0FFF76E
S3150FE115B05EFD584568D3BBF1410F28BF4FF0400B95
S3150FE115C000F086F9584502D200F082F98346BBF165
S3150FE115D0040F24BF4FEA9B004FEA800B00F08BF913
S3150FE115E0404540F03D813079072804D1DAF808C04B
S3150FE115F0BCF1000FC2D1CBF10400BBF1040F009097
S3150FE1160007D2014608A8FF22584400F0A3FA009832
S3150FE11610834430790A2806D153465A4608A920460B
S3150FE11620FFF7B0FCB3E70528B1D1DAF80C000028D3
S3150FE11630ADD0F869052812D20BEB000107290ED3BD
S3150FE1164008A9091D081A00900146042204F1840035
S3150FE11650FFF758FC0098FF22042100F07BFADAF835
S3150FE116600030F869DAF80CC08BE73078800634D5AC
S3150FE11670786C0020C04605002FD13EE04FF0010BFC
S3150FE1168000F026F9584504D203A92046FFF7CCFC12
S3150FE11690E5E0B868F968A0EB010BBBF1410F28BF94
S3150FE116A04FF0400B00F014F9834502D300F010F927
S3150FE116B0834600F020F9404521D1307880060CD5DC
S3150FE116C0DDB1D5F808C0BCF1000F16D053465A4626
S3150FE116D008A92046E047002811D1F868B968884281
S3150FE116E030780DD28006C9D5002DC7D029690800FB
S3150FE116F0C4D0204688478346C2E741F20100AFE0F6
S3150FE11700800609D5002D07D0EA68100004D05146AE
S3150FE11710204690470028F2D19CE0002000F0DCF84B
S3150FE11720404507D1386C5D49884204D012203071AB
S3150FE1173041F2050094E00020C04618B9199901203D
S3150FE11740C87003E01998C078002846D0F07850B1F8
S3150FE11750DAF80C50280006D0DAF80030042204F14A
S3150FE1176084010420A847B86900281CBFDAF80400F1
S3150FE11770002832D04FF0FF30029004F180050422A9
S3150FE11780294602A800F078FA50B100F0D3F938B142
S3150FE117902946DAF80030DAF804500422001DA8478A
S3150FE117A0042204F1680102A800F066FAA8B100F07C
S3150FE117B0BDF9DAF80030DAF80450142204F16C01BD
S3150FE117C00830A84700F0B2F904F16801DAF8003001
S3150FE117D0DAF804400422001DA04719990120887008
S3150FE117E00D2030713BE0F868102833D200200190CC
S3150FE117F0102300F079F8404532D100F073FA8021D9
S3150FE11800009001910123386809AA022100F005FA37
S3150FE11810E9E7012070701DE0B078D8B9019000902A
S3150FE11820402300F050F840451AD1786800F0F2F9FC
S3150FE11830786810AA08A900F05DFA38B11999002065
S3150FE11840C8701220307141F2060009E019990120A2
S3150FE11850C870B07001202AE541F2070000E00020D0
S3150FE118601BB0BDE8F08F0000F70A0AF7FC0404FC91
S3150FE11870EB17A603F40A0AF4F50909F5F60808F6D3
S3150FE11880F70909F7F90707F9FA0606FAFD0303FD62
S3150FE11890FE0101FEAD1007B02800E10FE320BBDE2C
S3150FE118A006AA03A920464EE499F8021099F8030017
S3150FE118B0090441EA006099F8011040EA01209DF818
S3150FE118C020100843704708AA03A92046FFF7D6BBA5
S3150FE118D003A92046FFF7CBBB01900090042308AA8A
S3150FE118E003A92046FFF7CABB0120009008AA03A966
S3150FE118F02046FFF7C3BB0120019000905B4608AA83
S3150FE1190003A92046FFF7BABB890001EB401000F1AE
S3150FE11910844002607047DFF874104A68D20702D438
S3150FE119200A680242FCD1704770B5020A0C4602F012
S3150FE119300F020021521E092ADFF8545014D8DFE8AE
S3150FE1194002F005141313071619131C20DFF838508C
S3150FE11950C0F3043611B10846FFF7DDFF22463146E3
S3150FE119602846BDE87040CFE770BD1035F0E730355A
S3150FE119700121EDE738351021EAE740354FF48031A3
S3150FE11980E6E7DFF81050E3E700400E4040410E4036
S3150FE11990B0400E4050410E403023254A5843104483
S3150FE119A00C3000F1806006E03023214A58431044A1
S3150FE119B00C3000F1C060012202FA01F101607047BB
S3150FE119C0F8B50446164630000D461F4607D0002FE0
S3150FE119D0204602D0FFF7E8FF01E0FFF7DDFF3021F8
S3150FE119E00F22134811FB04F1082D084405D2AB0071
S3150FE119F0416800F015F8416006E0A5F108039B0088
S3150FE11A00816800F00DF881604EB9002F2946204616
S3150FE11A1002D0BDE8F440C7E7BDE8F440BCE7F1BD4D
S3150FE11A209A4021EA020206FA03F1114370470000D8
S3150FE11A3000A000401FB52648016841F480110160FE
S3150FE11A406C462448016841F00101016000F088F914
S3150FE11A504FF47A71B0FBF1F01F49800A48600FF23B
S3150FE11A6088000FC884E80F000A208DF80200694646
S3150FE11A701A4800F0B5F91FBD30B5194A164C13696E
S3150FE11A80656805FB003060809BB260889842AD4186
S3150FE11A90ED0F257011B111698142FCD10120106062
S3150FE11AA0506030BD0C490F480A78002A026803D00E
S3150FE11AB0D20705D400207047D20701D50120704720
S3150FE11AC08069498888428041C043C00F7047000052
S3150FE11AD000400E40C0400E40201300200080014020
S3150FE11AE0148001400C80014001000000000000005D
S3150FE11AF0000000000000000000B500BF130096468D
S3150FE11B009446103928BFA0E80C50FAD85FEA417C19
S3150FE11B1028BF0CC048BF40F8042BC90728BF20F8DF
S3150FE11B20022B48BF00F8012B00BDFEE7064800680F
S3150FE11B30006970470548064A00680168914201D17C
S3150FE11B4000697047002070472808E10F2800E10F70
S3150FE11B50AD1007B062F30F2262F31F42401810F087
S3150FE11B60030308D0C91A1FD3DB0748BF00F8012DBD
S3150FE11B7028BF20F8022D130030B41446154610394C
S3150FE11B8028BF20E93C00FAD8490728BF20E90C0015
S3150FE11B9048BF40F8042D890028BF20F8022D48BF21
S3150FE11BA000F8012D30BC7047C91818BF00F8012D98
S3150FE11BB0CB0728BF00F8012D7047FEE70A0A484018
S3150FE11BC000F0FF0008214308C00746BF034858400D
S3150FE11BD01846491EF7D15040704700002083B8EDF3
S3150FE11BE070B504460D461046002604E00146A05D99
S3150FE11BF0FFF7E4FF761CAE42F8D370BD10B504468D
S3150FE11C0000F0D6F92046BDE81040002100F0D6B924
S3150FE11C1000F0EAB9014600F00BBAF8B505460E46F3
S3150FE11C2017461C4600F00DFB079A0699284600F069
S3150FE11C300EFB05F124000021016006750C223946E1
S3150FE11C4005F13900FFF75EF905F14500210C017049
S3150FE11C508470210A4170F1BD10B584B01C46019123
S3150FE11C60029200F12801009100F1380300F12402FC
S3150FE11C70214600F009FB1FBD0300002013F0030FFF
S3150FE11C8009D0521E22BF13F8010B11F801CBB0EBAD
S3150FE11C900C00F3D07047121F22BF53F8040B51F813
S3150FE11CA004CB6045F7D0121D0AD200BA9CFA8CFC20
S3150FE11CB0B0EB0C0038BF6FF0000088BF0120704712
S3150FE11CC0521E22BF13F8010B11F801CBB0EB0C003A
S3150FE11CD0F6D0521C08BF10467047FEE70248704720
S3150FE11CE002487047024870474A43E00F6A43E00FE4
S3150FE11CF08642E00F70B504000D4618BF002DA2B065
S3150FE11D00164600D016B940F2016023E001211248D0
S3150FE11D10FFF70AFE402111A8FFF730F9FFF7DEFFC3
S3150FE11D20014611A800F040FEFFF7DAFF014619A8B8
S3150FE11D3000F03AFE294601A800F036FE314609A821
S3150FE11D4000F032FE01A8009011AB20222146034894
S3150FE11D5000F039FE22B070BD0005080000000F400B
S3150FE11D60104911480A6802F00702022A09D00AD37C
S3150FE11D70042A01D002D306E0406805E04FF40040A3
S3150FE11D8002E0006800E08068C96EC1F30421491CD6
S3150FE11D90B0FBF1F070470548016841F4700101604D
S3150FE11DA07047000094400E401001002088ED00E0DE
S3150FE11DB0074988421CBF0749884205D00649884230
S3150FE11DC01CBF0649884201D10120704700207047A8
S3150FE11DD0008001400084014000A0014000A40140C1
S3150FE11DE02DE9F84304460D46FFF7E2FF2878010097
S3150FE11DF004BF0221616000216162697801B140216E
S3150FE11E006A7A02B18022AB7A03B12023EE7A06B168
S3150FE11E10102695F8049095F805C095F80CE0EF7843
S3150FE11E2095F80280B9F1000F18BF4FF40059BCF1D4
S3150FE11E30000F18BF4FF0805CBEF1000F18BF4FF0D7
S3150FE11E40080E3F0447EA0868AF7948EA8728EF7931
S3150FE11E502D7A48EA07273D43294311431943314375
S3150FE11E6049EA01014CEA01014EEA0101216008B19B
S3150FE11E7001206060BDE8F18310B54A688B68CC68D4
S3150FE11E800968016002600360046010BD10B5026865
S3150FE11E900368046800680A608C604B60C86010BD17
S3150FE11EA038B504460D46FFF7E7FF05F11001204669
S3150FE11EB0FFF7E2FF05F120012046FFF7DDFF05F110
S3150FE11EC030012046BDE83440D6E72DE9F04F91B019
S3150FE11ED08046894616461C4600F0F3FE074614B1C6
S3150FE11EE0012C02D003E0002000E00420386000203E
S3150FE11EF07860F864786820F4406078600020386391
S3150FE11F00786300F007FF04464FF482703D184146AF
S3150FE11F102846FFF7B1FF08F110012846FFF7ACFF9E
S3150FE11F20204600F0FBFE2048386500254FF4D270BD
S3150FE11F3007EB000A0CE000F0EDFE04465946504669
S3150FE11F40FFF7AEFF204600F0E9FE184838656D1C35
S3150FE11F50B54211D209EB851B1BF00300EBD04022F2
S3150FE11F6059466846FEF7CEFF00F0D4FE04466946B1
S3150FE11F705046FFF795FFE5E700F0CCFE04464FF438
S3150FE11F8080703E1841463046FFF780FF08F1100199
S3150FE11F903046FFF77BFF204600F0C0FE384600F0E3
S3150FE11FA099FE11B0BDE8F08F888AC801070D81014E
S3150FE11FB000281CBF6C21FEF7E1BF704700F120023C
S3150FE11FC000231360536031B1012180F8681020229C
S3150FE11FD00FF2541104E080F8681020220FF2281155
S3150FE11FE0FEF7A0BF01238CE02DE9F0411600044670
S3150FE11FF088461BD000F063F8A7B1AE4212D300F0CA
S3150FE1200059F804F128012046FFF7ECFFA844761BA7
S3150FE12010002707E0B509012300F048F808EB85181A
S3150FE12020A6EB8516402EF5D206B155E0BDE8F08157
S3150FE120307CB5044604F120000D4642680168D200E2
S3150FE1204042EA51728DF80320C900130E8DF8003064
S3150FE12050160A130C0A0E8DF804208DF801300A0CBE
S3150FE120608DF805208DF802600A0A8DF806208DF8A5
S3150FE120700710007800F038F834BFC0F13802C0F12C
S3150FE1208078022046FFF7B0FF082269462046FFF7A0
S3150FE12090ABFF002001E000F02DF894F8681000295D
S3150FE120A014BF1C2120218842F5D373BD2A46414630
S3150FE120B020460AE7E0192A462830FEF723BF206AB1
S3150FE120C000F03F073018B042C7F14005206202D257
S3150FE120D0606A401C6062704732464146E019BDE8CE
S3150FE120E0F0412830FEF70EBF0FF25C0100F03F0022
S3150FE120F038287047810854F8211009BA2950001D74
S3150FE1210070470122E1E6000067E6096A85AE67BB23
S3150FE1211072F36E3C3AF54FA57F520E518C68059BD3
S3150FE12120ABD9831F19CDE05BD89E05C107D57C36A8
S3150FE1213017DD703039590EF7310BC0FF111558689D
S3150FE12140A78FF964A44FFABE8000000000000000DB
S3150FE121500000000000000000000000000000000089
S3150FE121600000000000000000000000000000000079
S3150FE121700000000000000000000000000000000069
S3150FE121800000000000000000890001EB401000F1A3
S3150FE1219084400260704710B54A688B68CC6809685D
S3150FE121A0016002600360046010BD10B50268036848
S3150FE121B0046800680A608C604B60C86010BD38B572
S3150FE121C0102A04460D460ED101220021FFF7DCFF4E
S3150FE121D04FF48870044429462046FFF7DCFF05F1EA
S3150FE121E01001204606E000220021FFF7CDFF294628
S3150FE121F004F12400BDE83440CDE71FB50C4614F0D9
S3150FE12200030108D06946FFF7D0FF10226946204641
S3150FE12210FEF778FE1FBD2146FFF7C7FF1FBD1FB5AE
S3150FE12220044611F0030008D010226846FEF76AFE55
S3150FE1223069462046FFF7AFFF1FBD2046FFF7ABFF0D
S3150FE122401FBD00281CBF2421FEF798BE704770B54D
S3150FE1225004000D4618BF002D164602D16FF021007E
S3150FE1226070BD2421FEF78AFE802E18BFB6F5807F5A
S3150FE1227002D06FF01F0070BD2660F2082946201DBF
S3150FE12280FEF740FE002070BD2DE9FF4F81B0002A19
S3150FE1229014BF17680027002400281CBF0F9D002DCF
S3150FE122A00AD0DDF84090B9F1000F1EBF002BDDF823
S3150FE122B03880B8F1000F02D16FF0210070E00068AD
S3150FE122C0802818BFB0F5807F04D06FF01F0067E05C
S3150FE122D000F069F8029884425ED2002FF8D100F03F
S3150FE122E0F0FC0646002070604FF0000B4FF44040C3
S3150FE122F0306000F00FFD8246019800688028019852
S3150FE123000CBF08221022011D3046FFF758FF049932
S3150FE1231006F18400FFF783FF00F050F80298001BE7
S3150FE123200009009014E000F04CF80BF1010B00F0FE
S3150FE12330F1FC8246291906F1A000FFF770FF09EBC0
S3150FE12340040106F18000FFF758FF00F037F810346B
S3150FE1235000988345E7D30298001B0FD05FB900F0D1
S3150FE1236030F800F0D7FC8246414606F18000FFF7D0
S3150FE1237044FF00F023F800F016F8ECE700F0CAFC92
S3150FE123808246049906F18400FFF737FF00F016F84D
S3150FE12390304600F09FFC9DE7039800B107600020EF
S3150FE123A005B0BDE8F08F285D18F80710484009F829
S3150FE123B00400641C781C00F00F077047504600F0CC
S3150FE123C0ADBC4820B0600520B06030698007FCD411
S3150FE123D00320B0607047FEE710B54A688B68CC689A
S3150FE123E00968016002600360046010BD10B5026800
S3150FE123F00368046800680A608C604B60C86010BDB2
S3150FE1240038B504460D46FFF7E7FF05F11001204603
S3150FE12410BDE83440E0E738B504460D46FFF7E6FF81
S3150FE1242005F110012046BDE83440DFE78C220FF2BB
S3150FE12430F87150430844007A70478C220FF2E87125
S3150FE1244050430844407A704710B500F010F8BDE8E4
S3150FE12450104000F10C0106E010B500F008F8BDE8F8
S3150FE12460104000F12C0120221846FEF74BBD0B461A
S3150FE124708C240FF2B471604308447047F8B50446F3
S3150FE124800D46164600F046FC07464FF48470294682
S3150FE124902044FFF7B5FF4FF4867031462044FFF72E
S3150FE124A0AFFF384600F03AFCDFF8E8062065012079
S3150FE124B060656069000E00F0010080F00100F2BD79
S3150FE124C02DE9F04F89B0044688469246994600F0C9
S3150FE124D021FC83464FF48270271808F1400100F082
S3150FE124E08AF94FF486702518514600F025F94FF415
S3150FE124F0887026180AF120013046FFF781FF00F0B8
S3150FE1250023F900F024F98346414600F074F94FF4BC
S3150FE12510847004EB000A08F1200100F013F908F1C9
S3150FE1252040013046FFF76CFF00F00EF9DFF8680661
S3150FE125302065DFF8680600F04BF883464FF48070AC
S3150FE12540261809F1400100F0F4F869465046FFF705
S3150FE1255062FF00F0F9F800F0DDFB834600F0EBF8DF
S3150FE1256000F0F2F8DFF838062065DFF83806606527
S3150FE12570DFF8340600F0F3F8054600F03AF900F01B
S3150FE12580DDF8DFF828062065DFF8240600F020F8ED
S3150FE12590054649465046FFF73EFF00F0CFF800F0FB
S3150FE125A0B9FB054669463846FFF72AFF00F0C6F83C
S3150FE125B0DFF800062065DFF8000600F009F80446AB
S3150FE125C000F0B5F8204600F0A9FB09B0BDE8F08FA1
S3150FE125D060650120A06500F09DBB2DE9F04F99B034
S3150FE125E004468846914600F095FB05464FF4827006
S3150FE125F0271800F0FEF800F0A1F8DFF8C005206516
S3150FE12600DFF8BC056065DFF8BC05FFF7E3FF0646BB
S3150FE126104FF48070251808A900F002FB00F0E6F8E8
S3150FE1262000F078FB064600F086F800F0DFF8DFF8F9
S3150FE1263098052065DFF8940560654FF48670FFF71E
S3150FE12640C9FF82464FF48670261810A93046FFF768
S3150FE12650E2FE694600F0E4FA504600F05FFB00F057
S3150FE1266059FB824608F1400100F0C5F8504600F0EB
S3150FE1267055FBDFF85C0520650120606500F04AFB3C
S3150FE1268083464FF4847004EB000A414600F05AF892
S3150FE1269000F05AF8DFF83C052065DFF83C05606588
S3150FE126A0DFF8380500F05BF8834669465046FFF7D9
S3150FE126B0A7FE10A93046FFF7A3FE00F045F8DFF8B5
S3150FE126C020052065DFF81C056065DFF81C05FFF7BF
S3150FE126D081FF83464FF4887049462044FFF79BFEFE
S3150FE126E000F032F800F016FB834600F082F808F1AD
S3150FE126F0400100F027F808A93046FFF781FE00F008
S3150FE1270023F8DFF8E8042065DFF8E404606500F0FC
S3150FE1271001FB044609F140012846FFF77CFE00F074
S3150FE1272006F8204600F0FAFA19B0BDE8F08F09F184
S3150FE12730200130466FE64146284661E6284600F01D
S3150FE12740EDBA314650465BE6584600F0E7BADFF898
S3150FE127506C042065DFF89C046065DFF89C04A065D6
S3150FE127600120E06500F0D6BA2DE9F04105460F46A6
S3150FE127701C46904620212046FEF700FC01202060F2
S3150FE1278000F0C8FA06464FF4807041462844FFF739
S3150FE1279037FE4FF4827039462844FFF731FE4FF486
S3150FE127A084702F18214600F026F800F01FF8DFF8A5
S3150FE127B04C0428650BE0DFF848042865DFF844048C
S3150FE127C06865DFF84404A865DFF84004E8656869E1
S3150FE127D0C001F0D500F09EFA054621463846FFF7CF
S3150FE127E01AFE2846BDE8F04100F098BA304600F0EF
S3150FE127F095BA08F12001384602E650F8043B9342B8
S3150FE1280003D007E050F8042B22B9091F0129F9DAA1
S3150FE1281001207047002070472DE9F04188B004464A
S3150FE128200E461546984620216846FEF7A7FB01207E
S3150FE12830009020210E9F3846FEF7A0FB202107F1DD
S3150FE128402000FEF79BFB202107F14000FEF796FBE8
S3150FE128503046FFF7EBFD00F0A3F800F09CF88C2172
S3150FE128600FF2C43011FB06F108444068461E00E042
S3150FE12870761E012E16DB00F03EF8F9D512E0202286
S3150FE1288029463846FEF74EFB202205F1200107F1D6
S3150FE128902000FEF747FB2022694607F14000FEF7CD
S3150FE128A041FB761E002E23D43A4639462046FFF7E2
S3150FE128B094FE00F020F8F4D5002220213846FFF7E8
S3150FE128C09CFF70B10022202107F12000FFF795FF51
S3150FE128D038B10022202107F14000FFF78EFF0028D3
S3150FE128E0CDD13B462A4639462046FFF7E9FDD8E7E3
S3150FE128F008B0BDE8F081301106EBD060401158F811
S3150FE129002010A6EB4010C140C80770472DE9F041F2
S3150FE1291004460F4690B016461D463846FFF786FD2C
S3150FE1292000F03EF800F037F869463846FFF78CFDC0
S3150FE1293008AB6A4606F140012046FFF715FF00F0A6
S3150FE12940E9F980464FF4827008A92044FFF758FD54
S3150FE129504FF4867027183146FFF74DFF4FF4887015
S3150FE1296006F120012044FFF74BFD404600F0D6F972
S3150FE12970FFF7EDFE06464FF4807005F12001204486
S3150FE12980FFF749FD29463846FFF745FDFFF72EFFCD
S3150FE1299010B0BDE8F08100202060206360637047CE
S3150FE129A00146204600F0BEB938B50D460446202152
S3150FE129B0FEF7E4FAFFE71F204242295C2244401E5C
S3150FE129C0D177F9D531BD2DE9F04F0F00984618BFF4
S3150FE129D0B8F1000FB9B00446154603D0429E0EB1C9
S3150FE129E0012D02DA40F20160D1E0FFF7D4FF606812
S3150FE129F040F0100060600020FFF71FFDFFF7D0FFEA
S3150FE12A00606820F4406040F40060606009A9606886
S3150FE12A1020F4407040F4007060600020FFF71CFD69
S3150FE12A2009AA31462046FFF729FD30B909AA06F171
S3150FE12A3020012046FFF722FD10B140F20260A6E029
S3150FE12A40212DA8BF2025202111A8FEF797FA0020F6
S3150FE12A5014E02A1A521E01A99208A5F1010C01EB05
S3150FE12A608201ACEB000C3B5C0A6C4FEACC0C0CF030
S3150FE12A70180C03FA0CF31A430A64401CA842E8DB6C
S3150FE12A8000F048F905464FF48470271811A9384626
S3150FE12A90FFF7B6FCFFF752FE5D48206500F03AF905
S3150FE12AA081464FF48070251811A900F0B9F8484610
S3150FE12AB000F034F919AB09AA06F120012046FFF718
S3150FE12AC053FE00F027F983464FF4827019A920448B
S3150FE12AD0FFF796FC4FF4887004EB000911A94846FD
S3150FE12AE0FFF78EFC4FF4867004EB000AFFF729FE21
S3150FE12AF0FFF72AFE474820654748606500F00AF967
S3150FE12B00834611A94846FFF786FC19A900F088F814
S3150FE12B10FFF71AFE21A8009011AB0FF25812002110
S3150FE12B202046FFF779FE01A8009019AB4246002136
S3150FE12B302046FFF771FE21AB21AA00212046FFF7C0
S3150FE12B40E5FE01AB21AA01A92046FFF7B9FC01ABCE
S3150FE12B5001AA00212046FFF7D9FE00F0DBF8054672
S3150FE12B600020FFF76AFCFFF71BFF01A93846FFF7C5
S3150FE12B7047FCFFF7E6FDFFF7E1FD2848206523480F
S3150FE12B8060656069C0014CBF002040F2046039B056
S3150FE12B90BDE8F08F3035DA10D01482CB1481E11C09
S3150FE12BA08CE11C811C84D91C8391D11CE014D814AF
S3150FE12BB01482E11C84D31482D11CE0148AD11C81C6
S3150FE12BC0821CC00C0C0C0100C00C0C83D91C83D8E1
S3150FE12BD08AD11C83DA0C811482D11C81C80C0C8139
S3150FE12BE08CE11CD01484E31482D11C01D81483D157
S3150FE12BF01CC00C01D91C83D11C81E11C393984011C
S3150FE12C00D02484FC1C82FED88B1C81A039380100AC
S3150FE12C1030D00C0130E11C8430D91C013035DA1487
S3150FE12C202846FFF7F8BB0000200000000001000076
S3150FE12C30050C0000FFFFFFFFFFFFFFFFFFFFFFFF99
S3150FE12C40000000000000000000000000010000008D
S3150FE12C50FFFFFFFF512563FCC2CAB9F3849E17A795
S3150FE12C60ADFAE6BCFFFFFFFFFFFFFFFF000000002D
S3150FE12C70FFFFFFFF96C298D84539A1F4A033EB2D9C
S3150FE12C80817D0377F240A463E5E6BCF847422CE188
S3150FE12C90F2D1176BF551BF376840B6CBCE5E316BCC
S3150FE12CA05733CE2B169E0F7C4AEBE78E9B7F1AFE90
S3150FE12CB0E242E34F890001EB401000F184400260EC
S3150FE12CC0704780B5FFE7012200210B48FFF7F2FFBE
S3150FE12CD00A4802BD0949884209D100200FF22401B1
S3150FE12CE001EBC000002241680348E3E7704704495E
S3150FE12CF08842FBD10120F1E7B0400E4000000F40C2
S3150FE12D0000040F4000000F400000000000040F40D8
S3150FE12D1001000000EFF3108072B6704700B962B69A
S3150FE12D207047FEE742685209042941EA421209D97E
S3150FE12D30491F022908D9C91E032903D9091F0229E7
S3150FE12D4002D970474260704742F010014160704707
S3150FE12D5038B5174C206840F00800206001230422A3
S3150FE12D6000F02AF8002001E00098401C009000983E
S3150FE12D706428F9DB0123022200F01EF8002001E0AE
S3150FE12D800098401C00900098B0F5FA7FF8DB0948EF
S3150FE12D900068012814BF012500250123002200F058
S3150FE12DA00BF8206820F008002060284632BD0000AD
S3150FE12DB0B0400E409821144206210520FEF700BED1
S3150FE12DC04FF40170FEF764F800BF474847490068C2
S3150FE12DD00860474947480068000E09D14AF6E850AE
S3150FE12DE0C862486B40F0040048630020C86201E006
S3150FE12DF0022803D2086840F4005008603E48016893
S3150FE12E0021F4401141F4881101603C48016841F415
S3150FE12E108071016040213A48C16001684903FCD4E1
S3150FE12E200020C046FEF72FF8FDF72AFDFDF72AFD34
S3150FE12E30C0B9FDF74BFD0446C046C046002C1ABF8C
S3150FE12E4040F20370844240F2012009D040F205704E
S3150FE12E5084421CBF40F20670844203D140F2032044
S3150FE12E60FEF716F84FF40170FAE7000038B525487A
S3150FE12E70016801240125B1F5803F08BF002512D075
S3150FE12E80006840050AD5FEF725F840F20221401AFF
S3150FE12E9007D0C01E05D0C01E012802D9FFF758FF83
S3150FE12EA008B1002400250420006810F1010F06D1B6
S3150FE12EB0BDE832404FF40270FDF7DEBF31BD25B1FB
S3150FE12EC0002000F07DF80400F2D0002CF6D00E4978
S3150FE12ED00020086000221046016881F3088881F31B
S3150FE12EE0098840688746FEE7180100201C0100208B
S3150FE12EF064310E40FC81E00F20400E4000000E4091
S3150FE12F0004300E4004500E4008ED00E02DE9F0418B
S3150FE12F100446674800688846016916468C4222BF17
S3150FE12F2037194069B84216D3E00AB4EBC02004BFA3
S3150FE12F30204600F0F1F804F50060C50AED0204E061
S3150FE12F40284600F0E9F805F50065BD42F8D33246AB
S3150FE12F504146204630E0BDE8F0812DE9F041884653
S3150FE12F605449554B096815460A689A4222D10969AF
S3150FE12F7046184F4909684A69AF19BA421AD310B9C7
S3150FE12F80086900F0C9F8F00AB6EBC02004BF304675
S3150FE12F9000F0C2F806F50060C40AE40204E0204638
S3150FE12FA000F0BAF804F50064BC42F8D32A4641466C
S3150FE12FB0304601E0BDE8F081BDE8F04100F0D6B85A
S3150FE12FC050B585B0044668460FF204111022FDF79D
S3150FE12FD0A9FF22686068616B02F16042B2F5802F4A
S3150FE12FE029D8334A12681269904224D3334B984257
S3150FE12FF021D202F1400081420E4601D3994205D317
S3150FE130000020C046401E8041C00F1BE00020C04695
S3150FE1301098B900F057F8A0B9706990B102280CD1B0
S3150FE13020B069001D011B4FF0FF322046FEF7D8FDB8
S3150FE130302349884205D0002004E0204600F004F839
S3150FE1304000E0012005B050BD50B59FB0044668467B
S3150FE130500FF28C011022FDF765FF666B00F032F877
S3150FE1306018B9706901280AD1B66911480068006973
S3150FE13070864228BFA64202D3B6F5801F01D90020AA
S3150FE1308013E004A8FEF7BAFD321B214604A8FEF7AA
S3150FE13090BFFD04A8FEF7BEFD06F12002314604A8E6
S3150FE130A0FEF728FE401E8041C00F1FB050BD000045
S3150FE130B02808E10F2800E10FAD1007B0010010005D
S3150FE130C0E320BBDE102269463046FEF7D5BD000090
S3150FE130D013B779FAC925DDB7ADF3CFE0F1B614B879
S3150FE130E013B779FAC925DDB7ADF3CFE0F1B614B869
S3150FE130F0084841F671318163016849084900016069
S3150FE13100704704480168490849000160002181635D
S3150FE131107047000008000E4010B50446FFF7E8FFC0
S3150FE13120204600F0E4F80446FFF7EBFF601E80410E
S3150FE13130C00F10BD10B58408800782B005D508040D
S3150FE1314040F47F4040F0FF0003E041F07F4040F460
S3150FE131507F000090FFF7CCFF04226946A00000F044
S3150FE13160FFF80446FFF7CDFF204616BD2DE9F041E6
S3150FE1317004460E46154604F0010005F00101084329
S3150FE1318027D125B3A00708D536F8021B2046FFF74E
S3150FE13190D1FFF0B9A41CAD1E19D0AF08FFF7A8FFF8
S3150FE131A0BF003A463146204600F0DAF88046FFF78F
S3150FE131B0A8FF3C197808B8F1000F06EB400608D1D5
S3150FE131C0E81B04D031882046FFF7B4FF08B9012088
S3150FE131D000E00020BDE8F0816449654A01E021B1D4
S3150FE131E0491E1369DB07FAD401B9B0E0506001203B
S3150FE131F01060106910F0060F05D0410700D5A9E060
S3150FE13200800700D5A9E000207047F0B513460022EC
S3150FE13210002936D0554C564D8BB98B4231D250F8E9
S3150FE13220046BEE605B1C08262E60264601E036B382
S3150FE13230761E2F69FF07FAD4002EEED11FE0EFF3CA
S3150FE13240108672B600230EE02F6907F01907102FCB
S3150FE1325008BF2F602F693F07F6D550F8047BEF6063
S3150FE132605B1C10272F608B42F4D306B962B6264654
S3150FE1327001E026B1761E2869C007FAD40EB96FF0C0
S3150FE1328002021046F0BD2DE9F0479A46354B364F0F
S3150FE132901C681B683B688046002043F001033B60D6
S3150FE132A0950881460C4602E0B14404EB8604A94534
S3150FE132B017D208EB89063046FFF78EFF010014D1CE
S3150FE132C0C6F30A00C0F500608608A5EB0900B04217
S3150FE132D038BF0646524631462046FFF796FF0100B4
S3150FE132E0E2D03968490849003960BDE8F0871D49E0
S3150FE132F01E4A0B6809681C490B6843F001030B6012
S3150FE133008860012048604869400704D5086840088D
S3150FE13310400008601EE04869800704D50868400848
S3150FE133204000086019E00220486001E022B1521E18
S3150FE133304869C007FAD422B9086840084000086016
S3150FE1334005E00868400840000860002070476FF00C
S3150FE13350020070474FF0FF3070476FF00100704782
S3150FE13360002390E704300E4008000E408096980047
S3150FE133700C000E404EF68851CEF20001086840F47B
S3150FE1338070000860BFF34F8FBFF36F8F4FF0007080
S3150FE13390E1EE100A7047FEE70120C046002801D092
S3150FE133A000F008F80020AFF30080FFF70EFD00F004
S3150FE133B015F8000010B5074979441831064C7C44DD
S3150FE133C0163404E00A68081D114488470146A142F4
S3150FE133D0F8D110BD300100004C01000000F000B83B
S3150FE133E00746384600F002F8FBE700002021090303
S3150FE133F026311820ABBEF9E7002070470020704751
S3150FE1340080B5FEF7C8FCFFF731FDBDE8014000F0DE
S3150FE1341000B8AFF30080FFF7ADFFFFF7BDFF10B5C3
S3150FE13420B1F5BC7F044602D240F2052010BD4FF440
S3150FE13430BC71FDF7A3FD04F1FC0204F1B40104F143
S3150FE134402400BDE810400023FDF7D0BE10B582B0D1
S3150FE134500446009104F124002146FDF703FF0028FD
S3150FE134601CBF41F207018842C4F874010CD1A01CBC
S3150FE13470017839B1407810B140F2032016BD40F220
S3150FE13480022016BD40F2012016BD19E050F8041BCB
S3150FE13490CB0744BFA9F101035918121F0023042AD0
S3150FE134A041F8043BF9D25FEA827C0B4604D54FF033
S3150FE134B0000CA1F800C09B1CD10744BF0021197075
S3150FE134C050F8042B002AE1D1704730B50168426804
S3150FE134D08468014401EB5203D20748BF4C44994239
S3150FE134E001D10C3030BD11F9012B11F8015B002A26
S3150FE134F004F8015B02D5521CF9D1F0E7521EF4D55F
S3150FE13500EDE7000087FFFFFF0C020000201100200E
S3150FE1351000000000B7FFFFFF0C00000044000000B1
S3150FE135208000002081000C00F07F10308000002029
S3150FE1353034000140FB000EF0490200800000C0EAB2
S3110FE135402101C0EA21010000000000009B
S7050FE13413C3
